:100000000C94D1000C94F9000C94F9000C94F900B4
:100010000C94F9000C94F9000C94F9000C94E2098A
:100020000C94960A0C94F9000C94F9000C94F900C5
:100030000C94F9000C94F9000C94F9000C94F9005C
:100040000C9498090C94F9000C94640A0C943E0AE0
:100050000C94F9000C94F9000C94F9000C94F9003C
:100060000C94F9000C94F90018002860095802B0AB
:1000700004580258025802102D00000006002628DD
:10008000236810F4012C06F4012602806E00E507B7
:10009000050026E02070100E022A060E020E020055
:1000A00041000000140026801180113002900630BB
:1000B000023002006E0000001E002638081C040EEC
:1000C000022A060E020E0200320000001D00262247
:1000D0000B220BEE026608EE02EE02806E000000BC
:1000E0001A0026F603BC050802BC050802D401006C
:1000F0004B0000001C00261F015D033E023E021F54
:10010000015D03A06E00000004002604010C03043E
:10011000011C0704010C03006E0000000C00258088
:100120000DC006B0011005B001B001008200000052
:1001300008002600238011300290063002300200B1
:100140006E00E50700000000240027002A000000E0
:100150000008000201000003040700000000000086
:10016000000000000000250028002B000200000015
:1001700000230026002900040404040404040402EB
:100180000202020202030303030303010204081034
:100190002040800102040810200102040810200001
:1001A000CB0B11241FBECFEFD8E0DEBFCDBF12E0D6
:1001B000A0E0B1E0E6E2F9E302C005900D92A432BE
:1001C000B107D9F725E0A4E2B2E001C01D92A93140
:1001D000B207E1F710E0C1EDD0E004C02197FE01C5
:1001E0000E948B1CC03DD107C9F70E94110C0C94D2
:1001F000911C0C94000082E08093B0008093B100C9
:1002000084E68093B3008093B4001092B200809192
:100210000904833011F41092090484E08093700083
:10022000089520910A0530910B052817390728F405
:1002300080910805816080930805089590E0FC0195
:10024000E25BFE4F2491FC01E557FE4F3491FC0127
:10025000E958FE4FE491EE23C9F0222339F0233010
:1002600001F1A8F4213019F1223029F1F0E0EE0F6C
:10027000FF1FEE59FE4FA591B4918FB7F894EC9102
:10028000611126C030953E233C938FBF08952730DF
:10029000A9F02830C9F0243049F7809180008F7D83
:1002A00003C0809180008F7780938000DFCF84B57A
:1002B0008F7784BDDBCF84B58F7DFBCF8091B0007D
:1002C0008F778093B000D2CF8091B0008F7DF9CF2F
:1002D0003E2BDACF60E085E00E941E0161E084E001
:1002E0000E941E0160E086E00E941E0161E087E03E
:1002F0000C941E0164EB85E00E941E0160E084E026
:100300000E941E0160E086E00E941E0164EB87E00F
:100310000C941E01CF93DF9390E0FC01E557FE4F54
:10032000249189589E4FFC0184918823D1F090E05C
:10033000880F991FFC01EC5BFE4FA591B491FC0165
:10034000EE59FE4FC591D49161110EC09FB7F8943C
:100350008C91E22FE0958E238C932881E223E88311
:100360009FBFDF91CF9108958FB7F894EC91E22B66
:10037000EC938FBFF6CF4F925F926F927F928F92E6
:100380009F92AF92BF92CF92DF92EF92FF920F9324
:100390001F93CF93DF9300D000D01F92CDB7DEB76D
:1003A0008C012A013B01809118018830C9F08F3FF0
:1003B00009F47FC00F900F900F900F900F90DF9176
:1003C000CF911F910F91FF90EF90DF90CF90BF9052
:1003D000AF909F908F907F906F905F904F90089517
:1003E000ECE6F1E084918D8387FDE4CF61E088E065
:1003F0000E948A018D81882321F09D81923009F02D
:100400005CC14801B12CA12C60E072E18AE790E068
:10041000A50198010E947A1B29833A834B835C8350
:1004200069017A0181E0C81AD108E108F1089FEF5B
:10043000C916D104E104F10409F00CF413C160E41D
:1004400072E48FE090E0A50198010E947A1B690197
:100450007A0181E0C81AD108E108F1089D81923043
:1004600009F098C08FEFC816D104E104F10409F037
:100470000CF4DDC160E970ED83E090E0A501980126
:100480000E947A1B69017A0191E0C91AD108E1083A
:10049000F1088FEFC816D104E104F10411F00CF05B
:1004A000A3C183E09091B100987F892B8093B10024
:1004B000E1C088E080931801ECE6F1E094919D831F
:1004C0009F3F09F477CF913029F158F0923009F429
:1004D0003FC08D8187FD6ECF61E088E00E948A0178
:1004E0008CCF14BC15BC84B5826084BD85B5816099
:1004F00085BDEFE7F1E0E491F0E0EE0FFF1FEE596C
:10050000FE4F85919491E3E9F1E0E491E093460296
:100510001D826CCF1092800010928100809181002A
:100520008860809381008091810081608093810048
:10053000EFE7F1E0E491F0E0EE0FFF1FEE59FE4F20
:1005400085919491E3E9F1E0E491E09345024ECF87
:100550001092B0001092B1008091B0008260809340
:10056000B0008091B10081608093B100EFE7F1E0CD
:10057000E491F0E0EE0FFF1FEE59FE4F859194914C
:100580009093440280934302E3E9F1E0E491E09325
:1005900042022CCF9FEFC916D104E104F10409F007
:1005A0000CF489C068E478EE81E090E0A501980140
:1005B0000E947A1B69017A0181E0C81AD108E1081A
:1005C000F1089D81992309F428C19FEFC916D10430
:1005D000E104F10409F00CF41EC162E17AE780E065
:1005E00090E0A50194010E947A1B69017A0181E0E3
:1005F000C81AD108E108F1089D81992309F4EBC0DC
:100600008FEFC816D104E104F10411F008F0BFC067
:1006100086E048CF64E274EF80E090E0A5019401A9
:100620000E947A1B69017A0181E0C81AD108E108A9
:10063000F10885E09FEFC916D104E104F10409F047
:1006400008F430CF62E17AE780E090E0A501940100
:100650000E947A1B69017A0191E0C91AD108E10868
:10066000F108CECF81E09D8191111CCF95B5987F87
:10067000892B85BD2FEF3FEFA9014114510461047F
:10068000710409F043C09D81913009F45EC092303D
:1006900009F46DC091118ECEC7BC20934F023093E8
:1006A0005002409351025093520280916E0082603A
:1006B00080936E007FCE82E0D6CFB12CA12C60E07B
:1006C00072E18AE790E0A50198010E947A1B690116
:1006D0007A0181E0C81AD108E108F108C114D104F7
:1006E00091E0E906F10404F591E08D81813011F685
:1006F00080918100887F892B809381002FEF3FEFCD
:10070000A9014114510461047104F9F0D801AA0F40
:10071000BB1FA30192010E94991B28EE33E040E029
:1007200050E00E94581BAFCF68E478EE81E090E083
:10073000A50198010E947A1B69017A0181E0C81A1B
:10074000D108E108F10893E0D0CFD0928900C0929F
:10075000880020934B0230934C0240934D025093FB
:100760004E0280916F00826080936F0023CEC09212
:10077000B3002093470230934802409349025093BC
:100780004A028091700082608093700013CEC9800D
:10079000DA80EB80FC809AE0F594E794D794C794D4
:1007A0009A95D1F791E0C91AD108E108F10887E0DC
:1007B00079CEC980DA80EB80FC808AE0F594E794FA
:1007C000D794C7948A95D1F791E0C91AD108E10866
:1007D000F10885E04BCF8FEFC816D104E104F10496
:1007E00009F038F784E042CF68E478EE81E090E0E9
:1007F000A50198010E947A1B69017A0191E0C91A4A
:10080000D108E108F1088FEFC816D104E104F10422
:1008100011F00CF0FFCE84E045CE8FEFC816D10466
:10082000E104F10411F00CF0D8CE83E01FCF82E098
:1008300039CE3FB7F89480913E0290913F02A0914B
:100840004002B091410226B5A89B05C02F3F19F088
:100850000196A11DB11D3FBFBA2FA92F982F882740
:10086000BC01CD01620F711D811D911D42E0660F1B
:10087000771F881F991F4A95D1F708958F929F92ED
:10088000AF92BF92CF92DF92EF92FF926B017C0109
:100890000E9419044B015C01C114D104E104F1046C
:1008A000B9F00E941904681979098A099B09683E00
:1008B00073408105910580F321E0C21AD108E10857
:1008C000F10888EE880E83E0981EA11CB11CE4CFCD
:1008D000FF90EF90DF90CF90BF90AF909F908F9060
:1008E00008952FB7F89460913A0270913B0280917D
:1008F0003C0290913D022FBF0895909118018913F9
:100900000BC0ECE6F1E0E4919FEF90931801E13029
:1009100049F028F0E23061F060E00C941E01109282
:100920006E00FACF90916F009D7F90936F00F4CF8F
:10093000909170009D7F9093700091E09093B00033
:100940009091B100987F94609093B1001092B300A1
:10095000E3CFAF92BF92CF92DF92EF92FF920F93CD
:100960001F93CF93DF936C017B018B01040F151F45
:10097000EB015E01AE18BF08C017D10759F06991AD
:10098000D601ED91FC910190F081E02DC601099511
:10099000892B79F7C501DF91CF911F910F91FF90BE
:1009A000EF90DF90CF90BF90AF900895FC01538DF2
:1009B000448D252F30E0842F90E0821B930B541739
:1009C00010F0CF96089501970895FC01918D828DC6
:1009D000981761F0A28DAE0FBF2FB11D5D968C915F
:1009E000928D9F5F9F73928F90E008958FEF9FEF9E
:1009F0000895FC01918D828D981731F0828DE80F5A
:100A0000F11D858D90E008958FEF9FEF0895FC0113
:100A1000918D228D892F90E0805C9F4F821B9109E0
:100A20008F739927089589E592E00E94070521E0D8
:100A3000892B09F420E0822F089580E090E0892B33
:100A400029F00E94130581110C9400000895FC0107
:100A5000A48DA80FB92FB11DA35ABF4F2C91848D1F
:100A600090E001968F739927848FA689B7892C937C
:100A7000A089B1898C91837080648C93938D848DCF
:100A8000981306C00288F389E02D80818F7D8083D2
:100A90000895EF92FF920F931F93CF93DF93EC0192
:100AA00081E0888F9B8D8C8D98131AC0E889F98915
:100AB000808185FF15C09FB7F894EE89FF89608318
:100AC000E889F98980818370806480839FBF81E099
:100AD00090E0DF91CF911F910F91FF90EF900895DB
:100AE000F62E0B8D10E00F5F1F4F0F731127E02EB6
:100AF0008C8D8E110CC00FB607FCFACFE889F989EE
:100B0000808185FFF5CFCE010E942705F1CFEB8DC7
:100B1000EC0FFD2FF11DE35AFF4FF0829FB7F894C1
:100B20000B8FEA89FB8980818062CFCFCF93DF93DF
:100B3000EC01888D8823B9F0AA89BB89E889F989F5
:100B40008C9185FD03C0808186FD0DC00FB607FC2A
:100B5000F7CF8C9185FFF2CF808185FFEDCFCE015D
:100B60000E942705E9CFDF91CF9108958F929F9240
:100B7000AF92BF92CF92DF92EF92FF92CF93DF932B
:100B80006C010E9471044B015C01C8E0D7E0F12CBC
:100B9000E12C4AE050E060E070E0CE010E94BB0131
:100BA00068E070E080E090E00E943E040E947104E2
:100BB000681979098A099B09C616D706E806F90655
:100BC00028F0EC96CC3989E0D80719F7C0E6D9E0CF
:100BD0004CE050E060E070E0CE010E94BB0169E0B3
:100BE00070E080E090E00E943E040E947104681969
:100BF00079098A099B09C616D706E806F90630F076
:100C0000C055D109C03585E0D80711F788E0DF91DC
:100C1000CF91FF90EF90DF90CF90BF90AF909F90DB
:100C20008F900C947D04CF93C82F60E085E00E94E4
:100C30001E016C2F84E00E941E016C2F86E00E9432
:100C40001E0160E087E0CF910C941E01CF93C82F66
:100C500060E085E00E941E016C2F84E00E941E016E
:100C600060E086E00E941E016C2F87E0CF910C941B
:100C70001E0160E086E00E941E0160E087E00E94A5
:100C80001E0160E084E00E941E0160E085E00C949B
:100C90001E0122E3FC012E9FC0012F9F900D112405
:100CA000480F591F7695679576956795CB01880F04
:100CB000991F860F971F8417950750F485E0869F2C
:100CC0009001879F300D112481E02417350708F427
:100CD00080E008954CEE5FEF0C9449064F925F92CE
:100CE0006F927F929F92AF92BF92CF92DF92EF92DC
:100CF000FF920F931F93CF93DF93182F5A01922ED9
:100D0000C62FD0E0CA5EDB4F412C512C32014394F8
:100D1000C12CD12C7601112301F19920B1F08881E9
:100D2000B50190E00E946A06002379F1CC0CDD1C2D
:100D3000EE1CFF1C882311F06894C0F8440C551C6D
:100D4000661C771C11502296E6CF898144E150E061
:100D5000B50190E00E944906E7CFC092E604D09228
:100D6000E704E092E804F092E904DF91CF911F914B
:100D70000F91FF90EF90DF90CF90BF90AF909F903A
:100D80007F906F905F904F9008958823B9F2C428A8
:100D9000D528E628F728D2CFCF93DF93EC01FC01CA
:100DA0003396659174918091170490E00E946A06D1
:100DB000882369F0FE01359665917491809118043D
:100DC00044E150E090E0DF91CF910C94490680E03F
:100DD000DF91CF91089522E3289FA001299F500D14
:100DE000112476956795769567959B01220F331FA1
:100DF000260F371F4217530750F085E0869F90015A
:100E0000879F300D112481E02417350708F480E016
:100E10000895BF92CF92DF92EF92FF920F931F93AC
:100E2000CF93DF931091580280910905B12C1817C8
:100E3000A0F5812F8170B82E0091570201111EC0BC
:100E4000E12FF0E0E75FFB4FE584F12CCCEEDFEF24
:100E5000882311F0C4E1D0E0C0905502D090560232
:100E6000CC0DDD1DBE01C7010E94EB06882301F1F8
:100E700081E090E090935402809353020F5F0093BF
:100E8000570280915302909154020817190628F0D6
:100E9000109257021F5F109358028B2DDF91CF9154
:100EA0001F910F91FF90EF90DF90CF90BF9008952A
:100EB000CC0DDD1DBE01C7010E94EB06882319F091
:100EC00082E090E0D7CFB6016C0F7D1FC7010E9472
:100ED000EB06882319F083E090E0CCCFBB24BA94D2
:100EE000DCCF80911705811102C02D98089560E034
:100EF0000C941E01882349F080911705811102C0CE
:100F00002D9A089561E00C941E010C9471078F9244
:100F10009F92AF92BF92CF92DF92EF92FF921F9378
:100F2000CF93DF93EC010E9419046B017C014B010C
:100F30005C0188E0880E911CA11CB11C10E0F894A3
:100F400061E0809104040E941E0180910704909149
:100F500008048230910538F0880F991F880F991F77
:100F600005970197F1F760E0809104040E941E014B
:100F70007894111103C081E00E947A0780910504E2
:100F800090910604C80ED91EE11CF11CF8940E9431
:100F900019049B01281939092C173D0778F00E9484
:100FA00071077894DF91CF911F91FF90EF90DF90C0
:100FB000CF90BF90AF909F908F90089511E06C15E7
:100FC0007D058E059F0518F3BACFCF92DF92EF9281
:100FD000FF928AE190E0909306048093050485E0F7
:100FE00090E0909308048093070461E080910404EA
:100FF0000E948A0180E093E20E9487070E94190400
:101000006B017C0124E0C21AD108E108F1080E94BA
:1010100019046C197D098E099F09603C784081058F
:101020009105A8F380E392E0FF90EF90DF90CF90DE
:101030000C948707FF920F931F93CF93DF93CDB745
:10104000DEB764970FB6F894DEBF0FBECDBF162F84
:10105000F42E44E150E0BC01CE0101960E94201A1A
:101060000889802F80714885598504FD02C04A8512
:101070005B85001F0027001F21E0811101C020E0D7
:101080006F2D812F0E946E0664960FB6F894DEBF16
:101090000FBECDBFDF91CF911F910F91FF900895AB
:1010A000FC0101900020E9F73197AF01481B590B73
:1010B000BC0189E592E00C94A904CF93DF930E94D0
:1010C0005008EC0183E391E00E9450088C0F9D1FB3
:1010D000DF91CF9108954F925F926F927F928F929E
:1010E0009F92AF92BF92CF92DF92EF92FF92CF93F7
:1010F000DF93CDB7DEB72C970FB6F894DEBF0FBEE7
:10110000CDBF69877A878B879C870E94710469832A
:101110007A838B839C838BE0882E912CA12CB12C1D
:101120000E94710429813A814B815C81621B730B9F
:10113000840B950B29853A854B855C85621773076F
:101140008407950708F044C00E94C8192B013C0190
:101150000E94C8196B017C010E94C8196D837E83AF
:101160008F839887C701B601A50194010E947A1B5D
:101170006B017C013AE0C30ED11CE11CF11CC301E0
:10118000B20125E130E040E050E00E947A1BDC0132
:10119000CB010A97A109B10988589F4FB701A60151
:1011A0000E94BB01C701B6010E943E0488E00E9474
:1011B0007D046D817E818F819885A50194010E94B7
:1011C0007A1B6B5F7F4F8F4F9F4F0E943E04A8CFCB
:1011D0002C960FB6F894DEBF0FBECDBFDF91CF9136
:1011E000FF90EF90DF90CF90BF90AF909F908F9047
:1011F0007F906F905F904F9008954F925F926F92A3
:101200007F928F929F92AF92BF92CF92DF92EF9296
:10121000FF922B013C010E9471044B015C0188EBA1
:10122000C82E8BE0D82EE12CF12C0E947104681995
:1012300079098A099B096415750586059705C0F427
:101240000E94C819A70196010E947A1BDC01CB01FC
:101250008854944FAF4FBF4F40E050E0BA010E9416
:10126000BB0162E070E080E090E00E943E04DDCFD0
:1012700088E0FF90EF90DF90CF90BF90AF909F906D
:101280008F907F906F905F904F900C947D040F93A0
:101290001F9360E082E10E941E0183E090E00197CD
:1012A000F1F761E082E10E941E0183E290E0019784
:1012B000F1F760E082E10E941E01EEE9F1E0649145
:1012C000EAE8F1E0E491F0E0EE0FFF1FE359FE4F92
:1012D0008591949108EA11E620E030E0462F0E94C3
:1012E0003D0B6115710581059105E9F06F5F7F4F39
:1012F0008F4F9F4F9F70611571058105910599F082
:101300000E94291A28E23EE74CE05DE30E948A1A17
:1013100020E030E040E05FE30E948A1A0E94281C2F
:101320001F910F91089564EF71E080E090E0F8CF95
:101330001F920F920FB60F9211242F933F938F930A
:101340009F93AF93BF9380913A0290913B02A091FB
:101350003C02B0913D023091390223E0230F2D373A
:1013600058F50196A11DB11D2093390280933A02D0
:1013700090933B02A0933C02B0933D0280913E02C9
:1013800090913F02A0914002B09141020196A11DAF
:10139000B11D80933E0290933F02A0934002B09310
:1013A0004102BF91AF919F918F913F912F910F90EB
:1013B0000FBE0F901F90189526E8230F0296A11DCF
:1013C000B11DD2CF1F920F920FB60F9211242F93FF
:1013D0003F934F935F936F937F938F939F93AF93BD
:1013E000BF93EF93FF938091470290914802A091A1
:1013F0004902B0914A02892B8A2B8B2BD1F1909113
:101400004202E0914302F091440280818927808367
:101410008091470290914802A0914902B0914A02FE
:10142000181619061A061B069CF480914702909123
:101430004802A0914902B0914A020197A109B1095D
:101440008093470290934802A0934902B0934A02C6
:10145000FF91EF91BF91AF919F918F917F916F918C
:101460005F914F913F912F910F900FBE0F901F9062
:101470001895809118010E947D04EACF1F920F9267
:101480000FB60F9211242F933F934F935F936F9357
:101490007F938F939F93AF93BF93EF93FF9389E5D0
:1014A00092E00E942705FF91EF91BF91AF919F912C
:1014B0008F917F916F915F914F913F912F910F90FD
:1014C0000FBE0F901F9018951F920F920FB60F929C
:1014D00011242F938F939F93EF93FF93E0916902D1
:1014E000F0916A028081E0916F02F091700282FDBA
:1014F0001BC09081809172028F5F8F732091730265
:10150000821741F0E0917202F0E0E75AFD4F958FAB
:1015100080937202FF91EF919F918F912F910F9085
:101520000FBE0F901F9018958081F4CF1F920F92DD
:101530000FB60F9211242F933F934F935F936F93A6
:101540007F938F939F93AF93BF93CF93EF93FF932B
:10155000E0910B04F0910C04C08180910D04C8232C
:1015600080910E0490910F0420910E0430910F048D
:101570002F3F3F4F29F0019690930F0480930E0464
:1015800020910904211115C0C1114BC0813A910568
:1015900058F010921204909315048093140481E083
:1015A000809313048093090410920F0410920E0488
:1015B00038C0213099F4CC23A1F1E09113042E0F0F
:1015C00020931304F0E0E75FFB4F8F3F910519F084
:1015D00010F08FEF90E0858782E0E4CF223009F0B1
:1015E00047C0E0911304813A910510F4E73CA0F163
:1015F000E83C18F081E080931204809114049091EB
:10160000150490930B0580930A05E093090583E088
:1016100080930904E0911004F0911104309709F0CF
:10162000099580911805882329F081E0C11180E097
:101630000E947A07FF91EF91CF91BF91AF919F9157
:101640008F917F916F915F914F913F912F910F906B
:101650000FBE0F901F901895C111E3CF91E09E0F20
:1016600090931304F0E0E75FFB4F858781E09ACF0A
:101670002330B9F6C111D5CF97CFCF92DF92EF9239
:10168000FF920F931F93E82FF92F05C00150110906
:101690002109310961F1908196239417B9F305C0AE
:1016A000015011092109310911F1908196239413F8
:1016B000F7CFC12CD12CE12CF12C0AC08FEFC81A26
:1016C000D80AE80AF80A0C151D052E053F0579F021
:1016D00080818623841791F36C2D7D2D8E2D9F2D77
:1016E0001F910F91FF90EF90DF90CF90089560E0F1
:1016F00070E080E090E01F910F91FF90EF90DF90FD
:10170000CF900895DF92EF92FF920F931F93CF93A4
:10171000DF93EC01D62E8A017901F0E090E080E0C1
:1017200030E0E0E0DE01AE0FB11D2C91FF5F22231F
:1017300039F0320F2E9F800D911D11241C92F0E084
:101740003323B9F0DE1611F0F23098F0232F2695EE
:10175000820F911D632F70E00E94631CDE01A60FB3
:10176000B11D3C93D8013C9131110FC06C9390E0B6
:1017700080E0EF5FDE16B0F681E0DF91CF911F9140
:101780000F91FF90EF90DF900895D7013C913323A4
:1017900069F380E0F2CFE9E5F2E01382128288EE8D
:1017A00093E0A0E0B0E084839583A683B78385E2CD
:1017B00091E09183808385EC90E09587848784EC29
:1017C00090E09787868780EC90E0918B808B81EC0E
:1017D00090E0938B828B82EC90E0958B848B86ECEF
:1017E00090E0978B868B118E128E138E148E109232
:1017F0001705E9E0F4E0118281E0848389E290E05A
:1018000093838283509810920404E6EFF2E08BE019
:10181000818388E0848383E290E0938382832398AA
:101820000895CF93DF93CDB7DEB7E7970FB6F8945F
:10183000DEBF0FBECDBF789484B5826084BD84B511
:10184000816084BD85B5826085BD85B5816085BDBB
:1018500080916E00816080936E0010928100809173
:1018600081008260809381008091810081608093FB
:101870008100809180008160809380008091B10020
:1018800084608093B1008091B00081608093B0004B
:1018900080917A00846080937A0080917A008260DF
:1018A00080937A0080917A00816080937A008091A1
:1018B0007A00806880937A001092C10061E086E02F
:1018C0000E948A0161E087E00E948A0161E084E071
:1018D0000E948A0161E085E00E948A01E09169022C
:1018E000F0916A0282E08083E0916502F0916602E5
:1018F0001082E0916702F091680280E1808310928B
:101900007102E0916D02F0916E0286E08083E091B9
:101910006B02F0916C02808180618083E0916B02A8
:10192000F0916C02808188608083E0916B02F0917D
:101930006C02808180688083E0916B02F0916C0280
:1019400080818F7D808386E391E00E945D088BE03B
:1019500080930A0488E080930D0483E290E09093E2
:101960000C0480930B04239881E080931805109257
:1019700017050E94FB008EE090E090933202809366
:10198000310260E00E948A0161E082E10E948A01E6
:1019900060E083E10E948A0180910904833009F0AC
:1019A00073C280911204882309F465C080E4809397
:1019B00008051092DF041092DE041092E3041092E6
:1019C000E2041092E1041092E0041092E6041092F6
:1019D000E7041092E8041092E904109207051092AF
:1019E00006058091080586FDC5C110910905812F66
:1019F0008F7B843009F0C1C08091170460E073E2EE
:101A000090E00E946A06882309F444C1809118047A
:101A100090E044E150E0143009F048C060EC78E018
:101A20000E944906882309F435C18091190460E3B6
:101A300072E090E00E946A06882309F42BC181E0DD
:101A40008093080580910E0590910F059093E10415
:101A50008093E00480911005909111059093E30428
:101A60008093E20480910C0590910D059093DF0422
:101A70008093DE047FC1109208058091DE0490916E
:101A8000DF0490930D0580930C058091E204909102
:101A9000E30490931105809310058091E0049091E8
:101AA000E10490930F0580930E0583CF60E871E108
:101AB0000E944906882309F4EDC043E060E280E318
:101AC00091E00E941A082091E6049091E704609149
:101AD000E8048091E904462F50E05093E3044093DA
:101AE000E204422F592F4E3E37E8530719F523E001
:101AF00030E03093DF042093DE0490E09093E10423
:101B00008093E00480E290E09093070580930605BF
:101B10008AE795E00E9411018091080580FF2EC19F
:101B200029E030E03093DF042093DE04806280936C
:101B3000080520C19095291310C030E03093E104CE
:101B40002093E004982F909569130CC088E090E0F2
:101B50009093DF048093DE04D5CF5093E10440934B
:101B6000E004F0CF2AE030E03093DF042093DE047D
:101B70006093E2048093E304C5CF143609F08AC071
:101B80008CE191E00E94CC06882309F483C043E0F5
:101B900060E18CE191E00E941A08D090E6040D2DDE
:101BA0001091E704BBE0EB2EF12C023040E2140769
:101BB000F9F0AEE0EA2EF12C0A3A5AE51507C1F029
:101BC000FDE0EF2EF12C043582E3180789F0EFE0F9
:101BD000EE2EF12C033091E0190751F080E1E82E50
:101BE000F12C0332ABEC1A0719F07CE0E72EF12C54
:101BF000D1268D2D82958F70D82643E260E28CE14C
:101C000091E00E941A088091E6049091E704A09167
:101C1000E804B091E9049C0164E0369527956A9543
:101C2000E1F73093E1042093E0042A2F30E0309371
:101C3000E3042093E204282F2A2729273D2D3F7013
:101C4000482F4F70341719F034E030930805ECE05A
:101C5000EE16F10449F4309108053061309308051F
:101C60001093E5040093E4042B1729F080910805F4
:101C700084608093080580E390E09093070580934B
:101C80000605F092DF04E092DE048AE397E00E940A
:101C9000110170C080910905803209F0D2C141E084
:101CA0006FE088E091E00E941A088091350464E0BA
:101CB00071E090E00E946A06882309F4C2C1809115
:101CC000E6049091E704A091E804B091E9049C0136
:101CD0002F7133273093E1042093E00455E0B6954B
:101CE000A795979587955A95D1F7392F3370AC0101
:101CF00055275093E3044093E20440910A05509124
:101D00000B054536544008F099C120910805226022
:101D100020930805209116052F5F2093160520FFBC
:101D200019C0213019F021E02093080530911005E9
:101D300040911105282F2095231729F0209108059F
:101D40002460209308053093E2044093E304392F84
:101D50003095337087E190E0311102C084E090E06B
:101D60009093DF048093DE048FE090E0909307056A
:101D7000809306058091080580FD80C08091DE0477
:101D80009091DF04892B09F479C0C090E604D090CB
:101D9000E704E090E804F090E904C114D104E10400
:101DA000F10409F46BC08CE391E00E94500819A281
:101DB00097018601CE018196B901A8014F70552780
:101DC00066277727A4E03695279517950795AA9556
:101DD000D1F74A300CF0EFC6405DFC014293CF01D1
:101DE000011511052105310539F7EF2B11F00E947E
:101DF000500883E391E00E94500884E090E0F7E00F
:101E0000CF16DF06F4E0EF06FBEFFF0699F185E061
:101E100090E027E0C216D20625E0E2062AEFF2069D
:101E200049F186E090E037E0C316D30636E0E306DA
:101E300039EFF306F9F087E090E047E0C416D406E6
:101E400048E0E40647EFF406A9F088E090E057E0A8
:101E5000C516D50659E0E50656EFF50659F087E0B8
:101E6000C816D8068AE0E80685EFF80609F0A5C688
:101E70008EE090E0909338028093370280910904BD
:101E8000833011F410920904809131028E3008F0F1
:101E90008E508770806480937C0080917A0080648B
:101EA00080937A0080917A0086FDFCCF6091780063
:101EB00070917900072E000C880B990B0E942B1A49
:101EC0006B017C0124EA30E74DE75FE36091140188
:101ED0007091150180911601909117010E948A1A44
:101EE0004B015C012AE037ED43E25CE3C701B60138
:101EF0000E948A1A9B01AC01C501B4010E94BC1B5F
:101F00009B01AC01209314013093150140931601FD
:101F100050931701C701B6010E94BB1B4B015C0126
:101F2000E894B7F823E333E343E75FE360912D02DE
:101F300070912E0280912F02909130020E948A1A95
:101F40006B017C012DEC3CEC4CE45DE3C501B4017C
:101F50000E948A1A9B01AC01C701B6010E94BC1BFA
:101F60002B013C0140922D0250922E0260922F02D2
:101F7000709230020E9471046B017C0120E030E01D
:101F800040EA52E4C301B2010E94BC1B9B01AC01B8
:101F9000C501B4010E945E1C181664F580912902E7
:101FA00090912A02A0912B02B0912C02A7019601D8
:101FB000281B390B4A0B5B0BDA01C90189379105E4
:101FC000A105B105B8F080912802C0922902D092F3
:101FD0002A02E0922B02F0922C02811126C681E0A7
:101FE00080932802C0922402D0922502E092260219
:101FF000F092270280912802882309F438C6809144
:10200000240290912502A0912602B0912702C81ABD
:10201000D90AEA0AFB0A41E9C41641E0D406E10400
:10202000F10408F424C61092280284E090E0909312
:102030003802809337028BE591E017C6109216059F
:1020400089CE88E690E00E94CC06882309F446C039
:10205000809109058A3129F08A3219F0803209F01D
:102060003DC090E0BC016150710977FDBC017595E0
:10207000679543E088E690E00E941A088091E604A4
:102080009091E704A091E804B091E9049C012F77B6
:1020900033273093E3042093E20447E0B695A795F5
:1020A000979587954A95D1F79093E1048093E00442
:1020B0002091090530E0C901019797FDC901959567
:1020C0008795909307058093060588E190E09093AB
:1020D000DF048093DE0480EE91E0D9CD81E080932F
:1020E000580289E793E0909356028093550210922C
:1020F00057020E940907813009F062C0C12CD12C1F
:10210000760100E090910905809158028917E0F46A
:102110000E940907182F0E94090711110BC0813076
:1021200009F04EC0CC0CDD1CEE1CFF1C6894C0F8FE
:102130000F5FE8CF113009F043C0811141C0CC0CD2
:10214000DD1CEE1CFF1CF4CF10E01093070500937C
:102150000605C092E604D092E704E092E804F0920B
:10216000E9048C2D8F7390E09093E3048093E20454
:102170009601B6E036952795BA95E1F72F7133278A
:102180003093E1042093E004960122273071232B41
:1021900031F4805C9F4F9093E3048093E20480E8E5
:1021A00080930805D3FE03C088E88093080581E189
:1021B00090E09093DF048093DE048FEC99E067CD8C
:1021C0008091170468E67AE090E00E946A0688230E
:1021D00009F448C08091180444E150E068E773E0D6
:1021E00090E00E9449068823E9F183E08093580239
:1021F0008CEB91E090935602809355021092570217
:102200000E940907813071F50E94090781112AC0D7
:10221000C12CD12C760110E09091090580915802D3
:10222000891708F076C00E940907B82E1330B1F064
:102230000E940907082F133021F40E940907081390
:1022400011C021E0B2125BC001110CC0CC0CDD1C2E
:10225000EE1CFF1C6894C0F81F5FDECF0E940907C8
:10226000B81631F3F09009053CE3F31619F044E099
:10227000F41215C00091170410E068E273E2C8017F
:102280000E946A06811192C06CE175E2C8010E9449
:102290006A0668EB7BE007E010E081118BC082E208
:1022A000F81609F4F5C094E2F91224C180E990E02F
:1022B0000E94CC06882309F41DC143E060E180E957
:1022C00090E00E941A088091E6049091E704A091A2
:1022D000E804B091E904492F5A2F6B2F77275093C8
:1022E000E3044093E20499279093E1048093E0048F
:1022F00080E190E09093070580930605F8C0B11047
:10230000B1CF013009F0AECFCC0CDD1CEE1CFF1CB0
:10231000A3CF812F90E09093070580930605C0928C
:10232000E604D092E704E092E804F092E9042C2D50
:1023300030E08D2D90E0133200F540E84093080521
:102340003093E3042093E2049093E1048093E0044B
:10235000E0FE03C088E880930805153128F08091DD
:10236000080580618093080582E190E09093DF0486
:102370008093DE0483E79AE08ACC40E94093080525
:102380003093E3042093E2049093E1048093E0040B
:10239000C7019F739093E5048093E404F7FE03C0A4
:1023A00088E98093080583E190E0E0CF68E670E17A
:1023B00006E010E08091180490E054E0F51215C09A
:1023C00044E150E060ED77E00E944906882309F47B
:1023D00091C08091190464EF71E090E00E946A0658
:1023E000882309F487C081E82BCB44E150E00E94A8
:1023F0004906882309F453CF43E06CE18CE790E071
:102400000E941A0880E8809308054091E6045091E4
:10241000E7046091E8047091E904DB01CA0124E05B
:10242000B695A795979587952A95D1F79C01909396
:10243000E3048093E204DB01CA01E4E1B695A795C9
:1024400097958795EA95D1F79093E1048093E004FE
:1024500084E090E0E0E0F22FFF70EF0FF4E03695BB
:102460002795FA95E1F70197B1F74E274F70552759
:1024700066277727452B462B472B19F084E8809356
:1024800008051093DF040093DE048CE190E06ECC2D
:1024900080910A0590910B058C3E9C4508F06ACC12
:1024A000809117046EE072E090E00E946A06882333
:1024B00009F460CC809137046EE072E090E00E94F5
:1024C0006A06882309F456CC81E080930805809140
:1024D0000E0590910F059093E1048093E0048091A4
:1024E0001005909111059093E3048093E20485E038
:1024F00090E0BCCA80910905982F9F7D943419F013
:10250000863009F07DC084EA90E00E94CC068823E2
:1025100009F476C0809109058630B1F481E2809398
:10252000080580910E0590910F059093E10480932A
:10253000E00480911005909111059093E30480933D
:10254000E20485E190E092CA43E060E284EA90E030
:102550000E941A089091E6048091E7041091E80423
:102560002091E9049093E0048093E10430910905FF
:10257000022F0095343639F543E460E184EA90E0B7
:102580000E941A088091E6049091E704101731F038
:102590009095981719F094E090930805982F812F43
:1025A0009093E3048093E20480E390E09093070526
:1025B0008093060586E190E09093DF048093DE042B
:1025C0008EEB9AE064CB101306C0412F50E050937D
:1025D000E3044093E20489130EC090E09093E10479
:1025E0008093E00480E290E09093070580930605D5
:1025F00084E190E0E1CF1093E2042093E304F2CF72
:1026000080910905843269F588EB90E00E94CC0640
:10261000882339F143E060E188EB90E00E941A08DA
:102620001091E6048091E7048095181719F084E072
:10263000809308058DE692E00E941101812F90E0C1
:102640009093E3048093E2041092E1041092E0047A
:1026500080E190E090930705809306058EE190E07D
:1026600005CA809109058434C1F48CEC90E00E9485
:10267000CC06882391F043E060E28CEC90E00E946D
:102680001A0880E88093080580E290E0909307059F
:10269000809306058DE190E0E9C9809117048E3E94
:1026A00008F06AC08091180444E150E062E074E0F0
:1026B00090E00E944906882309F45EC080910905D4
:1026C000843209F059C000910F01802F8071409130
:1026D00007015091080104FD04C040910901509187
:1026E0000A01001F0027001F21E0811101C020E026
:1026F00063E080E10E946E0680E880930805909177
:10270000E6048091E704292F382F482F42954F7017
:102710008F7054E0369527955A95E1F72F70392F31
:102720003F709FE0942798279227391719F094E873
:10273000909308059091080560910A0570910B052A
:10274000683F714118F49260909308054093E0044B
:102750001092E104E0E18E9FC0011124822B90933E
:10276000E3048093E20480E190E090930705809376
:1027700006058BE190E07AC980EE90E00E94CC06DD
:10278000882371F180910905843251F543E060E1BD
:1027900080EE90E00E941A088091390468E072E0AF
:1027A00090E00E946A068823D9F08091E604909117
:1027B000E70498279F3FA1F490E09093E30480936F
:1027C000E20480E190E090930705809306058AE19A
:1027D00090E09093DF048093DE0488ED94E057CA84
:1027E00080910905803709F04FC041E068E084EF2F
:1027F00090E00E941A088091E6049091E704A0916D
:10280000E804B091E904892B8A2B8B2BE9F541E18F
:102810006FE184EF90E00E941A08C090E604D09027
:10282000E704E090E804F090E9044FE461E184EF0C
:1028300090E00E941A089091E7048091E8048927AB
:10284000982789279093E3048093E204C092E604DA
:10285000D092E704E092E804F092E904D092E10417
:10286000C092E004F092E504E092E4048CE190E090
:102870009093DF048093DE0488E390E09093070553
:102880008093060580E853C980910905823108F4D8
:102890003DC18E010F5F1F4F92E3D8011D929A95A3
:1028A000E9F743E060E08250990B242F30E02817CD
:1028B000390794F4275F3B4FF9012585223308F04F
:1028C00025C1F801E20FF11D30813F5F30836217AF
:1028D00008F4622F4E5FE9CF1EAA1DAA9E012B5C51
:1028E0003F4FAE014A5C5F4FC8010E94820B8823B4
:1028F00009F40CC182E3D8011D928A95E9F7209171
:1029000009052250330B44E060E0842F90E08217E9
:10291000930794F4875F9B4FFC018585823308F011
:10292000F5C0F801E80FF11D90819F5F9083681753
:1029300008F4682F4E5FE9CF1CAA1BAA9E012D5CEC
:102940003F4FAE014C5C5F4FC8010E94820B882351
:1029500009F4DCC08091090586951FEF180FCBA8FC
:10296000CC2011F01EEF180F812F90E090930705F7
:10297000809306051C01F1E02F1A310837FE04C0D0
:102980001C012EE1220E311C95E0359427949A9576
:10299000E1F72FAAEDA8E11003C0CC2009F4B6C0DE
:1029A0004CA882E3489E200111248EA8889E4001F5
:1029B0001124E89E70011124C89E6001112403E0D7
:1029C000A02EB12C66246394712C812F113208F053
:1029D00080E29BA9992309F47BC042E050E0509328
:1029E000DF044093DE0400E020E0A6016A2D0E948F
:1029F0006E068091E6049091E704A091E804B091FE
:102A0000E90454E0B59EF0011124EA50FB4F8083A5
:102A10009183A283B383E0E4AE0E1052B394FFA976
:102A2000FB1598F620910A0530910B05203D3740A3
:102A3000E8F4F101EE0FFF1FEE0FFF1FEA50FB4F0E
:102A4000008111812281338140911205509113053B
:102A500060911405709115050417150726073707AF
:102A600029F4209108052160209308058093120520
:102A700090931305A0931405B093150520911704A6
:102A800092E3299F900111243093EB042093EA04F0
:102A900080911804899FC00111249093ED048093C4
:102AA000EC049092F3048092F2045092F504409268
:102AB000F404E114F10409F1C114D10489F4F09291
:102AC000EF04E092EE045092F1044092F00452C9F7
:102AD0007092DF046092DE0400E021E0A70186CF5F
:102AE000D092F104C092F0049092EF048092EE0430
:102AF000F092F304E092F2043DC99092EF048092C8
:102B0000EE04D092F104C092F00434C9E0910905BA
:102B1000E63008F42FC911E025EC3DE94CE151E81D
:102B2000F0E00AE0612F70E0CB0102968E179F075C
:102B30007CF5875F9B4FDC011D968C91675F7B4F17
:102B4000DB011D966C91809F7001112498E0699FB4
:102B5000D0011124EA16FB0678F0609FB001112421
:102B6000A8E08A9FC0011124B2E0FB2E6817790704
:102B700020F0FF24F39401C0F12C63E971E080E0C0
:102B800091E00E94481B9B01AC012F251F5FCACF1B
:102B90002093E6043093E7044093E8045093E9045B
:102BA00080E290E090930705809306051092DF0481
:102BB0001092DE04DFC8495C10C997E0C916D90637
:102BC0009DE0E90692EFF90619F483E190E052C91D
:102BD00084E190E0A7E0CA16DA06AEE0EA06A1EFCB
:102BE000FA0609F447C98AE090E0B7E0CB16DB06A5
:102BF000B0E6EB06BFE9FB0609F43CC98BE090E0C8
:102C0000E7E0CE16DE06E1E6EE06EEE9FE0609F4A2
:102C100031C9F7E0CF16DF06F8E6EF06F7E9FF0661
:102C200009F02CC980E190E025C98091240290919F
:102C30002502A0912602B0912702A7019601281B28
:102C4000390B4A0B5B0BDA01C90181399140A105AF
:102C5000B10508F0C7C91092280285E090E0909372
:102C600038028093370286E491E00E945D088091EB
:102C7000370290913802892B09F477C00E947104C1
:102C800000913302109134022091350230913602C6
:102C9000601B710B820B930B6739710581059105E0
:102CA00008F463C00E94710460933302709334028D
:102CB0008093350290933602E0913702F09138020A
:102CC0003497E131F10508F04CC0E759F94E0C9406
:102CD0008B1C7A16C516D616E716F4163617041985
:102CE0001919B116B1168E17B116B116B116B11663
:102CF0005818D11880E791E00E945D08109270008A
:102D000010E000E0F0EBEF2EF4E0FF2E40E050E0AA
:102D1000BA01C7010E94BB0166E070E080E090E06C
:102D20000E943E0452E0E51AF10886E5E81682E0CA
:102D3000F80661F788E00E947D040330110531F048
:102D40006CEB72E080E090E00E943E040F5F1F4F4A
:102D500004301105B9F60E94FB008DE791E00E9456
:102D60005D08109238021092370280E090E0892BC3
:102D700011F40C94CC0C0E941305882311F40C94CC
:102D8000CC0C0E9400000C94CC0C88E891E00E94CE
:102D90005D081092700068E572E080E090E00E94AB
:102DA000FD080E94FB0085E991E0D9CF80EA91E01F
:102DB0000E945D08109270006CED75E080E090E07C
:102DC0000E946B080E94FB008DEA91E0C8CF88EB5F
:102DD00091E00E945D081092700080EF90E00E94E8
:102DE000B6050E94FB00BDCF80EC91E00E945D081B
:102DF000109270005AE0E52EF12C68E0862E912C9E
:102E000070EBC72E74E0D72EE7E32E2E312C0E94F4
:102E10006C195C010E946C19B4010E94771C8C0132
:102E2000015F1F4F2801012E000C66087708C501BD
:102E3000B6010E94771CB301A2018C5C974F0E94DF
:102E4000BB01C301B2010E943E0488E00E947D04E0
:102E5000B101601B710B072E000C880B990B0E94AF
:102E60003E0491E0E91AF10891F6BBCF8AEC91E0BB
:102E70000E945D08109270000E9471042B013C01B9
:102E80004AE0C42ED12C0FE010E00E9471046419B6
:102E9000750986099709603273408105910508F02C
:102EA000A0CF0E946C195C010E946C197C01C501C5
:102EB000B6010E94771C48E250E060E070E08A5B57
:102EC0009F4F0E94BB0168E270E080E090E00E94AA
:102ED0003E0488E00E947D046AE070E080E090E0BB
:102EE0000E943E04C701B8010E94771C42E350E0F3
:102EF00060E070E0865A9F4F0E94BB0162E370E081
:102F000080E090E00E943E0488E00E947D046FE033
:102F100070E080E090E00E943E04B7CF82ED91E047
:102F20000E945D08109270000E9471046B017C0188
:102F30000E9471046C197D098E099F09603D7740DC
:102F40008105910508F0ACC008E512E00E94C8199F
:102F500022E030E040E050E00E947A1BAA24A394D3
:102F6000B12C672B682B692B19F4AA24AA94BA2CCC
:102F70000E94C81929E130E040E050E00E947A1B2D
:102F8000AB01BC01465F5F4F6F4F7F4FA49EC001F6
:102F9000A59E900DB49E900D1124800F911F843634
:102FA000910514F484E690E04FE050E060E070E0BA
:102FB0000E94BB016CE070E080E090E00E943E0463
:102FC0000E9471046C197D098E099F09613D77404B
:102FD0008105910538F40C5E1F4F0435F6E01F079C
:102FE00009F0B4CF0E9471046C197D098E099F0904
:102FF000613D77408105910508F052C000E416E07C
:103000000E94C81922E030E040E050E00E947A1BA4
:10301000672B682B692B09F43FC0AA24A394B12C19
:103020000E94C81929E130E040E050E00E947A1B7C
:10303000AB01BC01465F5F4F6F4F7F4FA49EC00145
:10304000A59E900DB49E900D1124800F911F843683
:10305000910514F484E690E042E150E060E070E015
:103060000E94BB016EE070E080E090E00E943E04B0
:103070000E9471046C197D098E099F09613D77409A
:103080008105910508F054CF0F501109033542E036
:10309000140709F0B5CF4CCFAA24AA94BA2CC0CFFC
:1030A00088E00E947D040E94FB0084EE91E057CEF0
:1030B00084EF91E00E945D08109270000E947104FC
:1030C0006B017C010E9471046C197D098E099F09B6
:1030D000603D774081059105D8F50E9447096F3121
:1030E000710581059105FCF40E94390660E971E0E3
:1030F00080E090E00E94FD0880EA90E00E942606B1
:103100006CED70E080E090E00E943E048AEA90E07E
:103110000E9413066CED70E080E090E00E943E0497
:103120000E9439065ECE6E327105810591056CF400
:103130000E946A0188E790E00E94B60568E270E0AC
:1031400080E090E00E943E04BDCF0E946A01F6CF6D
:103150000E94390684EB90E00E94130664EB70E055
:1031600080E090E00E943E040E947A0164EB70E0EF
:1031700080E090E00E943E040E946A016CED70E0E5
:1031800080E090E00E943E040E94390680EF90E0CB
:103190000E94B6056CEB72E080E090E00E946B0844
:1031A00020CE85E092E00E945D081092700088E7D2
:1031B00090E00E9426066CED70E080E090E00E94B6
:1031C0003E040E9439060E9471046B017C010E943A
:1031D00071046C197D098E099F096C32714081055B
:1031E000910508F0B5CF0E9447096331710581054B
:1031F00091050CF479CF0E946A0168E270E080E0EA
:1032000090E00E943E04E3CF86E192E00E945D08D8
:1032100060E086E00E941E0161E087E00E941E01DE
:1032200060E084E00E941E0161E085E00E941E01D2
:1032300098CD86E192E00E945D080E94390691CD0A
:103240008F929F92AF92BF92CF92DF92EF92FF92B6
:10325000CF93DF93EC01688179818A819B8161152D
:1032600071058105910521F464E279ED8BE597E024
:103270002DE133EF41E050E00E947A1B49015A01F1
:103280009B01AC01A7EAB1E40E94991B6B017C0190
:10329000ACEEB4EFA50194010E94A71BDC01CB01A9
:1032A0008C0D9D1DAE1DBF1DB7FF03C00197A10969
:1032B000B04888839983AA83BB839F77DF91CF919E
:1032C000FF90EF90DF90CF90BF90AF909F908F9046
:1032D00008950E942019089589E191E00E94201923
:1032E0000895B0E0A0E08093190190931A01A09393
:1032F0001B01B0931C0108958F929F92AF92BF92D1
:10330000CF92DF92EF92FF92CF93DF93EC0168812F
:1033100079818A819B81611571058105910521F46F
:1033200064E279ED8BE597E02DE133EF41E050E089
:103330000E947A1B49015A019B01AC01A7EAB1E442
:103340000E94991B6B017C01ACEEB4EFA5019401C6
:103350000E94A71BC60ED71EE81EF91EF7FE06C068
:1033600081E0C81AD108E10880E8F80AC882D98249
:10337000EA82FB82C701B6019F77DF91CF91FF9070
:10338000EF90DF90CF90BF90AF909F908F90089577
:103390008F929F92AF92BF92CF92DF92EF92FF9265
:1033A00060911D0170911E0180911F01909120017B
:1033B000611571058105910521F464E279ED8BE5D4
:1033C00097E02DE133EF41E050E00E947A1B490184
:1033D0005A019B01AC01A7EAB1E40E94991B6B0161
:1033E0007C01ACEEB4EFA50194010E94A71BC60EB0
:1033F000D71EE81EF91EF7FE06C081E0C81AD108E4
:10340000E10880E8F80AC0921D01D0921E01E09206
:103410001F01F0922001C701B6019F77FF90EF9046
:10342000DF90CF90BF90AF909F908F900895609362
:103430001D0170931E0180931F0190932001089538
:10344000FB01DC0102C005900D9241505040D8F7BD
:103450000895E89409C097FB3EF490958095709587
:1034600061957F4F8F4F9F4F9923A9F0F92F96E9D0
:10347000BB279395F695879577956795B795F11145
:10348000F8CFFAF4BB0F11F460FF1BC06F5F7F4FE2
:103490008F4F9F4F16C0882311F096E911C07723F4
:1034A00021F09EE8872F762F05C0662371F096E8FD
:1034B000862F70E060E02AF09A95660F771F881FCC
:1034C000DAF7880F9695879597F90895990F000870
:1034D000550FAA0BE0E8FEEF16161706E807F907E6
:1034E000C0F012161306E407F50798F0621B730B81
:1034F000840B950B39F40A2661F0232B242B252B02
:1035000021F408950A2609F4A140A6958FEF811DA4
:10351000811D08950E949D1A0C940E1B0E94001B91
:1035200038F00E94071B20F0952311F00C94F71A35
:103530000C94FD1A11240C94421B0E941F1B70F363
:10354000959FC1F3950F50E0551F629FF001729F48
:10355000BB27F00DB11D639FAA27F00DB11DAA1F57
:10356000649F6627B00DA11D661F829F2227B00DA4
:10357000A11D621F739FB00DA11D621F839FA00D2F
:10358000611D221F749F3327A00D611D231F849F7F
:10359000600D211D822F762F6A2F11249F575040D6
:1035A0009AF0F1F088234AF0EE0FFF1FBB1F661F51
:1035B000771F881F91505040A9F79E3F510580F01A
:1035C0000C94F71A0C94421B5F3FE4F3983ED4F33B
:1035D000869577956795B795F795E7959F5FC1F7BE
:1035E000FE2B880F911D9695879597F9089597F969
:1035F0009F6780E870E060E008959FEF80EC089599
:1036000000240A94161617061806090608950024C1
:103610000A9412161306140605060895092E03943B
:10362000000C11F4882352F0BB0F40F4BF2B11F4AF
:1036300060FF04C06F5F7F4F8F4F9F4F089557FD0E
:103640009058440F551F59F05F3F71F04795880F10
:1036500097FB991F61F09F3F79F0879508951216A7
:1036600013061406551FF2CF4695F1DF08C0161653
:1036700017061806991FF1CF869571056105089404
:103680000895E894BB2766277727CB0197F908951B
:10369000DB018F939F930E94991BBF91AF91A29FD3
:1036A000800D911DA39F900DB29F900D1124089540
:1036B000A1E21A2EAA1BBB1BFD010DC0AA1FBB1F36
:1036C000EE1FFF1FA217B307E407F50720F0A21BA8
:1036D000B30BE40BF50B661F771F881F991F1A9415
:1036E00069F760957095809590959B01AC01BD013F
:1036F000CF010895052E97FB1EF400940E94911BA4
:1037000057FD07D00E94581B07FC03D04EF40C94C1
:10371000911B50954095309521953F4F4F4F5F4FEE
:10372000089590958095709561957F4F8F4F9F4F2D
:1037300008950E94AC1BA59F900DB49F900DA49F6F
:10374000800D911D11240895B7FF0C94991B0E94C0
:10375000991B821B930B0895A29FB001B39FC001D8
:10376000A39F700D811D1124911DB29F700D811DAD
:103770001124911D08955058BB27AA270E94D31BDE
:103780000C940E1B0E94001B38F00E94071B20F0B7
:1037900039F49F3F19F426F40C94FD1A0EF4E095C9
:1037A000E7FB0C94F71AE92F0E941F1B58F3BA1776
:1037B000620773078407950720F079F4A6F50C9447
:1037C000411B0EF4E0950B2EBA2FA02D0B01B90171
:1037D00090010C01CA01A0011124FF27591B99F087
:1037E000593F50F4503E68F11A16F040A22F232F93
:1037F000342F4427585FF3CF469537952795A795E3
:10380000F0405395C9F77EF41F16BA0B620B730B89
:10381000840BBAF09150A1F0FF0FBB1F661F771FFA
:10382000881FC2F70EC0BA0F621F731F841F48F4AF
:10383000879577956795B795F7959E3F08F0B0CF38
:103840009395880F08F09927EE0F9795879508951F
:103850000E942F1C6894B1110C94421B08950E9481
:10386000271B88F09F5798F0B92F9927B751B0F0D0
:10387000E1F0660F771F881F991F1AF0BA95C9F7F4
:1038800014C0B13091F00E94411BB1E008950C9436
:10389000411B672F782F8827B85F39F0B93FCCF3E9
:1038A000869577956795B395D9F73EF49095809571
:1038B000709561957F4F8F4F9F4F08950E94661AB4
:1038C00008F48FEF0895AA1BBB1B51E107C0AA1F84
:1038D000BB1FA617B70710F0A61BB70B881F991FB1
:1038E0005A95A9F780959095BC01CD01089597FB55
:1038F000072E16F4009407D077FD09D00E94631CB0
:1039000007FC05D03EF4909581959F4F08957095E2
:1039100061957F4F0895EE0FFF1F0590F491E02D04
:063920000994F894FFCFAA
:103926001B00269E0002049E0029029E000701003D
:103936006E00000000000044FF01000000010000CE
:1039460000000000004905A904D60496050705E510
:1039560004F9040D0A00537461727400495220720E
:1039660061773D307800436C61703A20444F554290
:103976004C45202D3E206869737300436C61703A94
:103986002053494E474C45202D3E206D656F7700EC
:103996006D656F772829207374617274006D656F89
:1039A60077282920656E6400686973732829207357
:1039B600746172740068697373282920656E6400E7
:1039C6007075727228292073746172740070757232
:1039D60072282920656E6400636869727028290060
:1039E6006368617474657228290067726F776C2842
:1039F600290063617465727761756C282920737478
:103A06006172740063617465727761756C28292030
:103A1600656E640072756E416E64506C61795361B7
:103A26006665282900686F70416E64506C61795331
:103A36006166652829006D6F766520666F7277610D
:043A46007264210085
:00000001FF
