:020000040000FA
:100000000C94CC000C94F4000C94F4000C94F400C8
:100010000C94F4000C94F4000C94F4000C94FD0780
:100020000C94B1080C94F4000C94F4000C94F400BB
:100030000C94F4000C94F4000C94F4000C94F40070
:100040000C94B3070C94F4000C947F080C9459089A
:100050000C94F4000C94F4000C94F4000C94F40050
:100060000C94F4000C94F40018002860095802B0B5
:1000700004580258025802102D00000006002628DD
:10008000236810F4012C06F4012602806E002D076F
:10009000050026E02070100E022A060E020E020055
:1000A00041000000140026801180113002900630BB
:1000B000023002006E0000001E002638081C040EEC
:1000C000022A060E020E0200320000001D00262247
:1000D0000B220BEE026608EE02EE02806E000000BC
:1000E0001A0026F603BC050802BC050802D401006C
:1000F0004B0000001C00261F015D033E023E021F54
:10010000015D03A06E00000004002604010C03043E
:10011000011C0704010C03006E0000000C00258088
:100120000DC006B0011005B001B001008200000052
:1001300008002600238011300290063002300200B1
:100140006E002D0700000000240027002A00000098
:100150000008000201000003040700000000000086
:10016000000000000000250028002B000204040409
:100170000404040404020202020202030303030350
:10018000030102040810204080010204081020012D
:10019000020408102000A10911241FBECFEFD8E0EF
:1001A000DEBFCDBF12E0A0E0B1E0ECE9F4E302C0B5
:1001B00005900D92A833B107D9F725E0A8E3B2E086
:1001C00001C01D92AD32B207E1F710E0CCECD0E0F7
:1001D00004C02197FE010E94461ACB3CD107C9F703
:1001E0000E94E7090C944C1A0C94000082E0809362
:1001F000B0008093B10084E68093B3008093B40094
:100200001092B20080911D04833011F410921D04ED
:1002100084E080937000089520911E0530911F05A1
:100220002817390728F480911C05816080931C05EC
:10023000089590E0FC01E25BFE4F2491FC01EF5732
:10024000FE4F3491FC01E359FE4FE491EE23C9F0D7
:10025000222339F0233001F1A8F4213019F12230A2
:1002600029F1F0E0EE0FFF1FEE59FE4FA591B4917A
:100270008FB7F894EC91611126C030953E233C93E2
:100280008FBF08952730A9F02830C9F0243049F7EE
:10029000809180008F7D03C0809180008F77809354
:1002A0008000DFCF84B58F7784BDDBCF84B58F7DB1
:1002B000FBCF8091B0008F778093B000D2CF809138
:1002C000B0008F7DF9CF3E2BDACFCF93DF9390E054
:1002D000FC01EF57FE4F249183599E4FFC018491FE
:1002E0008823D1F090E0880F991FFC01EC5BFE4F52
:1002F000A591B491FC01EE59FE4FC591D4916111C5
:100300000EC09FB7F8948C91E22FE0958E238C93CA
:100310002881E223E8839FBFDF91CF9108958FB7B3
:10032000F894EC91E22BEC938FBFF6CF4F925F9253
:100330006F927F928F929F92AF92BF92CF92DF92F5
:10034000EF92FF920F931F93CF93DF9300D000D0D3
:100350001F92CDB7DEB78C012A013B0180911801B5
:100360008830C9F08F3F09F47FC00F900F900F9035
:100370000F900F90DF91CF911F910F91FF90EF9011
:10038000DF90CF90BF90AF909F908F907F906F90B5
:100390005F904F900895ECE6F1E084918D8387FDA6
:1003A000E4CF61E088E00E9465018D81882321F01F
:1003B0009D81923009F05CC14801B12CA12C60E014
:1003C00072E18AE790E0A50198010E946B192983E8
:1003D0003A834B835C8369017A0181E0C81AD108B2
:1003E000E108F1089FEFC916D104E104F10409F016
:1003F0000CF413C160E472E48FE090E0A501980171
:100400000E946B1969017A0181E0C81AD108E108DC
:10041000F1089D81923009F098C08FEFC816D10481
:10042000E104F10409F00CF4DDC160E970ED83E052
:1004300090E0A50198010E946B1969017A0191E091
:10044000C91AD108E108F1088FEFC816D104E104F8
:10045000F10411F00CF0A3C183E09091B100987FFA
:10046000892B8093B100E1C088E080931801ECE60D
:10047000F1E094919D839F3F09F477CF913029F16A
:1004800058F0923009F43FC08D8187FD6ECF61E056
:1004900088E00E9465018CCF14BC15BC84B58260D5
:1004A00084BD85B5816085BDE5E7F1E0E491F0E0CC
:1004B000EE0FFF1FEE59FE4F85919491E9E8F1E0B0
:1004C000E491E0935A021D826CCF1092800010924A
:1004D00081008091810088608093810080918100FB
:1004E000816080938100E5E7F1E0E491F0E0EE0FB8
:1004F000FF1FEE59FE4F85919491E9E8F1E0E491F8
:10050000E09359024ECF1092B0001092B10080914A
:10051000B00082608093B0008091B10081608093D0
:10052000B100E5E7F1E0E491F0E0EE0FFF1FEE59D6
:10053000FE4F859194919093580280935702E9E879
:10054000F1E0E491E09356022CCF9FEFC916D1045D
:10055000E104F10409F00CF489C068E478EE81E06C
:1005600090E0A50198010E946B1969017A0181E070
:10057000C81AD108E108F1089D81992309F428C11E
:100580009FEFC916D104E104F10409F00CF41EC177
:1005900062E17AE780E090E0A50194010E946B1986
:1005A00069017A0181E0C81AD108E108F1089D814A
:1005B000992309F4EBC08FEFC816D104E104F104CC
:1005C00011F008F0BFC086E048CF64E274EF80E02D
:1005D00090E0A50194010E946B1969017A0181E004
:1005E000C81AD108E108F10885E09FEFC916D104C7
:1005F000E104F10409F008F430CF62E17AE780E029
:1006000090E0A50194010E946B1969017A0191E0C3
:10061000C91AD108E108F108CECF81E09D8191117E
:100620001CCF95B5987F892B85BD2FEF3FEFA90192
:10063000411451046104710409F043C09D8191305B
:1006400009F45EC0923009F46DC091118ECEC7BC22
:1006500020936302309364024093650250936602D4
:1006600080916E00826080936E007FCE82E0D6CF54
:10067000B12CA12C60E072E18AE790E0A50198011D
:100680000E946B1969017A0181E0C81AD108E1085A
:10069000F108C114D10491E0E906F10404F591E0F8
:1006A0008D81813011F680918100887F892B809324
:1006B00081002FEF3FEFA90141145104610471043F
:1006C000F9F0D801AA0FBB1FA30192010E948A1959
:1006D00028EE33E040E050E00E944919AFCF68E4D3
:1006E00078EE81E090E0A50198010E946B19690104
:1006F0007A0181E0C81AD108E108F10893E0D0CF6F
:10070000D0928900C092880020935F0230936002EB
:10071000409361025093620280916F0082608093E7
:100720006F0023CEC092B30020935B0230935C0233
:1007300040935D0250935E028091700082608093CE
:10074000700013CEC980DA80EB80FC809AE0F594CB
:10075000E794D794C7949A95D1F791E0C91AD10834
:10076000E108F10887E079CEC980DA80EB80FC806F
:100770008AE0F594E794D794C7948A95D1F791E0ED
:10078000C91AD108E108F10885E04BCF8FEFC816F0
:10079000D104E104F10409F038F784E042CF68E4C1
:1007A00078EE81E090E0A50198010E946B19690143
:1007B0007A0191E0C91AD108E108F1088FEFC81653
:1007C000D104E104F10411F00CF0FFCE84E045CE39
:1007D0008FEFC816D104E104F10411F00CF0D8CE6B
:1007E00083E01FCF82E039CE3FB7F8948091520268
:1007F00090915302A0915402B091550226B5A89B46
:1008000005C02F3F19F00196A11DB11D3FBFBA2FA2
:10081000A92F982F8827BC01CD01620F711D811D62
:10082000911D42E0660F771F881F991F4A95D1F7E7
:1008300008958F929F92AF92BF92CF92DF92EF92E4
:10084000FF926B017C010E94F4034B015C01C11417
:10085000D104E104F104B9F00E94F40368197909A4
:100860008A099B09683E73408105910580F321E068
:10087000C21AD108E108F10888EE880E83E0981EBC
:10088000A11CB11CE4CFFF90EF90DF90CF90BF9000
:10089000AF909F908F9008952FB7F89460914E027B
:1008A00070914F0280915002909151022FBF089594
:1008B0009091180189130BC0ECE6F1E0E4919FEFF1
:1008C00090931801E13049F028F0E23061F060E0E7
:1008D0000C94190110926E00FACF90916F009D7FD9
:1008E00090936F00F4CF909170009D7F9093700073
:1008F00091E09093B0009091B100987F94609093B4
:10090000B1001092B300E3CFAF92BF92CF92DF92CB
:10091000EF92FF920F931F93CF93DF936C017B01B4
:100920008B01040F151FEB015E01AE18BF08C01745
:10093000D10759F06991D601ED91FC910190F081B8
:10094000E02DC6010995892B79F7C501DF91CF917B
:100950001F910F91FF90EF90DF90CF90BF90AF90DD
:100960000895FC01538D448D252F30E0842F90E0B5
:10097000821B930B541710F0CF960895019708959A
:10098000FC01918D828D981761F0A28DAE0FBF2F63
:10099000B11D5D968C91928D9F5F9F73928F90E0B9
:1009A00008958FEF9FEF0895FC01918D828D981728
:1009B00031F0828DE80FF11D858D90E008958FEF65
:1009C0009FEF0895FC01918D228D892F90E0805C2E
:1009D0009F4F821B91098F73992708958DE692E0AE
:1009E0000E94E20421E0892B09F420E0822F08957F
:1009F00080E090E0892B29F00E94EE0481110C9494
:100A000000000895FC01A48DA80FB92FB11DA35AB1
:100A1000BF4F2C91848D90E001968F739927848F1E
:100A2000A689B7892C93A089B1898C918370806441
:100A30008C93938D848D981306C00288F389E02DE2
:100A400080818F7D80830895EF92FF920F931F9393
:100A5000CF93DF93EC0181E0888F9B8D8C8D981371
:100A60001AC0E889F989808185FF15C09FB7F8947D
:100A7000EE89FF896083E889F989808183708064C9
:100A800080839FBF81E090E0DF91CF911F910F9114
:100A9000FF90EF900895F62E0B8D10E00F5F1F4F23
:100AA0000F731127E02E8C8D8E110CC00FB607FC32
:100AB000FACFE889F989808185FFF5CFCE010E94C0
:100AC0000205F1CFEB8DEC0FFD2FF11DE35AFF4F27
:100AD000F0829FB7F8940B8FEA89FB89808180624E
:100AE000CFCFCF93DF93EC01888D8823B9F0AA890B
:100AF000BB89E889F9898C9185FD03C0808186FDD9
:100B00000DC00FB607FCF7CF8C9185FFF2CF808127
:100B100085FFEDCFCE010E940205E9CFDF91CF9195
:100B2000089522E3FC012E9FC0012F9F900D1124F8
:100B3000480F591F7695679576956795CB01880F75
:100B4000991F860F971F8417950750F485E0869F9D
:100B50009001879F300D112481E02417350708F498
:100B600080E008954CEE5FEF0C9491054F925F92F8
:100B70006F927F929F92AF92BF92CF92DF92EF924D
:100B8000FF920F931F93CF93DF93182F5A01922E4A
:100B9000C62FD0E0C65DDB4F412C512C320143946F
:100BA000C12CD12C7601112301F19920B1F088815B
:100BB000B50190E00E94B205002379F1CC0CDD1C58
:100BC000EE1CFF1C882311F06894C0F8440C551CDF
:100BD000661C771C11502296E6CF898144E150E0D3
:100BE000B50190E00E949105E7CFC092FA04D0923F
:100BF000FB04E092FC04F092FD04DF91CF911F9181
:100C00000F91FF90EF90DF90CF90BF90AF909F90AB
:100C10007F906F905F904F9008958823B9F2C42819
:100C2000D528E628F728D2CFCF93DF93EC01FC013B
:100C300033966591749180912B0490E00E94B205E7
:100C4000882369F0FE0135966591749180912C049A
:100C500044E150E090E0DF91CF910C94910580E069
:100C6000DF91CF91089522E3289FA001299F500D85
:100C7000112476956795769567959B01220F331F12
:100C8000260F371F4217530750F085E0869F9001CB
:100C9000879F300D112481E02417350708F480E088
:100CA0000895BF92CF92DF92EF92FF920F931F931E
:100CB000CF93DF9310916C0280911D05B12C181712
:100CC000A0F5812F8170B82E00916B0201111EC01A
:100CD000E12FF0E0E35EFB4FE584F12CCCEEDFEF9B
:100CE000882311F0C4E1D0E0C0906902D0906A027C
:100CF000CC0DDD1DBE01C7010E943306882301F122
:100D000081E090E090936802809367020F5F009308
:100D10006B0280916702909168020817190628F00B
:100D200010926B021F5F10936C028B2DDF91CF919D
:100D30001F910F91FF90EF90DF90CF90BF9008959B
:100D4000CC0DDD1DBE01C7010E943306882319F0BA
:100D500082E090E0D7CFB6016C0F7D1FC7010E94E3
:100D60003306882319F083E090E0CCCFBB24BA94FB
:100D7000DCCF80912B05811102C02D98089560E091
:100D80000C941901882349F080912B05811102C030
:100D90002D9A089561E00C9419010C94B9068F9274
:100DA0009F92AF92BF92CF92DF92EF92FF921F93EA
:100DB000CF93DF93EC010E94F4036B017C014B01A4
:100DC0005C0188E0880E911CA11CB11C10E0F89415
:100DD00061E0809118040E94190180911B04909198
:100DE0001C048230910538F0880F991F880F991FD5
:100DF00005970197F1F760E0809118040E941901AE
:100E00007894111103C081E00E94C20680911904F8
:100E100090911A04C80ED91EE11CF11CF8940E948E
:100E2000F4039B01281939092C173D0778F00E941B
:100E3000B9067894DF91CF911F91FF90EF90DF90EA
:100E4000CF90BF90AF909F908F90089511E06C1558
:100E50007D058E059F0518F3BACFCF92DF92EF92F2
:100E6000FF928AE190E090931A048093190485E040
:100E700090E090931C0480931B0461E0809118041F
:100E80000E94650180E093E20E94CF060E94F40375
:100E90006B017C0124E0C21AD108E108F1080E942C
:100EA000F4036C197D098E099F09603C7840810527
:100EB0009105A8F380E392E0FF90EF90DF90CF9050
:100EC0000C94CF06FF920F931F93CF93DF93CDB770
:100ED000DEB764970FB6F894DEBF0FBECDBF162FF6
:100EE000F42E44E150E0BC01CE0101960E9411189D
:100EF0000889802F80714885598504FD02C04A8584
:100F00005B85001F0027001F21E0811101C020E048
:100F10006F2D812F0E94B60564960FB6F894DEBF40
:100F20000FBECDBFDF91CF911F910F91FF9008951C
:100F3000FC0101900020E9F73197AF01481B590BE4
:100F4000BC018DE692E00C948404CF93DF930E9461
:100F50009807EC0183E391E00E9498078C0F9D1F96
:100F6000DF91CF9108951F920F920FB60F92112427
:100F70002F933F938F939F93AF93BF9380914E0294
:100F800090914F02A0915002B091510230914D02C8
:100F900023E0230F2D3758F50196A11DB11D209395
:100FA0004D0280934E0290934F02A0935002B09353
:100FB00051028091520290915302A0915402B0913B
:100FC00055020196A11DB11D8093520290935302C8
:100FD000A0935402B0935502BF91AF919F918F910E
:100FE0003F912F910F900FBE0F901F90189526E8FC
:100FF000230F0296A11DB11DD2CF1F920F920FB6E3
:101000000F9211242F933F934F935F936F937F938E
:101010008F939F93AF93BF93EF93FF9380915B0266
:1010200090915C02A0915D02B0915E02892B8A2BA7
:101030008B2BD1F190915602E0915702F09158021A
:1010400080818927808380915B0290915C02A091CE
:101050005D02B0915E02181619061A061B069CF472
:1010600080915B0290915C02A0915D02B0915E0262
:101070000197A109B10980935B0290935C02A09350
:101080005D02B0935E02FF91EF91BF91AF919F918E
:101090008F917F916F915F914F913F912F910F9021
:1010A0000FBE0F901F901895809118010E94580450
:1010B000EACF1F920F920FB60F9211242F933F93F6
:1010C0004F935F936F937F938F939F93AF93BF9350
:1010D000EF93FF938DE692E00E940205FF91EF915E
:1010E000BF91AF919F918F917F916F915F914F9140
:1010F0003F912F910F900FBE0F901F9018951F9248
:101100000F920FB60F9211242F938F939F93EF930B
:10111000FF93E0917D02F0917E028081E091830255
:10112000F091840282FD1BC09081809186028F5FC6
:101130008F7320918702821741F0E0918602F0E0E0
:10114000E359FD4F958F80938602FF91EF919F9118
:101150008F912F910F900FBE0F901F901895808147
:10116000F4CF1F920F920FB60F9211242F933F933B
:101170004F935F936F937F938F939F93AF93BF939F
:10118000CF93EF93FF93E0911F04F0912004C0816F
:1011900080912104C82380912204909123042091FE
:1011A0002204309123042F3F3F4F29F00196909362
:1011B00023048093220420911D04211115C0C11124
:1011C0004BC0813A910558F010922604909329045F
:1011D0008093280481E08093270480931D0410925B
:1011E00023041092220438C0213099F4CC23A1F1B9
:1011F000E09127042E0F20932704F0E0E35EFB4FDD
:101200008F3F910519F010F08FEF90E0858782E015
:10121000E4CF223009F047C0E0912704813A9105DC
:1012200010F4E73CA0F1E83C18F081E0809326043C
:10123000809128049091290490931F0580931E05A6
:10124000E0931D0583E080931D04E0912404F09158
:101250002504309709F0099580912C05882329F001
:1012600081E0C11180E00E94C206FF91EF91CF9111
:10127000BF91AF919F918F917F916F915F914F91AE
:101280003F912F910F900FBE0F901F901895C11195
:10129000E3CF91E09E0F90932704F0E0E35EFB4FD5
:1012A000858781E09ACF2330B9F6C111D5CF97CF8A
:1012B000DF92EF92FF920F931F93CF93DF93EC0196
:1012C000D62E8A017901F0E090E080E030E0E0E0A5
:1012D000DE01AE0FB11D2C91FF5F222339F0320FDA
:1012E0002E9F800D911D11241C92F0E03323B9F044
:1012F000DE1611F0F23098F0232F2695820F911D03
:10130000632F70E00E941E1ADE01A60FB11D3C93F0
:10131000D8013C9131110FC06C9390E080E0EF5FF9
:10132000DE16B0F681E0DF91CF911F910F91FF9013
:10133000EF90DF900895D7013C91332369F380E06B
:10134000F2CFEDE6F2E01382128288EE93E0A0E0A5
:10135000B0E084839583A683B78385E291E091838F
:10136000808385EC90E09587848784EC90E0978774
:10137000868780EC90E0918B808B81EC90E0938B62
:10138000828B82EC90E0958B848B86EC90E0978B3F
:10139000868B118E128E138E148E10922B05EDE11A
:1013A000F4E0118281E0848389E290E09383828378
:1013B000509810921804EAE0F3E08BE0818388E013
:1013C000848383E290E09383828323980895CF936C
:1013D000DF93CDB7DEB7EA970FB6F894DEBF0FBE46
:1013E000CDBF789484B5826084BD84B5816084BDAE
:1013F00085B5826085BD85B5816085BD80916E00B3
:10140000816080936E0010928100809181008260E3
:101410008093810080918100816080938100809120
:1014200080008160809380008091B100846080930F
:10143000B1008091B00081608093B00080917A000B
:10144000846080937A0080917A00826080937A0031
:1014500080917A00816080937A0080917A00806820
:1014600080937A001092C10061E087E00E946501DC
:1014700061E086E00E94650161E084E00E94650110
:1014800061E085E00E946501E0917D02F0917E02BD
:1014900082E08083E0917902F0917A021082E091FB
:1014A0007B02F0917C0280E1808310928502E091C2
:1014B0008102F091820286E08083E0917F02F091C8
:1014C0008002808180618083E0917F02F0918002C0
:1014D000808188608083E0917F02F091800280812A
:1014E00080688083E0917F02F091800280818F7D0F
:1014F000808386E391E00E94A5078BE080931E0421
:1015000088E08093210483E290E09093200480930C
:101510001F04239881E080932C0510922B050E94D4
:10152000F6008EE090E0909346028093450260E0E2
:101530000E94650180911D04833009F073C280917F
:101540002604882309F465C080E480931C0510926A
:10155000F3041092F2041092F7041092F604109221
:10156000F5041092F4041092FA041092FB04109205
:10157000FC041092FD0410921B0510921A05809134
:101580001C0586FDC5C110911D05812F8F7B843000
:1015900009F0C1C080912B0460E073E290E00E94EA
:1015A000B205882309F444C180912C0490E044E101
:1015B00050E0143009F048C060EC78E00E949105DA
:1015C000882309F435C180912D0460E372E090E036
:1015D0000E94B205882309F42BC181E080931C0589
:1015E00080912205909123059093F5048093F40453
:1015F00080912405909125059093F7048093F6043B
:1016000080912005909121059093F3048093F2043A
:101610007FC110921C058091F2049091F304909385
:101620002105809320058091F6049091F704909312
:101630002505809324058091F4049091F5049093FE
:1016400023058093220583CF60E871E10E94910514
:10165000882309F4EDC043E060E280E391E00E945A
:1016600062072091FA049091FB046091FC04809140
:10167000FD04462F50E05093F7044093F604422FA8
:10168000592F4E3E37E8530719F523E030E03093E9
:10169000F3042093F20490E09093F5048093F40413
:1016A00080E290E090931B0580931A058AE795E00D
:1016B0000E940C0180911C0580FF2EC129E030E0C2
:1016C0003093F3042093F204806280931C0520C1C0
:1016D0009095291310C030E03093F5042093F40462
:1016E000982F909569130CC088E090E09093F304D4
:1016F0008093F204D5CF5093F5044093F404F0CFD7
:101700002AE030E03093F3042093F2046093F6046F
:101710008093F704C5CF143609F08AC08CE191E0BC
:101720000E941406882309F483C043E060E18CE141
:1017300091E00E946207D090FA040D2D1091FB04F5
:10174000FBE0EF2EF12C023040E21407F9F0EEE05E
:10175000EE2EF12C0A3A5AE51507C1F07DE0E72E8E
:10176000F12C043582E3180789F06FE0E62EF12CA6
:10177000033091E0190751F0A0E1EA2EF12C033279
:10178000ABEC1A0719F05CE0E52EF12CD1268D2D7B
:1017900082958F70D82643E260E28CE191E00E944E
:1017A00062078091FA049091FB04A091FC04B0912F
:1017B000FD049C0144E0369527954A95E1F7309366
:1017C000F5042093F4042A2F30E03093F70420939B
:1017D000F604282F2A2729273D2D3F70482F4F70C8
:1017E000341719F034E030931C05ECE0EE16F104E8
:1017F00049F430911C05306130931C051093F904B5
:101800000093F8042B1729F080911C0584608093C5
:101810001C0580E390E090931B0580931A05F092DD
:10182000F304E092F2048AE397E00E940C0170C096
:1018300080911D05803209F0D2C141E06FE088E05F
:1018400091E00E9462078091490464E071E090E0B9
:101850000E94B205882309F4C2C18091FA049091D4
:10186000FB04A091FC04B091FD049C012F7133276F
:101870003093F5042093F40405E0B695A795979569
:1018800087950A95D1F7392F3370AC0155275093BE
:10189000F7044093F60440911E0550911F0545360C
:1018A000544008F099C120911C05226020931C052A
:1018B00020912A052F5F20932A0520FF19C021308F
:1018C00019F021E020931C05309124054091250555
:1018D000282F2095231729F020911C0524602093A0
:1018E0001C053093F6044093F704392F309533707C
:1018F00087E190E0311102C084E090E09093F3041E
:101900008093F2048FE090E090931B0580931A057A
:1019100080911C0580FD80C08091F2049091F304B9
:10192000892B09F479C0C090FA04D090FB04E090B0
:10193000FC04F090FD04C114D104E104F10409F4A5
:101940006BC08CE391E00E94980719A29701860171
:10195000CE018196B901A8014F70552766277727D8
:10196000A4E03695279517950795AA95D1F74A30A3
:101970000CF0F0C6405DFC014293CF01011511054A
:101980002105310539F7EF2B11F00E94980783E309
:1019900091E00E94980784E090E0F7E0CF16DF0620
:1019A000F4E0EF06FBEFFF0699F185E090E027E019
:1019B000C216D20625E0E2062AEFF20649F186E0D9
:1019C00090E037E0C316D30636E0E30639EFF306BE
:1019D000F9F087E090E047E0C416D40648E0E4065A
:1019E00047EFF406A9F088E090E057E0C516D50669
:1019F00059E0E50656EFF50659F087E0C816D80617
:101A00008AE0E80685EFF80609F0A6C68EE090E0C9
:101A100090934C0280934B0280911D04833011F40B
:101A200010921D04809145028E3008F08E50877010
:101A3000806480937C0080917A00806480937A0037
:101A400080917A0086FDFCCF6091780070917900DA
:101A5000072E000C880B990B0E941C186B017C014F
:101A600024EA30E74DE75FE36091140170911501BE
:101A700080911601909117010E947B184B015C0127
:101A80002AE037ED43E25CE3C701B6010E947B1810
:101A90009B01AC01C501B4010E94AD199B01AC01D1
:101AA00020931401309315014093160150931701B0
:101AB000C701B6010E94AC194B015C01E894B7F86C
:101AC00023E333E343E75FE3609141027091420215
:101AD00080914302909144020E947B186B017C012B
:101AE0002DEC3CEC4CE45DE3C501B4010E947B1895
:101AF0009B01AC01C701B6010E94AD192B013C014D
:101B0000409241025092420260924302709244021B
:101B10000E944C046B017C0120E030E040EA52E47A
:101B2000C301B2010E94AD199B01AC01C501B40112
:101B30000E94191A181664F580913D0290913E0298
:101B4000A0913F02B0914002A7019601281B390BDA
:101B50004A0B5B0BDA01C90189379105A105B10573
:101B6000B8F080913C02C0923D02D0923E02E092D9
:101B70003F02F092400281111CC681E080933C023A
:101B8000C0923802D0923902E0923A02F0923B02BF
:101B900080913C02882309F42EC6809138029091EE
:101BA0003902A0913A02B0913B02C81AD90AEA0A56
:101BB000FB0A41E9C41641E0D406E104F10408F44B
:101BC0001AC610923C0284E090E090934C028093FD
:101BD0004B028BE591E00DC610922A0589CE88E66E
:101BE00090E00E941406882309F446C080911D05E8
:101BF0008A3129F08A3219F0803209F03DC090E034
:101C0000BC016150710977FDBC017595679543E092
:101C100088E690E00E9462078091FA049091FB04AC
:101C2000A091FC04B091FD049C012F7733273093E1
:101C3000F7042093F60417E0B695A7959795879536
:101C40001A95D1F79093F5048093F40420911D0523
:101C500030E0C901019797FDC9019595879590934B
:101C60001B0580931A0588E190E09093F30480931C
:101C7000F20480EE91E0D9CD81E080936C0289E797
:101C800093E090936A028093690210926B020E9423
:101C90005106813009F063C0C12CD12C760110E0CF
:101CA00090911D0580916C028917E0F40E94510605
:101CB000082F0E94510601110BC0813009F04FC05E
:101CC000CC0CDD1CEE1CFF1C6894C0F81F5FE8CF35
:101CD000013009F044C0811142C0CC0CDD1CEE1C67
:101CE000FF1CF4CF812F90E090931B0580931A0581
:101CF000C092FA04D092FB04E092FC04F092FD043E
:101D00008C2D8F7390E09093F7048093F6049601E6
:101D100056E0369527955A95E1F72F713327309382
:101D2000F5042093F404960122273071232B31F41B
:101D3000805C9F4F9093F7048093F60480E8809333
:101D40001C05D3FE03C088E880931C0581E190E068
:101D50009093F3048093F2048FEC99E066CD809128
:101D60002B0468E67AE090E00E94B205882309F42B
:101D700048C080912C0444E150E068E773E090E0B3
:101D80000E9491058823E9F183E080936C028CEB3B
:101D900091E090936A028093690210926B020E9414
:101DA0005106813071F50E94510681112AC0C12C63
:101DB000D12C760110E090911D0580916C0289175D
:101DC00008F076C00E945106B82E1330B1F00E9480
:101DD0005106082F133021F40E945106081311C038
:101DE00021E0B2125BC001110CC0CC0CDD1CEE1C5A
:101DF000FF1C6894C0F81F5FDECF0E945106B81622
:101E000031F3F0901D053CE3F31619F044E0F412B1
:101E100015C000912B0410E068E273E2C8010E9433
:101E2000B205811192C06CE175E2C8010E94B20551
:101E300068EB7BE007E010E081118BC082E2F816CE
:101E400009F4F6C094E2F91225C180E990E00E94FD
:101E50001406882309F41EC143E060E180E990E0A4
:101E60000E9462078091FA049091FB04A091FC0407
:101E7000B091FD04492F5A2F6B2F77275093F70409
:101E80004093F60499279093F5048093F40480E13D
:101E900090E090931B0580931A05F9C0B110B1CF63
:101EA000013009F0AECFCC0CDD1CEE1CFF1CA3CF23
:101EB000812F90E090931B0580931A05C092FA043D
:101EC000D092FB04E092FC04F092FD042C2D30E053
:101ED0008D2D90E0133200F540E840931C053093BF
:101EE000F7042093F6049093F5048093F404E0FE45
:101EF00003C088E880931C05153128F080911C05EB
:101F0000806180931C0582E190E09093F3048093BC
:101F1000F20483E79AE089CC40E940931C053093B2
:101F2000F7042093F6049093F5048093F404C7011A
:101F30009F739093F9048093F804F7FE03C088E937
:101F400080931C0583E190E0E0CF68E670E106E055
:101F500010E080912C0490E054E0F51215C044E1AB
:101F600050E060ED77E00E949105882309F492C06B
:101F700080912D0464EF71E090E00E94B205882307
:101F800009F488C081E82ACB44E150E00E94910521
:101F9000882309F453CF43E06CE18CE790E00E9482
:101FA000620780E880931C058091FA049091FB04FD
:101FB000A091FC04B091FD046C017D01F4E0F69465
:101FC000E794D794C794FA95D1F7A601D092F70475
:101FD000C092F6046C017D0124E1F694E794D79455
:101FE000C7942A95D1F7D092F504C092F40424E066
:101FF00030E060E0742F7F70670FE4E056954795FE
:10200000EA95E1F721503109A9F786278F709927C2
:10201000AA27BB27892B8A2B8B2B19F084E8809366
:102020001C051093F3040093F2048CE190E06CCC57
:1020300080911E0590911F058C3E9C4508F068CC50
:1020400080912B046EE072E090E00E94B20588233C
:1020500009F45ECC80914B046EE072E090E00E9447
:10206000B205882309F454CC81E080931C0580914B
:102070002205909123059093F5048093F4048091B8
:102080002405909125059093F7048093F60485E04C
:1020900090E0BACA80911D05982F9F7D943419F065
:1020A000863009F07DC084EA90E00E9414068823FF
:1020B00009F476C080911D058630B1F481E28093E9
:1020C0001C0580912205909123059093F50480933F
:1020D000F40480912405909125059093F704809352
:1020E000F60485E190E090CA43E060E284EA90E083
:1020F0000E9462079091FA048091FB041091FC0405
:102100002091FD049093F4048093F50430911D0513
:10211000022F0095343639F543E460E184EA90E01B
:102120000E9462078091FA049091FB04101731F02D
:102130009095981719F094E090931C05982F812F93
:102140009093F7048093F60480E390E090931B054E
:1021500080931A0586E190E09093F3048093F20453
:102160008EEB9AE062CB101306C0412F50E05093E3
:10217000F7044093F60489130EC090E09093F504A1
:102180008093F40480E290E090931B0580931A05FD
:1021900084E190E0E1CF1093F6042093F704F2CFAE
:1021A00080911D05843269F588EB90E00E94140649
:1021B000882339F143E060E188EB90E00E946207F8
:1021C0001091FA048091FB048095181719F084E0AF
:1021D00080931C058DE692E00E940C01812F90E017
:1021E0009093F7048093F6041092F5041092F4048F
:1021F00080E190E090931B0580931A058EE190E0BA
:1022000003CA80911D058434C1F48CEC90E00E94D7
:102210001406882391F043E060E28CEC90E00E9489
:10222000620780E880931C0580E290E090931B0594
:1022300080931A058DE190E0E7C980912B048E3ED2
:1022400008F069C080912C0444E150E062E074E041
:1022500090E00E949105882309F45DC080911D05DE
:10226000843209F058C000910F01802F8071409195
:1022700007015091080104FD04C0409109015091EB
:102280000A01001F0027001F21E0811101C020E08A
:1022900063E080E10E94B60580E880931C054091D0
:1022A000FA049091FB04242F392F592F52955F7017
:1022B0009F7064E0369527956A95E1F72F704F700F
:1022C0008FE0852789278227481719F084E88093B3
:1022D0001C0580911C0560911E0570911F05683FCB
:1022E000714118F4826080931C055093F40410929D
:1022F000F504E0E19E9FC0011124822B9093F70426
:102300008093F60480E190E090931B0580931A057A
:102310008BE190E079C980EE90E00E94140688235A
:1023200071F180911D05843251F543E060E180EE4A
:1023300090E00E94620780914D0468E072E090E0B6
:102340000E94B2058823D9F08091FA049091FB0491
:1023500098279F3FA1F490E09093F7048093F604B0
:1023600080E190E090931B0580931A058AE190E04C
:102370009093F3048093F20488ED94E056CA809120
:102380001D05803709F04FC041E068E084EF90E020
:102390000E9462078091FA049091FB04A091FC04D2
:1023A000B091FD04892B8A2B8B2BE9F541E16FE17C
:1023B00084EF90E00E946207C090FA04D090FB0482
:1023C000E090FC04F090FD044FE461E184EF90E0C4
:1023D0000E9462079091FB048091FC048927982752
:1023E00089279093F7048093F604C092FA04D09260
:1023F000FB04E092FC04F092FD04D092F504C0923C
:10240000F404F092F904E092F8048CE190E09093E7
:10241000F3048093F20488E390E090931B0580938B
:102420001A0580E852C980911D05823108F43DC12A
:102430008E010F5F1F4F92E3D8011D929A95E9F725
:1024400043E060E08250990B242F30E028173907D1
:1024500094F4235E3B4FF9012585223308F025C112
:10246000F801E20FF11D30813F5F3083621708F4FD
:10247000622F4E5FE9CF1EAA1DAA9E012B5C3F4F23
:10248000AE014A5C5F4FC8010E945809882309F4D5
:102490000CC182E3D8011D928A95E9F720911D05B0
:1024A0002250330B44E060E0842F90E082179307C2
:1024B00094F4835E9B4FFC018585823308F0F5C060
:1024C000F801E80FF11D90819F5F9083681708F471
:1024D000682F4E5FE9CF1CAA1BAA9E012D5C3F4FBF
:1024E000AE014C5C5F4FC8010E945809882309F473
:1024F000DCC080911D0586951FEF180FEBA8EE201C
:1025000011F01EEF180F812F90E090931B05809320
:102510001A051C01F1E02F1A310837FE04C01C0116
:102520002EE1220E311C95E0359427949A95E1F71F
:102530002FAACDA8C11003C0EE2009F4B6C04CA844
:1025400082E3489E20011124AEA8A89E50011124C8
:10255000C89E60011124E89E7001112403E0802EC2
:10256000912C66246394712C812F113208F080E243
:102570009BA9992309F47BC042E050E05093F304F7
:102580004093F20400E020E0A701682D0E94B60508
:102590008091FA049091FB04A091FC04B091FD0499
:1025A00054E0959EF0011124E65FFA4F80839183F9
:1025B000A283B383E0E48E0E10529394FFA9F91521
:1025C00098F620911E0530911F05203D3740E8F414
:1025D000F101EE0FFF1FEE0FFF1FE65FFA4F0081C4
:1025E0001181228133814091260550912705609108
:1025F000280570912905041715072607370729F4C0
:1026000020911C05216020931C0580932605909342
:102610002705A0932805B093290520912B0492E368
:10262000299F900111243093FF042093FE04809190
:102630002C04899FC001112490930105809300050B
:10264000B0920705A0920605509209054092080530
:10265000C114D10409F1E114F10489F4D092030505
:10266000C0920205509205054092040551C970922E
:10267000F3046092F20400E021E0A60186CFF0921C
:102680000505E0920405B0920305A0920205D092E0
:102690000705C09206053CC9B0920305A092020549
:1026A000F0920505E092040533C9E0911D05E6307E
:1026B00008F42EC911E025EC3DE94CE151E8F0E0C9
:1026C0000AE0612F70E0CB0102968E179F077CF520
:1026D000835E9B4FDC011D968C91635E7B4FDB011B
:1026E0001D966C91809F7001112498E0699FD00124
:1026F0001124EA16FB0678F0609FB0011124A8E0CF
:102700008A9FC0011124B2E0FB2E6817790720F0E0
:10271000FF24F39401C0F12C63E971E080E091E0C3
:102720000E9439199B01AC012F251F5FCACF20934E
:10273000FA043093FB044093FC045093FD0480E2C0
:1027400090E090931B0580931A051092F304109269
:10275000F204DEC8495C0FC997E0C916D90690E6B5
:10276000E9069FE9F90619F48AE090E051C98BE087
:1027700090E0A7E0CA16DA06A1E6EA06AEE9FA0694
:1027800009F446C98CE090E0B7E0CB16DB06B5E66D
:10279000EB06BAE9FB0609F43BC9E7E0CE16DE0614
:1027A000E2E6EE06EDE9FE0609F036C98DE090E0BE
:1027B0002FC98091380290913902A0913A02B091CC
:1027C0003B02A7019601281B390B4A0B5B0BDA0170
:1027D000C90181399140A105B10508F0D1C9109214
:1027E0003C0285E090E090934C0280934B0286E49B
:1027F00091E00E94A50780914B0290914C02892B99
:1028000009F461C10E944C040091470210914802F2
:102810002091490230914A02601B710B820B930B8D
:10282000673971058105910508F44DC10E944C047A
:1028300060934702709348028093490290934A0242
:10284000E0914B02F0914C023497EB30F10508F027
:1028500036C1E35DFB4E0C94461A38147014AB1469
:1028600010157315B415D616FF16EB16F1160C16C7
:1028700080E791E00E94A5071092700010E000E050
:10288000F0EBEF2EF4E0FF2E40E050E0BA01C7017C
:102890000E94960166E070E080E090E00E941904DA
:1028A00052E0E51AF10886E5E81682E0F80661F7DD
:1028B00088E00E9458040330110531F06CEB72E09F
:1028C00080E090E00E9419040F5F1F4F0430110553
:1028D000B9F60E94F6008DE791E00E94A507EFC0CF
:1028E00088E891E00E94A507109270000E944C04B5
:1028F0004B015C01E8EBCE2EEBE0DE2EE12CF12C5F
:102900000E944C04681979098A099B09683572404C
:1029100081059105C0F40E94B917A70196010E9494
:102920006B19DC01CB018854944FAF4FBF4F40E08F
:1029300050E0BA010E94960162E070E080E090E011
:102940000E941904DDCF88E00E9458040E94F6001E
:1029500085E991E0C2CF80EA91E00E94A50710923C
:1029600070000E944C046FAB78AF89AF9AAF0E94A1
:102970004C042FA938AD49AD5AAD621B730B840BC3
:10298000950B6C3D75408105910508F044C00E948F
:10299000B9172B013C010E94B9176B017C010E9401
:1029A000B9174B015C01C701B6012BE030E040E0F4
:1029B00050E00E946B196B017C014AE0C40ED11CEF
:1029C000E11CF11CC301B20125E130E040E050E020
:1029D0000E946B19DC01CB010A97A109B109885843
:1029E0009F4FB701A6010E949601C701B6010E9440
:1029F000190488E00E945804C501B4012BE030E0BE
:102A000040E050E00E946B196B5F7F4F8F4F9F4FEC
:102A10000E941904ACCF0E94F6008DEA91E05DCFD0
:102A200088EB91E00E94A507109270000E944C0470
:102A30006B017C0108E017E04AE050E060E070E0E4
:102A4000C8010E94960168E070E080E090E00E947A
:102A500019040E944C046C197D098E099F09613F7D
:102A600071058105910530F4045C1F4F0C3959E064
:102A7000150711F700E619E04CE050E060E070E067
:102A8000C8010E94960169E070E080E090E00E9439
:102A900019040E944C046C197D098E099F09613F3D
:102AA00071058105910530F400551109003585E067
:102AB000180711F788E00E9458040E94F60010924F
:102AC0004C0210924B0280E090E0892B11F40C94A0
:102AD0009A0A0E94EE04882311F40C949A0A0E9428
:102AE00000000C949A0A80EC91E00E94A5071092D5
:102AF00070000AE010E058E0852E912C60EBC62EA5
:102B000064E0D62E77E3272E312C0E945D175C01FE
:102B10000E945D17B4010E94321A7C01AFE0EA0EF8
:102B2000F11C27010F2C000C66087708C501B601BF
:102B30000E94321AB301A2018C5C974F0E94960149
:102B4000C301B2010E94190488E00E945804B10137
:102B50006E197F09072E000C880B990B0E9419042F
:102B60000150110991F6A9CF8AEC91E00E94A507C6
:102B7000109270000E944C042B013C014AE0C42ECC
:102B8000D12C0FE010E00E944C04641975098609ED
:102B90009709603273408105910508F08ECF0E943D
:102BA0005D175C010E945D177C01C501B6010E94A2
:102BB000321A48E250E060E070E08A5B9F4F0E946A
:102BC000960168E270E080E090E00E94190488E0DD
:102BD0000E9458046AE070E080E090E00E941904CE
:102BE000C701B8010E94321A42E350E060E070E091
:102BF000865A9F4F0E94960162E370E080E090E069
:102C00000E94190488E00E9458046FE070E080E0A0
:102C100090E00E941904B7CF82ED91E00E94A507D1
:102C2000109270000E944C046B017C010E944C04C5
:102C30006C197D098E099F09603D774081059105DA
:102C400008F0ACC008E512E00E94B91722E030E0BD
:102C500040E050E00E946B19AA24A394B12C672B8A
:102C6000682B692B19F4AA24AA94BA2C0E94B917CC
:102C700029E130E040E050E00E946B19AB01BC015B
:102C8000465F5F4F6F4F7F4FA49EC001A59E900D82
:102C9000B49E900D1124800F911F8436910514F479
:102CA00084E690E04FE050E060E070E00E94960122
:102CB0006CE070E080E090E00E9419040E944C04F7
:102CC0006C197D098E099F09613D77408105910549
:102CD00038F40C5E1F4F043526E0120709F0B4CF1C
:102CE0000E944C046C197D098E099F09613D774053
:102CF0008105910508F052C000E416E00E94B91762
:102D000022E030E040E050E00E946B19672B682B16
:102D1000692B09F43FC0AA24A394B12C0E94B917CF
:102D200029E130E040E050E00E946B19AB01BC01AA
:102D3000465F5F4F6F4F7F4FA49EC001A59E900DD1
:102D4000B49E900D1124800F911F8436910514F4C8
:102D500084E690E042E150E060E070E00E9496017D
:102D60006EE070E080E090E00E9419040E944C0444
:102D70006C197D098E099F09613D77408105910598
:102D800008F054CF0F501109033552E0150709F030
:102D9000B5CF4CCFAA24AA94BA2CC0CF88E00E9409
:102DA00058040E94F60084EE91E097CD84EF91E004
:102DB0000E94A50761E087E00E94190160E086E0BB
:102DC0000E94190161E084E00E94190160E085E041
:102DD0000E94190174CE82E092E00E94A50760E093
:102DE000EACF85E192E00E94A50761E087E00E94BA
:102DF000190160E086E00E94190160E0E4CF89E2F9
:102E000092E00E94A50760E087E00E94190161E05E
:102E100086E00E94190160E084E00E94190161E0EF
:102E2000D6CF8F929F92AF92BF92CF92DF92EF92C6
:102E3000FF92CF93DF93EC01688179818A819B8136
:102E4000611571058105910521F464E279ED8BE549
:102E500097E02DE133EF41E050E00E946B1949010A
:102E60005A019B01AC01A7EAB1E40E948A196B01E7
:102E70007C01ACEEB4EFA50194010E949819DC012D
:102E8000CB018C0D9D1DAE1DBF1DB7FF03C001976B
:102E9000A109B04888839983AA83BB839F77DF9178
:102EA000CF91FF90EF90DF90CF90BF90AF909F9029
:102EB0008F9008950E941117089589E191E00E9472
:102EC00011170895B0E0A0E08093190190931A01C2
:102ED000A0931B01B0931C0108958F929F92AF9213
:102EE000BF92CF92DF92EF92FF92CF93DF93EC01EC
:102EF000688179818A819B816115710581059105C0
:102F000021F464E279ED8BE597E02DE133EF41E0C8
:102F100050E00E946B1949015A019B01AC01A7EADC
:102F2000B1E40E948A196B017C01ACEEB4EFA501FB
:102F300094010E949819C60ED71EE81EF91EF7FECE
:102F400006C081E0C81AD108E10880E8F80AC88202
:102F5000D982EA82FB82C701B6019F77DF91CF91C8
:102F6000FF90EF90DF90CF90BF90AF909F908F90A9
:102F700008958F929F92AF92BF92CF92DF92EF927D
:102F8000FF9260911D0170911E0180911F0190912F
:102F90002001611571058105910521F464E279ED47
:102FA0008BE597E02DE133EF41E050E00E946B1993
:102FB00049015A019B01AC01A7EAB1E40E948A19B8
:102FC0006B017C01ACEEB4EFA50194010E9498194D
:102FD000C60ED71EE81EF91EF7FE06C081E0C81A0D
:102FE000D108E10880E8F80AC0921D01D0921E01C4
:102FF000E0921F01F0922001C701B6019F77FF9078
:10300000EF90DF90CF90BF90AF909F908F900895FA
:1030100060931D0170931E0180931F019093200106
:103020000895FB01DC0102C005900D924150504013
:10303000D8F70895E89409C097FB3EF490958095E1
:10304000709561957F4F8F4F9F4F9923A9F0F92F6E
:1030500096E9BB279395F695879577956795B795EC
:10306000F111F8CFFAF4BB0F11F460FF1BC06F5FD2
:103070007F4F8F4F9F4F16C0882311F096E911C0E4
:10308000772321F09EE8872F762F05C0662371F005
:1030900096E8862F70E060E02AF09A95660F771F19
:1030A000881FDAF7880F9695879597F90895990FF5
:1030B0000008550FAA0BE0E8FEEF16161706E80702
:1030C000F907C0F012161306E407F50798F0621B23
:1030D000730B840B950B39F40A2661F0232B242BF8
:1030E000252B21F408950A2609F4A140A6958FEF17
:1030F000811D811D08950E948E180C94FF180E9456
:10310000F11838F00E94F81820F0952311F00C9473
:10311000E8180C94EE1811240C9433190E9410191D
:1031200070F3959FC1F3950F50E0551F629FF0011A
:10313000729FBB27F00DB11D639FAA27F00DB11D33
:10314000AA1F649F6627B00DA11D661F829F2227BC
:10315000B00DA11D621F739FB00DA11D621F839F43
:10316000A00D611D221F749F3327A00D611D231F19
:10317000849F600D211D822F762F6A2F11249F5767
:1031800050409AF0F1F088234AF0EE0FFF1FBB1F6A
:10319000661F771F881F91505040A9F79E3F510529
:1031A00080F00C94E8180C9433195F3FE4F3983ED8
:1031B000D4F3869577956795B795F795E7959F5FD3
:1031C000C1F7FE2B880F911D9695879597F9089565
:1031D00097F99F6780E870E060E008959FEF80ECCA
:1031E000089500240A94161617061806090608956D
:1031F00000240A9412161306140605060895092ED3
:103200000394000C11F4882352F0BB0F40F4BF2B41
:1032100011F460FF04C06F5F7F4F8F4F9F4F089581
:1032200057FD9058440F551F59F05F3F71F0479577
:10323000880F97FB991F61F09F3F79F0879508955C
:10324000121613061406551FF2CF4695F1DF08C07B
:10325000161617061806991FF1CF86957105610598
:1032600008940895E894BB2766277727CB0197F940
:103270000895DB018F939F930E948A19BF91AF91AC
:10328000A29F800D911DA39F900DB29F900D1124C0
:103290000895A1E21A2EAA1BBB1BFD010DC0AA1F97
:1032A000BB1FEE1FFF1FA217B307E407F50720F0AF
:1032B000A21BB30BE40BF50B661F771F881F991F2A
:1032C0001A9469F760957095809590959B01AC0173
:1032D000BD01CF010895052E97FB1EF400940E94B6
:1032E000821957FD07D00E94491907FC03D04EF4FC
:1032F0000C94821950954095309521953F4F4F4F32
:103300005F4F089590958095709561957F4F8F4F91
:103310009F4F08950E949D19A59F900DB49F900DF9
:10332000A49F800D911D11240895B7FF0C948A1954
:103330000E948A19821B930B0895A29FB001B39F2C
:10334000C001A39F700D811D1124911DB29F700DAE
:10335000811D1124911D08955058BB27AA270E9452
:10336000C4190C94FF180E94F11838F00E94F81844
:1033700020F039F49F3F19F426F40C94EE180EF463
:10338000E095E7FB0C94E818E92F0E94101958F318
:10339000BA17620773078407950720F079F4A6F53A
:1033A0000C9432190EF4E0950B2EBA2FA02D0B01C0
:1033B000B90190010C01CA01A0011124FF27591B7A
:1033C00099F0593F50F4503E68F11A16F040A22F80
:1033D000232F342F4427585FF3CF469537952795F1
:1033E000A795F0405395C9F77EF41F16BA0B620BF0
:1033F000730B840BBAF09150A1F0FF0FBB1F661F37
:10340000771F881FC2F70EC0BA0F621F731F841F79
:1034100048F4879577956795B795F7959E3F08F09F
:10342000B0CF9395880F08F09927EE0F9795879561
:1034300008950E94571808F48FEF0895AA1BBB1B2C
:1034400051E107C0AA1FBB1FA617B70710F0A61BA4
:10345000B70B881F991F5A95A9F780959095BC01C5
:10346000CD01089597FB072E16F4009407D077FD41
:1034700009D00E941E1A07FC05D03EF49095819554
:103480009F4F0895709561957F4F0895EE0FFF1F30
:103490000590F491E02D0994F894FFCF1B00269E2F
:1034A0000002049E0029029E000701006E00000039
:1034B00000000044FF0100000001000000000000C7
:1034C0000024058404B1047105E204C004D4040D91
:1034D0000A005374617274004952207261773D3062
:1034E0007800436C61703A20444F55424C45202D82
:1034F0003E206869737300436C61703A2053494EF3
:10350000474C45202D3E206D656F77006D656F77C8
:103510002829207374617274006D656F77282920E3
:10352000656E64006869737328292073746172740E
:103530000068697373282920656E64007075727263
:1035400028292073746172740070757272282920A2
:10355000656E64006368697270282900636861742D
:1035600074657228290067726F776C28290063617F
:103570007465727761756C282920737461727400A8
:1035800063617465727761756C282920656E6400CB
:103590006D6F766520666F727761726421006D6F62
:1035A000766520666F7277617264206C656674213F
:1035B000006D6F766520666F727761726420726944
:1035C00067687421004D6F7665206261636B776177
:0435D0007264210000
:107E0000112484B714BE81FFF0D085E080938100F7
:107E100082E08093C00088E18093C10086E0809377
:107E2000C20080E18093C4008EE0C9D0259A86E02C
:107E300020E33CEF91E0309385002093840096BBD3
:107E4000B09BFECF1D9AA8958150A9F7CC24DD24C4
:107E500088248394B5E0AB2EA1E19A2EF3E0BF2EE7
:107E6000A2D0813461F49FD0082FAFD0023811F036
:107E7000013811F484E001C083E08DD089C08234E0
:107E800011F484E103C0853419F485E0A6D080C0E4
:107E9000853579F488D0E82EFF2485D0082F10E0AE
:107EA000102F00270E291F29000F111F8ED06801E7
:107EB0006FC0863521F484E090D080E0DECF843638
:107EC00009F040C070D06FD0082F6DD080E0C81688
:107ED00080E7D80618F4F601B7BEE895C0E0D1E017
:107EE00062D089930C17E1F7F0E0CF16F0E7DF06D8
:107EF00018F0F601B7BEE89568D007B600FCFDCFD4
:107F0000A601A0E0B1E02C9130E011968C91119780
:107F100090E0982F8827822B932B1296FA010C0160
:107F200087BEE89511244E5F5F4FF1E0A038BF0790
:107F300051F7F601A7BEE89507B600FCFDCF97BE46
:107F4000E89526C08437B1F42ED02DD0F82E2BD052
:107F50003CD0F601EF2C8F010F5F1F4F84911BD097
:107F6000EA94F801C1F70894C11CD11CFA94CF0C13
:107F7000D11C0EC0853739F428D08EE10CD085E9AC
:107F80000AD08FE07ACF813511F488E018D01DD067
:107F900080E101D065CF982F8091C00085FFFCCF94
:107FA0009093C60008958091C00087FFFCCF809118
:107FB000C00084FD01C0A8958091C6000895E0E648
:107FC000F0E098E1908380830895EDDF803219F02E
:107FD00088E0F5DFFFCF84E1DECF1F93182FE3DFCA
:107FE0001150E9F7F2DF1F91089580E0E8DFEE27F6
:047FF000FF270994CA
:027FFE00040479
:00000001FF
