:020000040000FA
:100000000C94CC000C94F4000C94F4000C94F400C8
:100010000C94F4000C94F4000C94F4000C94FD0780
:100020000C94B1080C94F4000C94F4000C94F400BB
:100030000C94F4000C94F4000C94F4000C94F40070
:100040000C94B3070C94F4000C947F080C9459089A
:100050000C94F4000C94F4000C94F4000C94F40050
:100060000C94F4000C94F40018002860095802B0B5
:1000700004580258025802102D00000006002628DD
:10008000236810F4012C06F4012602806E002D076F
:10009000050026E02070100E022A060E020E020055
:1000A00041000000140026801180113002900630BB
:1000B000023002006E0000001E002638081C040EEC
:1000C000022A060E020E0200320000001D00262247
:1000D0000B220BEE026608EE02EE02806E000000BC
:1000E0001A0026F603BC050802BC050802D401006C
:1000F0004B0000001C00261F015D033E023E021F54
:10010000015D03A06E00000004002604010C03043E
:10011000011C0704010C03006E0000000C00258088
:100120000DC006B0011005B001B001008200000052
:1001300008002600238011300290063002300200B1
:100140006E002D0700000000240027002A00000098
:100150000008000201000003040700000000000086
:10016000000000000000250028002B000204040409
:100170000404040404020202020202030303030350
:10018000030102040810204080010204081020012D
:10019000020408102000A10911241FBECFEFD8E0EF
:1001A000DEBFCDBF12E0A0E0B1E0E8E4F4E302C0BE
:1001B00005900D92A230B107D9F724E0A2E0B2E099
:1001C00001C01D92A73FB207E1F710E0CCECD0E0F0
:1001D00004C02197FE010E941C1ACB3CD107C9F72D
:1001E0000E94E7090C94221A0C94000082E080938C
:1001F000B0008093B10084E68093B3008093B40094
:100200001092B2008091E703833011F41092E7035B
:1002100084E08093700008952091E8043091E9040F
:100220002817390728F48091E60481608093E6045A
:10023000089590E0FC01E25BFE4F2491FC01EF5732
:10024000FE4F3491FC01E359FE4FE491EE23C9F0D7
:10025000222339F0233001F1A8F4213019F12230A2
:1002600029F1F0E0EE0FFF1FEE59FE4FA591B4917A
:100270008FB7F894EC91611126C030953E233C93E2
:100280008FBF08952730A9F02830C9F0243049F7EE
:10029000809180008F7D03C0809180008F77809354
:1002A0008000DFCF84B58F7784BDDBCF84B58F7DB1
:1002B000FBCF8091B0008F778093B000D2CF809138
:1002C000B0008F7DF9CF3E2BDACFCF93DF9390E054
:1002D000FC01EF57FE4F249183599E4FFC018491FE
:1002E0008823D1F090E0880F991FFC01EC5BFE4F52
:1002F000A591B491FC01EE59FE4FC591D4916111C5
:100300000EC09FB7F8948C91E22FE0958E238C93CA
:100310002881E223E8839FBFDF91CF9108958FB7B3
:10032000F894EC91E22BEC938FBFF6CF4F925F9253
:100330006F927F928F929F92AF92BF92CF92DF92F5
:10034000EF92FF920F931F93CF93DF9300D000D0D3
:100350001F92CDB7DEB78C012A013B0180911801B5
:100360008830C9F08F3F09F47FC00F900F900F9035
:100370000F900F90DF91CF911F910F91FF90EF9011
:10038000DF90CF90BF90AF909F908F907F906F90B5
:100390005F904F900895ECE6F1E084918D8387FDA6
:1003A000E4CF61E088E00E9465018D81882321F01F
:1003B0009D81923009F05CC14801B12CA12C60E014
:1003C00072E18AE790E0A50198010E944119298312
:1003D0003A834B835C8369017A0181E0C81AD108B2
:1003E000E108F1089FEFC916D104E104F10409F016
:1003F0000CF413C160E472E48FE090E0A501980171
:100400000E94411969017A0181E0C81AD108E10806
:10041000F1089D81923009F098C08FEFC816D10481
:10042000E104F10409F00CF4DDC160E970ED83E052
:1004300090E0A50198010E94411969017A0191E0BB
:10044000C91AD108E108F1088FEFC816D104E104F8
:10045000F10411F00CF0A3C183E09091B100987FFA
:10046000892B8093B100E1C088E080931801ECE60D
:10047000F1E094919D839F3F09F477CF913029F16A
:1004800058F0923009F43FC08D8187FD6ECF61E056
:1004900088E00E9465018CCF14BC15BC84B58260D5
:1004A00084BD85B5816085BDE5E7F1E0E491F0E0CC
:1004B000EE0FFF1FEE59FE4F85919491E9E8F1E0B0
:1004C000E491E09324021D826CCF10928000109280
:1004D00081008091810088608093810080918100FB
:1004E000816080938100E5E7F1E0E491F0E0EE0FB8
:1004F000FF1FEE59FE4F85919491E9E8F1E0E491F8
:10050000E09323024ECF1092B0001092B100809180
:10051000B00082608093B0008091B10081608093D0
:10052000B100E5E7F1E0E491F0E0EE0FFF1FEE59D6
:10053000FE4F859194919093220280932102E9E8E5
:10054000F1E0E491E09320022CCF9FEFC916D10493
:10055000E104F10409F00CF489C068E478EE81E06C
:1005600090E0A50198010E94411969017A0181E09A
:10057000C81AD108E108F1089D81992309F428C11E
:100580009FEFC916D104E104F10409F00CF41EC177
:1005900062E17AE780E090E0A50194010E944119B0
:1005A00069017A0181E0C81AD108E108F1089D814A
:1005B000992309F4EBC08FEFC816D104E104F104CC
:1005C00011F008F0BFC086E048CF64E274EF80E02D
:1005D00090E0A50194010E94411969017A0181E02E
:1005E000C81AD108E108F10885E09FEFC916D104C7
:1005F000E104F10409F008F430CF62E17AE780E029
:1006000090E0A50194010E94411969017A0191E0ED
:10061000C91AD108E108F108CECF81E09D8191117E
:100620001CCF95B5987F892B85BD2FEF3FEFA90192
:10063000411451046104710409F043C09D8191305B
:1006400009F45EC0923009F46DC091118ECEC7BC22
:1006500020932D0230932E0240932F0250933002AC
:1006600080916E00826080936E007FCE82E0D6CF54
:10067000B12CA12C60E072E18AE790E0A50198011D
:100680000E94411969017A0181E0C81AD108E10884
:10069000F108C114D10491E0E906F10404F591E0F8
:1006A0008D81813011F680918100887F892B809324
:1006B00081002FEF3FEFA90141145104610471043F
:1006C000F9F0D801AA0FBB1FA30192010E94601983
:1006D00028EE33E040E050E00E941F19AFCF68E4FD
:1006E00078EE81E090E0A50198010E94411969012E
:1006F0007A0181E0C81AD108E108F10893E0D0CF6F
:10070000D0928900C09288002093290230932A0257
:1007100040932B0250932C0280916F008260809353
:100720006F0023CEC092B30020932502309326029F
:10073000409327025093280280917000826080933A
:10074000700013CEC980DA80EB80FC809AE0F594CB
:10075000E794D794C7949A95D1F791E0C91AD10834
:10076000E108F10887E079CEC980DA80EB80FC806F
:100770008AE0F594E794D794C7948A95D1F791E0ED
:10078000C91AD108E108F10885E04BCF8FEFC816F0
:10079000D104E104F10409F038F784E042CF68E4C1
:1007A00078EE81E090E0A50198010E94411969016D
:1007B0007A0191E0C91AD108E108F1088FEFC81653
:1007C000D104E104F10411F00CF0FFCE84E045CE39
:1007D0008FEFC816D104E104F10411F00CF0D8CE6B
:1007E00083E01FCF82E039CE3FB7F89480911C029E
:1007F00090911D02A0911E02B0911F0226B5A89BE8
:1008000005C02F3F19F00196A11DB11D3FBFBA2FA2
:10081000A92F982F8827BC01CD01620F711D811D62
:10082000911D42E0660F771F881F991F4A95D1F7E7
:1008300008958F929F92AF92BF92CF92DF92EF92E4
:10084000FF926B017C010E94F4034B015C01C11417
:10085000D104E104F104B9F00E94F40368197909A4
:100860008A099B09683E73408105910580F321E068
:10087000C21AD108E108F10888EE880E83E0981EBC
:10088000A11CB11CE4CFFF90EF90DF90CF90BF9000
:10089000AF909F908F9008952FB7F89460911802B1
:1008A0007091190280911A0290911B022FBF089536
:1008B0009091180189130BC0ECE6F1E0E4919FEFF1
:1008C00090931801E13049F028F0E23061F060E0E7
:1008D0000C94190110926E00FACF90916F009D7FD9
:1008E00090936F00F4CF909170009D7F9093700073
:1008F00091E09093B0009091B100987F94609093B4
:10090000B1001092B300E3CFAF92BF92CF92DF92CB
:10091000EF92FF920F931F93CF93DF936C017B01B4
:100920008B01040F151FEB015E01AE18BF08C01745
:10093000D10759F06991D601ED91FC910190F081B8
:10094000E02DC6010995892B79F7C501DF91CF917B
:100950001F910F91FF90EF90DF90CF90BF90AF90DD
:100960000895FC01538D448D252F30E0842F90E0B5
:10097000821B930B541710F0CF960895019708959A
:10098000FC01918D828D981761F0A28DAE0FBF2F63
:10099000B11D5D968C91928D9F5F9F73928F90E0B9
:1009A00008958FEF9FEF0895FC01918D828D981728
:1009B00031F0828DE80FF11D858D90E008958FEF65
:1009C0009FEF0895FC01918D228D892F90E0805C2E
:1009D0009F4F821B91098F739927089587E392E0B7
:1009E0000E94E20421E0892B09F420E0822F08957F
:1009F00080E090E0892B29F00E94EE0481110C9494
:100A000000000895FC01A48DA80FB92FB11DA35AB1
:100A1000BF4F2C91848D90E001968F739927848F1E
:100A2000A689B7892C93A089B1898C918370806441
:100A30008C93938D848D981306C00288F389E02DE2
:100A400080818F7D80830895EF92FF920F931F9393
:100A5000CF93DF93EC0181E0888F9B8D8C8D981371
:100A60001AC0E889F989808185FF15C09FB7F8947D
:100A7000EE89FF896083E889F989808183708064C9
:100A800080839FBF81E090E0DF91CF911F910F9114
:100A9000FF90EF900895F62E0B8D10E00F5F1F4F23
:100AA0000F731127E02E8C8D8E110CC00FB607FC32
:100AB000FACFE889F989808185FFF5CFCE010E94C0
:100AC0000205F1CFEB8DEC0FFD2FF11DE35AFF4F27
:100AD000F0829FB7F8940B8FEA89FB89808180624E
:100AE000CFCFCF93DF93EC01888D8823B9F0AA890B
:100AF000BB89E889F9898C9185FD03C0808186FDD9
:100B00000DC00FB607FCF7CF8C9185FFF2CF808127
:100B100085FFEDCFCE010E940205E9CFDF91CF9195
:100B2000089522E3FC012E9FC0012F9F900D1124F8
:100B3000480F591F7695679576956795CB01880F75
:100B4000991F860F971F8417950750F485E0869F9D
:100B50009001879F300D112481E02417350708F498
:100B600080E008954CEE5FEF0C9491054F925F92F8
:100B70006F927F929F92AF92BF92CF92DF92EF924D
:100B8000FF920F931F93CF93DF93182F5A01922E4A
:100B9000C62FD0E0CC50DC4F412C512C3201439475
:100BA000C12CD12C7601112301F19920B1F088815B
:100BB000B50190E00E94B205002379F1CC0CDD1C58
:100BC000EE1CFF1C882311F06894C0F8440C551CDF
:100BD000661C771C11502296E6CF898144E150E0D3
:100BE000B50190E00E949105E7CFC092C404D09275
:100BF000C504E092C604F092C704DF91CF911F9123
:100C00000F91FF90EF90DF90CF90BF90AF909F90AB
:100C10007F906F905F904F9008958823B9F2C42819
:100C2000D528E628F728D2CFCF93DF93EC01FC013B
:100C30003396659174918091F50390E00E94B2051E
:100C4000882369F0FE013596659174918091F603D1
:100C500044E150E090E0DF91CF910C94910580E069
:100C6000DF91CF91089522E3289FA001299F500D85
:100C7000112476956795769567959B01220F331F12
:100C8000260F371F4217530750F085E0869F9001CB
:100C9000879F300D112481E02417350708F480E088
:100CA0000895BF92CF92DF92EF92FF920F931F931E
:100CB000CF93DF93109136028091E704B12C18177F
:100CC000A0F5812F8170B82E0091350201111EC050
:100CD000E12FF0E0E951FC4FE584F12CCCEEDFEFA1
:100CE000882311F0C4E1D0E0C0903302D0903402E8
:100CF000CC0DDD1DBE01C7010E943306882301F122
:100D000081E090E090933202809331020F5F009374
:100D1000350280913102909132020817190628F0AD
:100D2000109235021F5F109336028B2DDF91CF9109
:100D30001F910F91FF90EF90DF90CF90BF9008959B
:100D4000CC0DDD1DBE01C7010E943306882319F0BA
:100D500082E090E0D7CFB6016C0F7D1FC7010E94E3
:100D60003306882319F083E090E0CCCFBB24BA94FB
:100D7000DCCF8091F504811102C02D98089560E0C8
:100D80000C941901882349F08091F504811102C067
:100D90002D9A089561E00C9419010C94B9068F9274
:100DA0009F92AF92BF92CF92DF92EF92FF921F93EA
:100DB000CF93DF93EC010E94F4036B017C014B01A4
:100DC0005C0188E0880E911CA11CB11C10E0F89415
:100DD00061E08091E2030E9419018091E503909106
:100DE000E6038230910538F0880F991F880F991F0C
:100DF00005970197F1F760E08091E2030E941901E5
:100E00007894111103C081E00E94C2068091E3032F
:100E10009091E403C80ED91EE11CF11CF8940E94C5
:100E2000F4039B01281939092C173D0778F00E941B
:100E3000B9067894DF91CF911F91FF90EF90DF90EA
:100E4000CF90BF90AF909F908F90089511E06C1558
:100E50007D058E059F0518F3BACFCF92DF92EF92F2
:100E6000FF928AE190E09093E4038093E30385E0AE
:100E700090E09093E6038093E50361E08091E203C4
:100E80000E94650180E093E20E94CF060E94F40375
:100E90006B017C0124E0C21AD108E108F1080E942C
:100EA000F4036C197D098E099F09603C7840810527
:100EB0009105A8F380E392E0FF90EF90DF90CF9050
:100EC0000C94CF06FF920F931F93CF93DF93CDB770
:100ED000DEB764970FB6F894DEBF0FBECDBF162FF6
:100EE000F42E44E150E0BC01CE0101960E94E717C8
:100EF0000889802F80714885598504FD02C04A8584
:100F00005B85001F0027001F21E0811101C020E048
:100F10006F2D812F0E94B60564960FB6F894DEBF40
:100F20000FBECDBFDF91CF911F910F91FF9008951C
:100F3000FC0101900020E9F73197AF01481B590BE4
:100F4000BC0187E392E00C948404CF93DF930E946A
:100F50009807EC0183E391E00E9498078C0F9D1F96
:100F6000DF91CF9108951F920F920FB60F92112427
:100F70002F933F938F939F93AF93BF9380911802CA
:100F800090911902A0911A02B0911B0230911702A0
:100F900023E0230F2D3758F50196A11DB11D209395
:100FA00017028093180290931902A0931A02B0932B
:100FB0001B0280911C0290911D02A0911E02B09113
:100FC0001F020196A11DB11D80931C0290931D026A
:100FD000A0931E02B0931F02BF91AF919F918F917A
:100FE0003F912F910F900FBE0F901F90189526E8FC
:100FF000230F0296A11DB11DD2CF1F920F920FB6E3
:101000000F9211242F933F934F935F936F937F938E
:101010008F939F93AF93BF93EF93FF93809125029C
:1010200090912602A0912702B0912802892B8A2B49
:101030008B2BD1F190912002E0912102F0912202BC
:101040008081892780838091250290912602A0913A
:101050002702B0912802181619061A061B069CF4DE
:101060008091250290912602A0912702B09128023A
:101070000197A109B1098093250290932602A093BC
:101080002702B0932802FF91EF91BF91AF919F91FA
:101090008F917F916F915F914F913F912F910F9021
:1010A0000FBE0F901F901895809118010E94580450
:1010B000EACF1F920F920FB60F9211242F933F93F6
:1010C0004F935F936F937F938F939F93AF93BF9350
:1010D000EF93FF9387E392E00E940205FF91EF9167
:1010E000BF91AF919F918F917F916F915F914F9140
:1010F0003F912F910F900FBE0F901F9018951F9248
:101100000F920FB60F9211242F938F939F93EF930B
:10111000FF93E0914702F09148028081E0914D02F7
:10112000F0914E0282FD1BC09081809150028F5F32
:101130008F7320915102821741F0E0915002F0E04C
:10114000E95CFD4F958F80935002FF91EF919F9145
:101150008F912F910F900FBE0F901F901895808147
:10116000F4CF1F920F920FB60F9211242F933F933B
:101170004F935F936F937F938F939F93AF93BF939F
:10118000CF93EF93FF93E091E903F091EA03C081DD
:101190008091EB03C8238091EC039091ED032091A3
:1011A000EC033091ED032F3F3F4F29F001969093D0
:1011B000ED038093EC032091E703211115C0C111C9
:1011C0004BC0813A910558F01092F0039093F303CD
:1011D0008093F20381E08093F1038093E703109200
:1011E000ED031092EC0338C0213099F4CC23A1F127
:1011F000E091F1032E0F2093F103F0E0E951FC4F51
:101200008F3F910519F010F08FEF90E0858782E015
:10121000E4CF223009F047C0E091F103813A910513
:1012200010F4E73CA0F1E83C18F081E08093F00373
:101230008091F2039091F3039093E9048093E80482
:10124000E093E70483E08093E703E091EE03F091FD
:10125000EF03309709F009958091F604882329F06F
:1012600081E0C11180E00E94C206FF91EF91CF9111
:10127000BF91AF919F918F917F916F915F914F91AE
:101280003F912F910F900FBE0F901F901895C11195
:10129000E3CF91E09E0F9093F103F0E0E951FC4F12
:1012A000858781E09ACF2330B9F6C111D5CF97CF8A
:1012B000DF92EF92FF920F931F93CF93DF93EC0196
:1012C000D62E8A017901F0E090E080E030E0E0E0A5
:1012D000DE01AE0FB11D2C91FF5F222339F0320FDA
:1012E0002E9F800D911D11241C92F0E03323B9F044
:1012F000DE1611F0F23098F0232F2695820F911D03
:10130000632F70E00E94F419DE01A60FB11D3C931B
:10131000D8013C9131110FC06C9390E080E0EF5FF9
:10132000DE16B0F681E0DF91CF911F910F91FF9013
:10133000EF90DF900895D7013C91332369F380E06B
:10134000F2CFE7E3F2E01382128288EE93E0A0E0AE
:10135000B0E084839583A683B78385E291E091838F
:10136000808385EC90E09587848784EC90E0978774
:10137000868780EC90E0918B808B81EC90E0938B62
:10138000828B82EC90E0958B848B86EC90E0978B3F
:10139000868B118E128E138E148E1092F504E7EE4A
:1013A000F3E0118281E0848389E290E09383828379
:1013B00050981092E203E4EDF2E08BE0818388E044
:1013C000848383E290E09383828323980895CF936C
:1013D000DF93CDB7DEB7EA970FB6F894DEBF0FBE46
:1013E000CDBF789484B5826084BD84B5816084BDAE
:1013F00085B5826085BD85B5816085BD80916E00B3
:10140000816080936E0010928100809181008260E3
:101410008093810080918100816080938100809120
:1014200080008160809380008091B100846080930F
:10143000B1008091B00081608093B00080917A000B
:10144000846080937A0080917A00826080937A0031
:1014500080917A00816080937A0080917A00806820
:1014600080937A001092C10061E086E00E946501DD
:1014700061E087E00E94650161E084E00E9465010F
:1014800061E085E00E946501E0914702F091480229
:1014900082E08083E0914302F09144021082E09167
:1014A0004502F091460280E1808310924F02E09164
:1014B0004B02F0914C0286E08083E0914902F0916A
:1014C0004A02808180618083E0914902F0914A0262
:1014D000808188608083E0914902F0914A02808196
:1014E00080688083E0914902F0914A0280818F7D7B
:1014F000808386E391E00E94A5078BE08093E80358
:1015000088E08093EB0383E290E09093EA0380937A
:10151000E903239881E08093F6041092F5040E9479
:10152000F6008EE090E09093100280930F0260E04E
:101530000E9465018091E703833009F073C28091B6
:10154000F003882309F465C080E48093E6041092D8
:10155000BD041092BC041092C1041092C0041092F9
:10156000BF041092BE041092C4041092C5041092DD
:10157000C6041092C7041092E5041092E40480910E
:10158000E60486FDC5C11091E704812F8F7B84306E
:1015900009F0C1C08091F50360E073E290E00E9421
:1015A000B205882309F444C18091F60390E044E138
:1015B00050E0143009F048C060EC78E00E949105DA
:1015C000882309F435C18091F70360E372E090E06D
:1015D0000E94B205882309F42BC181E08093E604C0
:1015E0008091EC049091ED049093BF048093BE042D
:1015F0008091EE049091EF049093C1048093C00415
:101600008091EA049091EB049093BD048093BC0414
:101610007FC11092E6048091BC049091BD04909328
:10162000EB048093EA048091C0049091C1049093EC
:10163000EF048093EE048091BE049091BF049093D8
:10164000ED048093EC0483CF60E871E10E94910582
:10165000882309F4EDC043E060E280E391E00E945A
:1016600062072091C4049091C5046091C6048091E2
:10167000C704462F50E05093C1044093C004422F4A
:10168000592F4E3E37E8530719F523E030E03093E9
:10169000BD042093BC0490E09093BF048093BE04EB
:1016A00080E290E09093E5048093E4048AE795E07B
:1016B0000E940C018091E60480FF2EC129E030E0F9
:1016C0003093BD042093BC0480628093E60420C163
:1016D0009095291310C030E03093BF042093BE04CE
:1016E000982F909569130CC088E090E09093BD040A
:1016F0008093BC04D5CF5093BF044093BE04F0CF79
:101700002AE030E03093BD042093BC046093C00411
:101710008093C104C5CF143609F08AC08CE191E0F2
:101720000E941406882309F483C043E060E18CE141
:1017300091E00E946207D090C4040D2D1091C50461
:10174000FBE0EF2EF12C023040E21407F9F0EEE05E
:10175000EE2EF12C0A3A5AE51507C1F07DE0E72E8E
:10176000F12C043582E3180789F06FE0E62EF12CA6
:10177000033091E0190751F0A0E1EA2EF12C033279
:10178000ABEC1A0719F05CE0E52EF12CD1268D2D7B
:1017900082958F70D82643E260E28CE191E00E944E
:1017A00062078091C4049091C504A091C604B091D1
:1017B000C7049C0144E0369527954A95E1F730939C
:1017C000BF042093BE042A2F30E03093C10420933D
:1017D000C004282F2A2729273D2D3F70482F4F70FE
:1017E000341719F034E03093E604ECE0EE16F1041F
:1017F00049F43091E60430613093E6041093C30459
:101800000093C2042B1729F08091E6048460809332
:10181000E60480E390E09093E5048093E404F09282
:10182000BD04E092BC048AE397E00E940C0170C002
:101830008091E704803209F0D2C141E06FE088E096
:1018400091E00E9462078091130464E071E090E0EF
:101850000E94B205882309F4C2C18091C40490910A
:10186000C504A091C604B091C7049C012F71332711
:101870003093BF042093BE0405E0B695A7959795D5
:1018800087950A95D1F7392F3370AC0155275093BE
:10189000C1044093C0044091E8045091E9044536E6
:1018A000544008F099C12091E60422602093E60498
:1018B0002091F4042F5F2093F40420FF19C02130FD
:1018C00019F021E02093E6043091EE044091EF04FA
:1018D000282F2095231729F02091E60424602093D7
:1018E000E6043093C0044093C104392F309533701F
:1018F00087E190E0311102C084E090E09093BD0454
:101900008093BC048FE090E09093E5048093E4041E
:101910008091E60480FD80C08091BC049091BD045C
:10192000892B09F479C0C090C404D090C504E0901C
:10193000C604F090C704C114D104E104F10409F411
:101940006BC08CE391E00E94980719A29701860171
:10195000CE018196B901A8014F70552766277727D8
:10196000A4E03695279517950795AA95D1F74A30A3
:101970000CF0F0C6405DFC014293CF01011511054A
:101980002105310539F7EF2B11F00E94980783E309
:1019900091E00E94980784E090E0F7E0CF16DF0620
:1019A000F4E0EF06FBEFFF0699F185E090E027E019
:1019B000C216D20625E0E2062AEFF20649F186E0D9
:1019C00090E037E0C316D30636E0E30639EFF306BE
:1019D000F9F087E090E047E0C416D40648E0E4065A
:1019E00047EFF406A9F088E090E057E0C516D50669
:1019F00059E0E50656EFF50659F087E0C816D80617
:101A00008AE0E80685EFF80609F0A6C68EE090E0C9
:101A100090931602809315028091E703833011F4AE
:101A20001092E70380910F028E3008F08E5087707D
:101A3000806480937C0080917A00806480937A0037
:101A400080917A0086FDFCCF6091780070917900DA
:101A5000072E000C880B990B0E94F2176B017C017A
:101A600024EA30E74DE75FE36091140170911501BE
:101A700080911601909117010E9451184B015C0151
:101A80002AE037ED43E25CE3C701B6010E9451183A
:101A90009B01AC01C501B4010E9483199B01AC01FB
:101AA00020931401309315014093160150931701B0
:101AB000C701B6010E9482194B015C01E894B7F896
:101AC00023E333E343E75FE360910B0270910C0281
:101AD00080910D0290910E020E9451186B017C01C1
:101AE0002DEC3CEC4CE45DE3C501B4010E945118BF
:101AF0009B01AC01C701B6010E9483192B013C0177
:101B000040920B0250920C0260920D0270920E02F3
:101B10000E944C046B017C0120E030E040EA52E47A
:101B2000C301B2010E9483199B01AC01C501B4013C
:101B30000E94EF19181664F580910702909108022F
:101B4000A0910902B0910A02A7019601281B390B46
:101B50004A0B5B0BDA01C90189379105A105B10573
:101B6000B8F080910602C0920702D0920802E0927B
:101B70000902F0920A02811106C681E080930602F2
:101B8000C0920202D0920302E0920402F092050297
:101B900080910602882309F418C680910202909170
:101BA0000302A0910402B0910502C81AD90AEA0AF8
:101BB000FB0A41E9C41641E0D406E104F10408F44B
:101BC00004C61092060284E090E09093160280937F
:101BD00015028BE591E0F7C51092F40489CE88E6F2
:101BE00090E00E941406882309F446C08091E7041F
:101BF0008A3129F08A3219F0803209F03DC090E034
:101C0000BC016150710977FDBC017595679543E092
:101C100088E690E00E9462078091C4049091C50418
:101C2000A091C604B091C7049C012F77332730934D
:101C3000C1042093C00417E0B695A79597958795A2
:101C40001A95D1F79093BF048093BE042091E704C6
:101C500030E0C901019797FDC9019595879590934B
:101C6000E5048093E40488E190E09093BD048093C0
:101C7000BC0480EE91E0D9CD81E08093360289E703
:101C800093E09093340280933302109235020E94C5
:101C90005106813009F063C0C12CD12C760110E0CF
:101CA0009091E704809136028917E0F40E94510672
:101CB000082F0E94510601110BC0813009F04FC05E
:101CC000CC0CDD1CEE1CFF1C6894C0F81F5FE8CF35
:101CD000013009F044C0811142C0CC0CDD1CEE1C67
:101CE000FF1CF4CF812F90E09093E5048093E404EF
:101CF000C092C404D092C504E092C604F092C70416
:101D00008C2D8F7390E09093C1048093C004960152
:101D100056E0369527955A95E1F72F713327309382
:101D2000BF042093BE04960122273071232B31F487
:101D3000805C9F4F9093C1048093C00480E880939F
:101D4000E604D3FE03C088E88093E60481E190E0D6
:101D50009093BD048093BC048FEC99E066CD809194
:101D6000F50368E67AE090E00E94B205882309F462
:101D700048C08091F60344E150E068E773E090E0EA
:101D80000E9491058823E9F183E0809336028CEB71
:101D900091E09093340280933302109235020E94B6
:101DA0005106813071F50E94510681112AC0C12C63
:101DB000D12C760110E09091E704809136028917CA
:101DC00008F076C00E945106B82E1330B1F00E9480
:101DD0005106082F133021F40E945106081311C038
:101DE00021E0B2125BC001110CC0CC0CDD1CEE1C5A
:101DF000FF1C6894C0F81F5FDECF0E945106B81622
:101E000031F3F090E7043CE3F31619F044E0F412E8
:101E100015C00091F50310E068E273E2C8010E946A
:101E2000B205811192C06CE175E2C8010E94B20551
:101E300068EB7BE007E010E081118BC082E2F816CE
:101E400009F4F6C094E2F91225C180E990E00E94FD
:101E50001406882309F41EC143E060E180E990E0A4
:101E60000E9462078091C4049091C504A091C604A9
:101E7000B091C704492F5A2F6B2F77275093C10475
:101E80004093C00499279093BF048093BE0480E1DF
:101E900090E09093E5048093E404F9C0B110B1CFD1
:101EA000013009F0AECFCC0CDD1CEE1CFF1CA3CF23
:101EB000812F90E09093E5048093E404C092C404E1
:101EC000D092C504E092C604F092C7042C2D30E0F5
:101ED0008D2D90E0133200F540E84093E6043093F6
:101EE000C1042093C0049093BF048093BE04E0FE1D
:101EF00003C088E88093E604153128F08091E60459
:101F000080618093E60482E190E09093BD04809329
:101F1000BC0483E79AE089CC40E94093E60430931F
:101F2000C1042093C0049093BF048093BE04C701F2
:101F30009F739093C3048093C204F7FE03C088E9A3
:101F40008093E60483E190E0E0CF68E670E106E08C
:101F500010E08091F60390E054E0F51215C044E1E2
:101F600050E060ED77E00E949105882309F492C06B
:101F70008091F70364EF71E090E00E94B20588233E
:101F800009F488C081E82ACB44E150E00E94910521
:101F9000882309F453CF43E06CE18CE790E00E9482
:101FA000620780E88093E6048091C4049091C504A0
:101FB000A091C604B091C7046C017D01F4E0F694D1
:101FC000E794D794C794FA95D1F7A601D092C104AB
:101FD000C092C0046C017D0124E1F694E794D7948B
:101FE000C7942A95D1F7D092BF04C092BE0424E0D2
:101FF00030E060E0742F7F70670FE4E056954795FE
:10200000EA95E1F721503109A9F786278F709927C2
:10201000AA27BB27892B8A2B8B2B19F084E8809366
:10202000E6041093BD040093BC048CE190E06CCCFA
:102030008091E8049091E9048C3E9C4508F068CCBE
:102040008091F5036EE072E090E00E94B205882373
:1020500009F45ECC809115046EE072E090E00E947D
:10206000B205882309F454CC81E08093E604809182
:10207000EC049091ED049093BF048093BE04809192
:10208000EE049091EF049093C1048093C00485E026
:1020900090E0BACA8091E704982F9F7D943419F09C
:1020A000863009F07DC084EA90E00E9414068823FF
:1020B00009F476C08091E7048630B1F481E2809320
:1020C000E6048091EC049091ED049093BF0480931A
:1020D000BE048091EE049091EF049093C10480932C
:1020E000C00485E190E090CA43E060E284EA90E0B9
:1020F0000E9462079091C4048091C5041091C604A7
:102100002091C7049093BE048093BF043091E704EC
:10211000022F0095343639F543E460E184EA90E01B
:102120000E9462078091C4049091C504101731F099
:102130009095981719F094E09093E604982F812FCA
:102140009093C1048093C00480E390E09093E504F1
:102150008093E40486E190E09093BD048093BC04F6
:102160008EEB9AE062CB101306C0412F50E05093E3
:10217000C1044093C00489130EC090E09093BF0443
:102180008093BE0480E290E09093E5048093E404A1
:1021900084E190E0E1CF1093C0042093C104F2CF1A
:1021A0008091E704843269F588EB90E00E94140680
:1021B000882339F143E060E188EB90E00E946207F8
:1021C0001091C4048091C5048095181719F084E01B
:1021D0008093E6048DE692E00E940C01812F90E04E
:1021E0009093C1048093C0041092BF041092BE0467
:1021F00080E190E09093E5048093E4048EE190E028
:1022000003CA8091E7048434C1F48CEC90E00E940E
:102210001406882391F043E060E28CEC90E00E9489
:10222000620780E88093E60480E290E09093E50402
:102230008093E4048DE190E0E7C98091F5038E3E40
:1022400008F069C08091F60344E150E062E074E078
:1022500090E00E949105882309F45DC08091E70415
:10226000843209F058C000910F01802F8071409195
:1022700007015091080104FD04C0409109015091EB
:102280000A01001F0027001F21E0811101C020E08A
:1022900063E080E10E94B60580E88093E604409107
:1022A000C4049091C504242F392F592F52955F7083
:1022B0009F7064E0369527956A95E1F72F704F700F
:1022C0008FE0852789278227481719F084E88093B3
:1022D000E6048091E6046091E8047091E904683FA7
:1022E000714118F482608093E6045093BE0410920A
:1022F000BF04E0E19E9FC0011124822B9093C10492
:102300008093C00480E190E09093E5048093E4041E
:102310008BE190E079C980EE90E00E94140688235A
:1023200071F18091E704843251F543E060E180EE81
:1023300090E00E9462078091170468E072E090E0EC
:102340000E94B2058823D9F08091C4049091C504FD
:1023500098279F3FA1F490E09093C1048093C0041C
:1023600080E190E09093E5048093E4048AE190E0BA
:102370009093BD048093BC0488ED94E056CA80918C
:10238000E704803709F04FC041E068E084EF90E057
:102390000E9462078091C4049091C504A091C60474
:1023A000B091C704892B8A2B8B2BE9F541E16FE1B2
:1023B00084EF90E00E946207C090C404D090C504EE
:1023C000E090C604F090C7044FE461E184EF90E030
:1023D0000E9462079091C5048091C60489279827BE
:1023E00089279093C1048093C004C092C404D09202
:1023F000C504E092C604F092C704D092BF04C09214
:10240000BE04F092C304E092C2048CE190E0909389
:10241000BD048093BC0488E390E09093E50480932E
:10242000E40480E852C98091E704823108F43DC198
:102430008E010F5F1F4F92E3D8011D929A95E9F725
:1024400043E060E08250990B242F30E028173907D1
:1024500094F429513C4FF9012585223308F025C118
:10246000F801E20FF11D30813F5F3083621708F4FD
:10247000622F4E5FE9CF1EAA1DAA9E012B5C3F4F23
:10248000AE014A5C5F4FC8010E945809882309F4D5
:102490000CC182E3D8011D928A95E9F72091E704E7
:1024A0002250330B44E060E0842F90E082179307C2
:1024B00094F489519C4FFC018585823308F0F5C066
:1024C000F801E80FF11D90819F5F9083681708F471
:1024D000682F4E5FE9CF1CAA1BAA9E012D5C3F4FBF
:1024E000AE014C5C5F4FC8010E945809882309F473
:1024F000DCC08091E70486951FEF180FEBA8EE2053
:1025000011F01EEF180F812F90E09093E504809357
:10251000E4041C01F1E02F1A310837FE04C01C014D
:102520002EE1220E311C95E0359427949A95E1F71F
:102530002FAACDA8C11003C0EE2009F4B6C04CA844
:1025400082E3489E20011124AEA8A89E50011124C8
:10255000C89E60011124E89E7001112403E0802EC2
:10256000912C66246394712C812F113208F080E243
:102570009BA9992309F47BC042E050E05093BD042D
:102580004093BC0400E020E0A701682D0E94B6053E
:102590008091C4049091C504A091C604B091C70471
:1025A00054E0959EF0011124EC52FB4F80839183FF
:1025B000A283B383E0E48E0E10529394FFA9F91521
:1025C00098F62091E8043091E904203D3740E8F482
:1025D000F101EE0FFF1FEE0FFF1FEC52FB4F0081CA
:1025E0001181228133814091F0045091F104609176
:1025F000F2047091F304041715072607370729F42E
:102600002091E60421602093E6048093F0049093E7
:10261000F104A093F204B093F3042091F50392E344
:10262000299F900111243093C9042093C8048091FC
:10263000F603899FC00111249093CB048093CA04B0
:10264000B092D104A092D0045092D3044092D2040C
:10265000C114D10409F1E114F10489F4D092CD043C
:10266000C092CC045092CF044092CE0451C97092D3
:10267000BD046092BC0400E021E0A60186CFF09288
:10268000CF04E092CE04B092CD04A092CC04D092BC
:10269000D104C092D0043CC9B092CD04A092CC0425
:1026A000F092CF04E092CE0433C9E091E704E63023
:1026B00008F42EC911E025EC3DE94CE151E8F0E0C9
:1026C0000AE0612F70E0CB0102968E179F077CF520
:1026D00089519C4FDC011D968C9169517C4FDB0127
:1026E0001D966C91809F7001112498E0699FD00124
:1026F0001124EA16FB0678F0609FB0011124A8E0CF
:102700008A9FC0011124B2E0FB2E6817790720F0E0
:10271000FF24F39401C0F12C63E971E080E091E0C3
:102720000E940F199B01AC012F251F5FCACF209378
:10273000C4043093C5044093C6045093C70480E298
:1027400090E09093E5048093E4041092BD0410920D
:10275000BC04DEC8495C0FC997E0C916D90690E6EB
:10276000E9069FE9F90619F48AE090E051C9A7E06B
:10277000CA16DA06A1E6EA06AEE9FA0609F04CC97D
:102780008BE090E045C98091020290910302A091F4
:102790000402B0910502A7019601281B390B4A0BD0
:1027A0005B0BDA01C90181399140A105B10508F03F
:1027B000E7C91092060285E090E09093160280939C
:1027C000150286E491E00E94A50780911502909180
:1027D0001602892B09F471C00E944C040091110269
:1027E000109112022091130230911402601B710BA0
:1027F000820B930B673971058105910508F45DC063
:102800000E944C0460931102709312028093130291
:1028100090931402E0911502F09116023497EB3078
:10282000F10508F046C0E95EFB4E0C941C1A221418
:102830006D14A8140D155D159E15C016D5165914E6
:102840005914F61580E791E00E94A50710927000D8
:1028500010E000E0F0EBEF2EF4E0FF2E40E050E05F
:10286000BA01C7010E94960166E070E080E090E046
:102870000E94190452E0E51AF10886E5E81682E0A4
:10288000F80661F788E00E9458040330110531F022
:102890006CEB72E080E090E00E9419040F5F1F4F24
:1028A00004301105B9F60E94F6008DE791E00E9410
:1028B000A507109216021092150280E090E0892B75
:1028C00011F40C949A0A0E94EE04882311F40C94DB
:1028D0009A0A0E9400000C949A0A88E891E00E94EB
:1028E000A507109270000E944C044B015C01E8EBBC
:1028F000CE2EEBE0DE2EE12CF12C0E944C04681968
:1029000079098A099B096835724081059105C0F4EF
:102910000E948F17A70196010E944119DC01CB018B
:102920008854944FAF4FBF4F40E050E0BA010E942F
:10293000960162E070E080E090E00E941904DDCF33
:1029400088E00E9458040E94F60085E991E0AFCF2C
:1029500080EA91E00E94A507109270000E944C044A
:102960006FAB78AF89AF9AAF0E944C042FA938ADF6
:1029700049AD5AAD621B730B840B950B6C3D7540D2
:102980008105910508F044C00E948F172B013C017E
:102990000E948F176B017C010E948F174B015C0115
:1029A000C701B6012BE030E040E050E00E94411941
:1029B0006B017C014AE0C40ED11CE11CF11CC30177
:1029C000B20125E130E040E050E00E944119DC0115
:1029D000CB010A97A109B10988589F4FB701A601F9
:1029E0000E949601C701B6010E94190488E00E9466
:1029F0005804C501B4012BE030E040E050E00E94F3
:102A000041196B5F7F4F8F4F9F4F0E941904ACCFCE
:102A10000E94F6008DEA91E04ACF88EB91E00E9497
:102A2000A507109270000E944C046B017C0108E025
:102A300017E04AE050E060E070E0C8010E949601B3
:102A400068E070E080E090E00E9419040E944C046D
:102A50006C197D098E099F09613F710581059105FA
:102A600030F4045C1F4F0C3959E0150711F700E6EC
:102A700019E04CE050E060E070E0C8010E9496016F
:102A800069E070E080E090E00E9419040E944C042C
:102A90006C197D098E099F09613F710581059105BA
:102AA00030F400551109003585E0180711F788E06A
:102AB0000E9458040E94F600FCCE80EC91E00E9437
:102AC000A507109270000AE010E058E0852E912CC6
:102AD00060EBC62E64E0D62E77E3272E312C0E94C1
:102AE00033175C010E943317B4010E94081A7C015D
:102AF000AFE0EA0EF11C27010F2C000C66087708E6
:102B0000C501B6010E94081AB301A2018C5C974F5F
:102B10000E949601C301B2010E94190488E00E943C
:102B20005804B1016E197F09072E000C880B990B10
:102B30000E9419040150110991F6BCCF8AEC91E072
:102B40000E94A507109270000E944C042B013C01CA
:102B50004AE0C42ED12C0FE010E00E944C0464190E
:102B6000750986099709603273408105910508F05F
:102B7000A1CF0E9433175C010E9433177C01C5016D
:102B8000B6010E94081A48E250E060E070E08A5BFB
:102B90009F4F0E94960168E270E080E090E00E9402
:102BA000190488E00E9458046AE070E080E090E038
:102BB0000E941904C701B8010E94081A42E350E0BC
:102BC00060E070E0865A9F4F0E94960162E370E0D9
:102BD00080E090E00E94190488E00E9458046FE0B1
:102BE00070E080E090E00E941904B7CF82ED91E0A0
:102BF0000E94A507109270000E944C046B017C019A
:102C00000E944C046C197D098E099F09603D774034
:102C10008105910508F0ACC008E512E00E948F170D
:102C200022E030E040E050E00E944119AA24A39441
:102C3000B12C672B682B692B19F4AA24AA94BA2CFF
:102C40000E948F1729E130E040E050E00E944119D6
:102C5000AB01BC01465F5F4F6F4F7F4FA49EC00129
:102C6000A59E900DB49E900D1124800F911F843667
:102C7000910514F484E690E04FE050E060E070E0ED
:102C80000E9496016CE070E080E090E00E941904E0
:102C90000E944C046C197D098E099F09613D7740A3
:102CA0008105910538F40C5E1F4F043526E01207AC
:102CB00009F0B4CF0E944C046C197D098E099F095C
:102CC000613D77408105910508F052C000E416E0AF
:102CD0000E948F1722E030E040E050E00E9441194E
:102CE000672B682B692B09F43FC0AA24A394B12C4D
:102CF0000E948F1729E130E040E050E00E94411926
:102D0000AB01BC01465F5F4F6F4F7F4FA49EC00178
:102D1000A59E900DB49E900D1124800F911F8436B6
:102D2000910514F484E690E042E150E060E070E048
:102D30000E9496016EE070E080E090E00E9419042D
:102D40000E944C046C197D098E099F09613D7740F2
:102D50008105910508F054CF0F501109033552E059
:102D6000150709F0B5CF4CCFAA24AA94BA2CC0CF2E
:102D700088E00E9458040E94F60084EE91E097CD0E
:102D800084EF91E00E94A50760E086E00E941901AF
:102D900061E087E00E94190160E084E00E9419016F
:102DA00061E085E00E94190184CD84EF91E00E94EA
:102DB000A50760E086E00E94190160E087E00E94BC
:102DC000190160E084E00E94190160E0EACF8F926F
:102DD0009F92AF92BF92CF92DF92EF92FF92CF93EA
:102DE000DF93EC01688179818A819B81611571058E
:102DF0008105910521F464E279ED8BE597E02DE101
:102E000033EF41E050E00E94411949015A019B0112
:102E1000AC01A7EAB1E40E9460196B017C01ACEE41
:102E2000B4EFA50194010E946E19DC01CB018C0D59
:102E30009D1DAE1DBF1DB7FF03C00197A109B0487E
:102E400088839983AA83BB839F77DF91CF91FF907B
:102E5000EF90DF90CF90BF90AF909F908F900895AC
:102E60000E94E716089589E191E00E94E71608950F
:102E7000B0E0A0E08093190190931A01A0931B0188
:102E8000B0931C0108958F929F92AF92BF92CF9200
:102E9000DF92EF92FF92CF93DF93EC01688179810B
:102EA0008A819B81611571058105910521F464E298
:102EB00079ED8BE597E02DE133EF41E050E00E94A2
:102EC000411949015A019B01AC01A7EAB1E40E94F2
:102ED00060196B017C01ACEEB4EFA50194010E9476
:102EE0006E19C60ED71EE81EF91EF7FE06C081E059
:102EF000C81AD108E10880E8F80AC882D982EA82B3
:102F0000FB82C701B6019F77DF91CF91FF90EF90D1
:102F1000DF90CF90BF90AF909F908F9008958F9249
:102F20009F92AF92BF92CF92DF92EF92FF92609109
:102F30001D0170911E0180911F019091200161156A
:102F400071058105910521F464E279ED8BE597E047
:102F50002DE133EF41E050E00E94411949015A014F
:102F60009B01AC01A7EAB1E40E9460196B017C01EE
:102F7000ACEEB4EFA50194010E946E19C60ED71EE7
:102F8000E81EF91EF7FE06C081E0C81AD108E10864
:102F900080E8F80AC0921D01D0921E01E0921F0144
:102FA000F0922001C701B6019F77FF90EF90DF906C
:102FB000CF90BF90AF909F908F90089560931D0128
:102FC00070931E0180931F01909320010895FB01CF
:102FD000DC0102C005900D9241505040D8F7089591
:102FE000E89409C097FB3EF49095809570956195A3
:102FF0007F4F8F4F9F4F9923A9F0F92F96E9BB2759
:103000009395F695879577956795B795F111F8CFD4
:10301000FAF4BB0F11F460FF1BC06F5F7F4F8F4F3F
:103020009F4F16C0882311F096E911C0772321F035
:103030009EE8872F762F05C0662371F096E8862FCD
:1030400070E060E02AF09A95660F771F881FDAF724
:10305000880F9695879597F90895990F0008550F51
:10306000AA0BE0E8FEEF16161706E807F907C0F00E
:1030700012161306E407F50798F0621B730B840B16
:10308000950B39F40A2661F0232B242B252B21F4F0
:1030900008950A2609F4A140A6958FEF811D811D90
:1030A00008950E9464180C94D5180E94C71838F02F
:1030B0000E94CE1820F0952311F00C94BE180C94A9
:1030C000C41811240C9409190E94E61870F3959FF6
:1030D000C1F3950F50E0551F629FF001729FBB270F
:1030E000F00DB11D639FAA27F00DB11DAA1F649FAB
:1030F0006627B00DA11D661F829F2227B00DA11D5E
:10310000621F739FB00DA11D621F839FA00D611DE3
:10311000221F749F3327A00D611D231F849F600D04
:10312000211D822F762F6A2F11249F5750409AF02D
:10313000F1F088234AF0EE0FFF1FBB1F661F771FB9
:10314000881F91505040A9F79E3F510580F00C9484
:10315000BE180C9409195F3FE4F3983ED4F38695AA
:1031600077956795B795F795E7959F5FC1F7FE2B24
:10317000880F911D9695879597F9089597F99F6700
:1031800080E870E060E008959FEF80EC08950024EF
:103190000A941616170618060906089500240A94BC
:1031A00012161306140605060895092E0394000C42
:1031B00011F4882352F0BB0F40F4BF2B11F460FFD1
:1031C00004C06F5F7F4F8F4F9F4F089557FD9058FA
:1031D000440F551F59F05F3F71F04795880F97FBDB
:1031E000991F61F09F3F79F0879508951216130695
:1031F0001406551FF2CF4695F1DF08C016161706C4
:103200001806991FF1CF86957105610508940895F8
:10321000E894BB2766277727CB0197F90895DB0150
:103220008F939F930E946019BF91AF91A29F800DD1
:10323000911DA39F900DB29F900D11240895A1E2BE
:103240001A2EAA1BBB1BFD010DC0AA1FBB1FEE1F20
:10325000FF1FA217B307E407F50720F0A21BB30B6B
:10326000E40BF50B661F771F881F991F1A9469F7E7
:1032700060957095809590959B01AC01BD01CF0143
:103280000895052E97FB1EF400940E94581957FDCF
:1032900007D00E941F1907FC03D04EF40C94581954
:1032A00050954095309521953F4F4F4F5F4F089572
:1032B00090958095709561957F4F8F4F9F4F0895A2
:1032C0000E947319A59F900DB49F900DA49F800D2F
:1032D000911D11240895B7FF0C9460190E94601984
:1032E000821B930B0895A29FB001B39FC001A39FBF
:1032F000700D811D1124911DB29F700D811D11242F
:10330000911D08955058BB27AA270E949A190C9422
:10331000D5180E94C71838F00E94CE1820F039F452
:103320009F3F19F426F40C94C4180EF4E095E7FBC3
:103330000C94BE18E92F0E94E61858F3BA176207DA
:1033400073078407950720F079F4A6F50C94081903
:103350000EF4E0950B2EBA2FA02D0B01B9019001B0
:103360000C01CA01A0011124FF27591B99F0593FF4
:1033700050F4503E68F11A16F040A22F232F342F3C
:103380004427585FF3CF469537952795A795F0408A
:103390005395C9F77EF41F16BA0B620B730B840B9F
:1033A000BAF09150A1F0FF0FBB1F661F771F881F57
:1033B000C2F70EC0BA0F621F731F841F48F48795AF
:1033C00077956795B795F7959E3F08F0B0CF9395A1
:1033D000880F08F09927EE0F9795879508950E941A
:1033E0002D1808F48FEF0895AA1BBB1B51E107C0ED
:1033F000AA1FBB1FA617B70710F0A61BB70B881F85
:10340000991F5A95A9F780959095BC01CD01089513
:1034100097FB072E16F4009407D077FD09D00E9481
:10342000F41907FC05D03EF4909581959F4F0895BF
:10343000709561957F4F0895EE0FFF1F0590F491F1
:10344000E02D0994F894FFCF1B00269E0002049EF5
:103450000029029E000701006E00000000000044E9
:10346000FF010000000100000000000000240584AE
:1034700004B1047105E204C004D4040D0A005374BD
:10348000617274004952207261773D307800436C5C
:1034900061703A20444F55424C45202D3E206869CA
:1034A000737300436C61703A2053494E474C45207A
:1034B0002D3E206D656F77006D656F77282920732D
:1034C00074617274006D656F77282920656E6400E1
:1034D0006869737328292073746172740068697352
:1034E00073282920656E6400707572722829207314
:1034F000746172740070757272282920656E6400A0
:103500006368697270282900636861747465722841
:10351000290067726F776C28290063617465727780
:1035200061756C282920737461727400636174651D
:10353000727761756C282920656E64006D6F766501
:0A35400020666F727761726421004B
:107E0000112484B714BE81FFF0D085E080938100F7
:107E100082E08093C00088E18093C10086E0809377
:107E2000C20080E18093C4008EE0C9D0259A86E02C
:107E300020E33CEF91E0309385002093840096BBD3
:107E4000B09BFECF1D9AA8958150A9F7CC24DD24C4
:107E500088248394B5E0AB2EA1E19A2EF3E0BF2EE7
:107E6000A2D0813461F49FD0082FAFD0023811F036
:107E7000013811F484E001C083E08DD089C08234E0
:107E800011F484E103C0853419F485E0A6D080C0E4
:107E9000853579F488D0E82EFF2485D0082F10E0AE
:107EA000102F00270E291F29000F111F8ED06801E7
:107EB0006FC0863521F484E090D080E0DECF843638
:107EC00009F040C070D06FD0082F6DD080E0C81688
:107ED00080E7D80618F4F601B7BEE895C0E0D1E017
:107EE00062D089930C17E1F7F0E0CF16F0E7DF06D8
:107EF00018F0F601B7BEE89568D007B600FCFDCFD4
:107F0000A601A0E0B1E02C9130E011968C91119780
:107F100090E0982F8827822B932B1296FA010C0160
:107F200087BEE89511244E5F5F4FF1E0A038BF0790
:107F300051F7F601A7BEE89507B600FCFDCF97BE46
:107F4000E89526C08437B1F42ED02DD0F82E2BD052
:107F50003CD0F601EF2C8F010F5F1F4F84911BD097
:107F6000EA94F801C1F70894C11CD11CFA94CF0C13
:107F7000D11C0EC0853739F428D08EE10CD085E9AC
:107F80000AD08FE07ACF813511F488E018D01DD067
:107F900080E101D065CF982F8091C00085FFFCCF94
:107FA0009093C60008958091C00087FFFCCF809118
:107FB000C00084FD01C0A8958091C6000895E0E648
:107FC000F0E098E1908380830895EDDF803219F02E
:107FD00088E0F5DFFFCF84E1DECF1F93182FE3DFCA
:107FE0001150E9F7F2DF1F91089580E0E8DFEE27F6
:047FF000FF270994CA
:027FFE00040479
:00000001FF
