:100000000C94CC000C94F4000C94F4000C94F400C8
:100010000C94F4000C94F4000C94F4000C948D07F0
:100020000C9441080C94F4000C94F4000C94F4002B
:100030000C94F4000C94F4000C94F4000C94F40070
:100040000C9443070C94F4000C940F080C94E907EB
:100050000C94F4000C94F4000C94F4000C94F40050
:100060000C94F4000C94F40018002860095802B0B5
:1000700004580258025802102D00000006002628DD
:10008000236810F4012C06F4012602806E00BD06E0
:10009000050026E02070100E022A060E020E020055
:1000A00041000000140026801180113002900630BB
:1000B000023002006E0000001E002638081C040EEC
:1000C000022A060E020E0200320000001D00262247
:1000D0000B220BEE026608EE02EE02806E000000BC
:1000E0001A0026F603BC050802BC050802D401006C
:1000F0004B0000001C00261F015D033E023E021F54
:10010000015D03A06E00000004002604010C03043E
:10011000011C0704010C03006E0000000C00258088
:100120000DC006B0011005B001B001008200000052
:1001300008002600238011300290063002300200B1
:100140006E00BD0600000000240027002A00000009
:100150000008000201000003040700000000000086
:10016000000000000000250028002B000204040409
:100170000404040404020202020202030303030350
:10018000030102040810204080010204081020012D
:10019000020408102000310911241FBECFEFD8E05F
:1001A000DEBFCDBF11E0A0E0B1E0ECE4FDE202C0B3
:1001B00005900D92AC39B107D9F724E0ACE9B1E074
:1001C00001C01D92A139B207E1F710E0CCECD0E0FC
:1001D00004C02197FE010E949E16CB3CD107C9F7AF
:1001E0000E9477090C94A4160C94000082E080937E
:1001F000B0008093B10084E68093B3008093B40094
:100200001092B20080918103833011F41092810327
:1002100084E08093700008952091820430918304DB
:100220002817390728F48091800481608093800426
:10023000089590E0FC01E25BFE4F2491FC01EF5732
:10024000FE4F3491FC01E359FE4FE491EE23C9F0D7
:10025000222339F0233001F1A8F4213019F12230A2
:1002600029F1F0E0EE0FFF1FEE59FE4FA591B4917A
:100270008FB7F894EC91611126C030953E233C93E2
:100280008FBF08952730A9F02830C9F0243049F7EE
:10029000809180008F7D03C0809180008F77809354
:1002A0008000DFCF84B58F7784BDDBCF84B58F7DB1
:1002B000FBCF8091B0008F778093B000D2CF809138
:1002C000B0008F7DF9CF3E2BDACFCF93DF9390E054
:1002D000FC01EF57FE4F249183599E4FFC018491FE
:1002E0008823D1F090E0880F991FFC01EC5BFE4F52
:1002F000A591B491FC01EE59FE4FC591D4916111C5
:100300000EC09FB7F8948C91E22FE0958E238C93CA
:100310002881E223E8839FBFDF91CF9108958FB7B3
:10032000F894EC91E22BEC938FBFF6CF8F929F92D3
:10033000AF92BF92CF92DF92EF92FF92CF936C0178
:1003400080911801883069F08F3F09F470C0CF9117
:10035000FF90EF90DF90CF90BF90AF909F908F90E5
:100360000895ECE6F1E0C491C7FDF1CF61E088E0CB
:100370000E946501CC2319F0C23009F022C1F12C92
:10038000E12C60E072E18AE790E0A70196010E940B
:10039000D71549015A01DA01C9010197A109B1092B
:1003A0008F3F9105A105B10509F00CF4EEC060E4A2
:1003B00072E48FE090E0A70196010E94D7152150CA
:1003C000310941095109C23009F0A0C082E02F3F34
:1003D00031054105510509F00CF488C160E970ED63
:1003E00083E090E0A70196010E94D71521503109C2
:1003F0004109510983E02F3F31054105510509F0BD
:100400000CF474C168E478EE81E090E0A7019601F5
:100410000E94D71521503109410951092F3F31055B
:100420004105510511F00CF08FC084E05FC188E0F8
:1004300080931801ECE6F1E0C491CF3F09F487CF37
:10044000C13021F150F0C23009F43EC0C7FD7FCF6A
:1004500061E088E00E9465018FCF14BC15BC84B5B3
:10046000826084BD85B5816085BDE5E7F1E0E491FA
:10047000F0E0EE0FFF1FEE59FE4F85919491E9E8F1
:10048000F1E0E491E093BE01C0E070CF10928000F3
:10049000109281008091810088608093810080911A
:1004A0008100816080938100E5E7F1E0E491F0E074
:1004B000EE0FFF1FEE59FE4F85919491E9E8F1E0B0
:1004C000E491E093BD0152CF1092B0001092B100C0
:1004D0008091B00082608093B0008091B100816013
:1004E0008093B100E5E7F1E0E491F0E0EE0FFF1F4B
:1004F000EE59FE4F859194919093BC018093BB017E
:10050000E9E8F1E0E491E093BA0130CF2F3F310503
:100510004105510509F00CF452C068E478EE81E021
:1005200090E0A70196010E94D71521503109410999
:100530005109CC2309F4AFC02F3F310541055105C6
:1005400011F00CF0B0C071CF64E274EF80E090E085
:10055000A70196010E94D71521503109410951097F
:1005600085E02F3F31054105510509F008F4BEC073
:1005700062E17AE780E090E0A70196010E94D7153A
:1005800021503109410951099CC09C0181E0C111F0
:10059000ADC095B5987F892B85BD27BD8FEF9FEFA7
:1005A000DC018093C7019093C801A093C901B09367
:1005B000CA0180916E00826080936E00C8CE82E096
:1005C000E6CFF12CE12C60E072E18AE790E0A70130
:1005D00096010E94D715215031094109510991E036
:1005E0002115310581E0480751056CF068E478EE8B
:1005F00081E090E0A70196010E94D71521503109B2
:100600004109510993E0C13009F076C08091810021
:10061000887F892B80938100309389002093880004
:100620008FEF9FEFDC018093C3019093C401A093EF
:10063000C501B093C60180916F00826080936F0006
:1006400086CE2093B3008FEF9FEFDC018093BF0134
:100650009093C001A093C101B093C201809170003A
:1006600082608093700073CE84E02F3F3105410596
:10067000510509F008F48DCF9AE0B594A7949794AA
:1006800087949A95D1F7A501940121503109410928
:10069000510985E07ECF83E02F3F310541055105AB
:1006A00009F00CF476CF62E17AE780E090E0A701F0
:1006B00096010E94D7152150310941095109CC23D7
:1006C00099F286E02F3F31054105510579F070F030
:1006D0008AE0B594A794979487948A95D1F7A50159
:1006E0009401215031094109510987E09091B100ED
:1006F000987F892B8093B100C13009F48DCFC2302F
:1007000009F49FCFC11123CE48CF3FB7F894809111
:10071000B6019091B701A091B801B091B90126B589
:10072000A89B05C02F3F19F00196A11DB11D3FBF29
:10073000BA2FA92F982F8827BC01CD01620F711DF8
:10074000811D911D42E0660F771F881F991F4A95F2
:10075000D1F708958F929F92AF92BF92CF92DF927E
:10076000EF92FF924B015C010E9485036B017C01BB
:100770000E9485036C197D098E099F09683E7340AC
:1007800081059105A8F321E0821A9108A108B1081A
:1007900088EEC80E83E0D81EE11CF11C8114910480
:1007A000A104B10429F7FF90EF90DF90CF90BF90A4
:1007B000AF909F908F9008952FB7F8946091B201F9
:1007C0007091B3018091B4019091B5012FBF08954C
:1007D0009091180189130BC0ECE6F1E0E4919FEFD2
:1007E00090931801E13049F028F0E23061F060E0C8
:1007F0000C94190110926E00FACF90916F009D7FBA
:1008000090936F00F4CF909170009D7F9093700053
:1008100091E09093B0009091B100987F9460909394
:10082000B1001092B300E3CFAF92BF92CF92DF92AC
:10083000EF92FF920F931F93CF93DF936C017B0195
:100840008B01040F151FEB015E01AE18BF08C01726
:10085000D10759F06991D601ED91FC910190F08199
:10086000E02DC6010995892B79F7C501DF91CF915C
:100870001F910F91FF90EF90DF90CF90BF90AF90BE
:100880000895FC01538D448D252F30E0842F90E096
:10089000821B930B541710F0CF960895019708957B
:1008A000FC01918D828D981761F0A28DAE0FBF2F44
:1008B000B11D5D968C91928D9F5F9F73928F90E09A
:1008C00008958FEF9FEF0895FC01918D828D981709
:1008D00031F0828DE80FF11D858D90E008958FEF46
:1008E0009FEF0895FC01918D228D892F90E0805C0F
:1008F0009F4F821B91098F739927089581ED91E095
:100900000E94720421E0892B09F420E0822F0895CF
:1009100080E090E0892B29F00E947E0481110C94E4
:1009200000000895FC01A48DA80FB92FB11DA35A92
:10093000BF4F2C91848D90E001968F739927848FFF
:10094000A689B7892C93A089B1898C918370806422
:100950008C93938D848D981306C00288F389E02DC3
:1009600080818F7D80830895EF92FF920F931F9374
:10097000CF93DF93EC0181E0888F9B8D8C8D981352
:100980001AC0E889F989808185FF15C09FB7F8945E
:10099000EE89FF896083E889F989808183708064AA
:1009A00080839FBF81E090E0DF91CF911F910F91F5
:1009B000FF90EF900895F62E0B8D10E00F5F1F4F04
:1009C0000F731127E02E8C8D8E110CC00FB607FC13
:1009D000FACFE889F989808185FFF5CFCE010E94A1
:1009E0009204F1CFEB8DEC0FFD2FF11DE35AFF4F79
:1009F000F0829FB7F8940B8FEA89FB89808180622F
:100A0000CFCFCF93DF93EC01888D8823B9F0AA89EB
:100A1000BB89E889F9898C9185FD03C0808186FDB9
:100A20000DC00FB607FCF7CF8C9185FFF2CF808108
:100A300085FFEDCFCE010E949204E9CFDF91CF91E7
:100A4000089522E3FC012E9FC0012F9F900D1124D9
:100A5000480F591F7695679576956795CB01880F56
:100A6000991F860F971F8417950750F485E0869F7E
:100A70009001879F300D112481E02417350708F479
:100A800080E008954CEE5FEF0C9421054F925F9249
:100A90006F927F929F92AF92BF92CF92DF92EF922E
:100AA000FF920F931F93CF93DF93182F5A01922E2B
:100AB000C62FD0E0C257DC4F412C512C3201439459
:100AC000C12CD12C7601112301F19920B1F088813C
:100AD000B50190E00E944205002379F1CC0CDD1CA9
:100AE000EE1CFF1C882311F06894C0F8440C551CC0
:100AF000661C771C11502296E6CF898144E150E0B4
:100B0000B50190E00E942105E7CFC0925E04D0922B
:100B10005F04E0926004F0926104DF91CF911F9135
:100B20000F91FF90EF90DF90CF90BF90AF909F908C
:100B30007F906F905F904F9008958823B9F2C428FA
:100B4000D528E628F728D2CFCF93DF93EC01FC011C
:100B500033966591749180918F0390E00E944205D5
:100B6000882369F0FE013596659174918091900318
:100B700044E150E090E0DF91CF910C94210580E0BA
:100B8000DF91CF91089522E3289FA001299F500D66
:100B9000112476956795769567959B01220F331FF3
:100BA000260F371F4217530750F085E0869F9001AC
:100BB000879F300D112481E02417350708F480E069
:100BC0000895BF92CF92DF92EF92FF920F931F93FF
:100BD000CF93DF931091D00180918104B12C18172D
:100BE000A0F5812F8170B82E0091CF0101111EC098
:100BF000E12FF0E0EF57FC4FE584F12CCCEEDFEF76
:100C0000882311F0C4E1D0E0C090CD01D090CE0196
:100C1000CC0DDD1DBE01C7010E94C305882301F173
:100C200081E090E09093CC018093CB010F5F009323
:100C3000CF018091CB019091CC010817190628F0C3
:100C40001092CF011F5F1093D0018B2DDF91CF91B8
:100C50001F910F91FF90EF90DF90CF90BF9008957C
:100C6000CC0DDD1DBE01C7010E94C305882319F00C
:100C700082E090E0D7CFB6016C0F7D1FC7010E94C4
:100C8000C305882319F083E090E0CCCFBB24BA944D
:100C9000DCCF80918F04811102C02D98089560E00F
:100CA0000C941901882349F080918F04811102C0AE
:100CB0002D9A089561E00C9419010C9449068F92C5
:100CC0009F92AF92BF92CF92DF92EF92FF921F93CB
:100CD000CF93DF93EC010E9485036B017C014B01F4
:100CE0005C0188E0880E911CA11CB11C10E0F894F6
:100CF00061E080917C030E94190180917F039091B3
:100D000080038230910538F0880F991F880F991F52
:100D100005970197F1F760E080917C030E9419012B
:100D20007894111103C081E00E94520680917D03E6
:100D300090917E03C80ED91EE11CF11CF8940E940C
:100D400085039B01281939092C173D0778F00E946B
:100D500049067894DF91CF911F91FF90EF90DF903B
:100D6000CF90BF90AF909F908F90089511E06C1539
:100D70007D058E059F0518F3BACFCF92DF92EF92D3
:100D8000FF928AE190E090937E0380937D0385E05B
:100D900090E09093800380937F0361E080917C03D7
:100DA0000E94650180E093E20E945F060E94850335
:100DB0006B017C0124E0C21AD108E108F1080E940D
:100DC00085036C197D098E099F09603C7840810577
:100DD0009105A8F380E392E0FF90EF90DF90CF9031
:100DE0000C945F06FF920F931F93CF93DF93CDB7C1
:100DF000DEB764970FB6F894DEBF0FBECDBF162FD7
:100E0000F42E44E150E0BC01CE0101960E947D1415
:100E10000889802F80714885598504FD02C04A8564
:100E20005B85001F0027001F21E0811101C020E029
:100E30006F2D812F0E94460564960FB6F894DEBF91
:100E40000FBECDBFDF91CF911F910F91FF900895FD
:100E5000FC0101900020E9F73197AF01481B590BC5
:100E6000BC0181ED91E00C941404CF93DF930E94B8
:100E70002807EC018FE291E00E9428078C0F9D1F4C
:100E8000DF91CF9108951F920F920FB60F92112408
:100E90002F933F938F939F93AF93BF938091B20112
:100EA0009091B301A091B401B091B5013091B1011D
:100EB00023E0230F2D3758F50196A11DB11D209376
:100EC000B1018093B2019093B301A093B401B093A8
:100ED000B5018091B6019091B701A091B801B09190
:100EE000B9010196A11DB11D8093B6019093B70180
:100EF000A093B801B093B901BF91AF919F918F9129
:100F00003F912F910F900FBE0F901F90189526E8DC
:100F1000230F0296A11DB11DD2CF1F920F920FB6C3
:100F20000F9211242F933F934F935F936F937F936F
:100F30008F939F93AF93BF93EF93FF938091BF01E4
:100F40009091C001A091C101B091C201892B8A2B5F
:100F50008B2BD1F19091BA01E091BB01F091BC01D2
:100F60008081892780838091BF019091C001A091E9
:100F7000C101B091C201181619061A061B069CF48D
:100F80008091BF019091C001A091C101B091C201B7
:100F90000197A109B1098093BF019093C001A0936B
:100FA000C101B093C201FF91EF91BF91AF919F91A9
:100FB0008F917F916F915F914F913F912F910F9002
:100FC0000FBE0F901F901895809118010E94E803A2
:100FD000EACF1F920F920FB60F9211242F933F93D7
:100FE0004F935F936F937F938F939F93AF93BF9331
:100FF000EF93FF9381ED91E00E949204FF91EF91B6
:10100000BF91AF919F918F917F916F915F914F9120
:101010003F912F910F900FBE0F901F9018951F9228
:101020000F920FB60F9211242F938F939F93EF93EC
:10103000FF93E091E101F091E2018081E091E7010D
:10104000F091E80182FD1BC090818091EA018F5FE1
:101050008F732091EB01821741F0E091EA01F0E0FB
:10106000EF52FE4F958F8093EA01FF91EF919F9190
:101070008F912F910F900FBE0F901F901895808128
:10108000F4CF1F920F920FB60F9211242F933F931C
:101090004F935F936F937F938F939F93AF93BF9380
:1010A000CF93EF93FF93E0918303F0918403C0818A
:1010B00080918503C82380918603909187032091B6
:1010C0008603309187032F3F3F4F29F0019690937D
:1010D00087038093860320918103211115C0C111DC
:1010E0004BC0813A910558F010928A0390938D037A
:1010F00080938C0381E080938B0380938103109213
:1011000087031092860338C0213099F4CC23A1F1D3
:10111000E0918B032E0F20938B03F0E0EF57FC4FF1
:101120008F3F910519F010F08FEF90E0858782E0F6
:10113000E4CF223009F047C0E0918B03813A91055A
:1011400010F4E73CA0F1E83C18F081E080938A03BA
:1011500080918C0390918D039093830480938204FB
:10116000E093810483E080938103E0918803F09110
:101170008903309709F0099580919004882329F01C
:1011800081E0C11180E00E945206FF91EF91CF9162
:10119000BF91AF919F918F917F916F915F914F918F
:1011A0003F912F910F900FBE0F901F901895C11176
:1011B000E3CF91E09E0F90938B03F0E0EF57FC4F4D
:1011C000858781E09ACF2330B9F6C111D5CF97CF6B
:1011D000DF92EF92FF920F931F93CF93DF93EC0177
:1011E000D62E8A017901F0E090E080E030E0E0E086
:1011F000DE01AE0FB11D2C91FF5F222339F0320FBB
:101200002E9F800D911D11241C92F0E03323B9F024
:10121000DE1611F0F23098F0232F2695820F911DE3
:10122000632F70E00E948A16DE01A60FB11D3C9369
:10123000D8013C9131110FC06C9390E080E0EF5FDA
:10124000DE16B0F681E0DF91CF911F910F91FF90F4
:10125000EF90DF900895D7013C91332369F380E04C
:10126000F2CFE1EDF1E01382128288EE93E0A0E08C
:10127000B0E084839583A683B78381E291E0918374
:10128000808385EC90E09587848784EC90E0978755
:10129000868780EC90E0918B808B81EC90E0938B43
:1012A000828B82EC90E0958B848B86EC90E0978B20
:1012B000868B118E128E138E148E10928F04E1E89D
:1012C000F3E0118281E0848389E290E0938382835A
:1012D000509810927C03EEE6F2E08BE0818388E088
:1012E000848383E290E09383828323980895CF934D
:1012F000DF93CDB7DEB7E8970FB6F894DEBF0FBE29
:10130000CDBF789484B5826084BD84B5816084BD8E
:1013100085B5826085BD85B5816085BD80916E0093
:10132000816080936E0010928100809181008260C4
:101330008093810080918100816080938100809101
:1013400080008160809380008091B10084608093F0
:10135000B1008091B00081608093B00080917A00EC
:10136000846080937A0080917A00826080937A0012
:1013700080917A00816080937A0080917A00806801
:1013800080937A001092C100E091E101F091E201B6
:1013900082E08083E091DD01F091DE011082E09136
:1013A000DF01F091E00180E180831092E901E0919A
:1013B000E501F091E60186E08083E091E301F091A0
:1013C000E401808180618083E091E301F091E40198
:1013D000808188608083E091E301F091E401808165
:1013E00080688083E091E301F091E40180818F7D4A
:1013F000808382E391E00E9435078BE08093820333
:1014000088E08093850383E290E090938403809347
:101410008303239881E08093900410928F040E94AC
:10142000F6008EE090E09093AA018093A90160E01D
:101430000E9465019E012F5F3F4F38AF2FAB809117
:101440008103833009F04AC280918A03882309F41A
:1014500065C080E480938004109257041092560473
:1014600010925B0410925A0410925904109258047E
:1014700010925E0410925F04109260041092610456
:1014800010927F0410927E048091800486FDC5C175
:1014900010918104812F8F7B843009F0C1C080912D
:1014A0008F0360E073E290E00E944205882309F414
:1014B00044C18091900390E044E150E0143009F081
:1014C00048C060EC78E00E942105882309F435C10A
:1014D0008091910360E372E090E00E9442058823CE
:1014E00009F42BC181E0809380048091860490915F
:1014F00087049093590480935804809188049091B4
:10150000890490935B0480935A04809184049091A1
:10151000850490935704809356047FC110928004F1
:10152000809156049091570490938504809384048D
:1015300080915A0490915B0490938904809388046D
:101540008091580490915904909387048093860465
:1015500083CF60E871E10E942105882309F4EDC082
:1015600043E060E280E391E00E94F20620915E0495
:1015700090915F046091600480916104462F50E077
:1015800050935B0440935A04422F592F4E3E37E844
:10159000530719F523E030E03093570420935604A5
:1015A00090E0909359048093580480E290E09093E7
:1015B0007F0480937E048AE795E00E940C0180916D
:1015C000800480FF2EC129E030E03093570420933F
:1015D000560480628093800420C19095291310C026
:1015E00030E03093590420935804982F9095691354
:1015F0000CC088E090E09093570480935604D5CFB8
:101600005093590440935804F0CF2AE030E03093CF
:1016100057042093560460935A0480935B04C5CF0B
:10162000143609F08AC08CE191E00E94A405882359
:1016300009F483C043E060E18CE191E00E94F2068E
:10164000D0905E040D2D10915F04BBE0EB2EF12CC9
:10165000023040E21407F9F0AEE0EA2EF12C0A3A2B
:101660005AE51507C1F0FDE0EF2EF12C043582E3B9
:10167000180789F0EFE0EE2EF12C033091E0190706
:1016800051F080E1E82EF12C0332ABEC1A0719F08F
:101690007CE0E72EF12CD1268D2D82958F70D826F7
:1016A00043E260E28CE191E00E94F20680915E04E8
:1016B00090915F04A0916004B09161049C0164E08A
:1016C000369527956A95E1F730935904209358048D
:1016D0002A2F30E030935B0420935A04282F2A27C6
:1016E00029273D2D3F70482F4F70341719F034E0F3
:1016F00030938004ECE0EE16F10449F4309180045C
:1017000030613093800410935D0400935C042B17C8
:1017100029F08091800484608093800480E390E0CD
:1017200090937F0480937E04F0925704E0925604D5
:101730008AE397E00E940C0170C08091810480329E
:1017400009F0A9C141E06FE088E091E00E94F20653
:101750008091AD0364E071E090E00E94420588232F
:1017600009F499C180915E0490915F04A091600496
:10177000B09161049C012F71332730935904209359
:10178000580455E0B695A795979587955A95D1F742
:10179000392F3370AC01552750935B0440935A04A2
:1017A00040918204509183044536544008F070C142
:1017B0002091800422602093800420918E042F5F6A
:1017C00020938E0420FF19C0213019F021E02093CE
:1017D00080043091880440918904282F2095231794
:1017E00029F02091800424602093800430935A04CF
:1017F00040935B04392F3095337087E190E03111CD
:1018000002C084E090E090935704809356048FE0E8
:1018100090E090937F0480937E048091800480FD0B
:1018200057C08091560490915704892B09F450C0F9
:10183000C0905E04D0905F04E0906004F09061047A
:10184000C114D104E104F10409F442C088E391E039
:101850000E94280719A297018601CE018196B9013D
:10186000A8014F7055276627772754E036952795AE
:10187000179507955A95D1F74A300CF0CCC6405DC4
:10188000FC014293CF01011511052105310539F7FE
:10189000EF2B11F00E9428078FE291E00E942807A9
:1018A00084E090E0F7E0CF16DF06F4E0EF06FBEF10
:1018B000FF0651F027E0C216D20625E0E2062AEF25
:1018C000F20631F485E090E09093B0018093AF018F
:1018D00080918103833011F4109281038091A901DA
:1018E0008E3008F08E508770806480937C008091E9
:1018F0007A00806480937A0080917A0086FDFCCF24
:101900006091780070917900072E000C880B990B7C
:101910000E9488146B017C0124EA30E74DE75FE305
:101920006091140170911501809116019091170139
:101930000E94E7142B013C012AE037ED43E25CE30F
:10194000C701B6010E94E7149B01AC01C301B201BB
:101950000E9419169B01AC012093140130931501CC
:101960004093160150931701C701B6010E94181643
:101970002B013C01E89477F823E333E343E75FE38B
:101980006091A5017091A6018091A7019091A80195
:101990000E94E7146B017C012DEC3CEC4CE45DE310
:1019A000C301B2010E94E7149B01AC01C701B6015B
:1019B0000E9419164B015C018092A5019092A6012C
:1019C000A092A701B092A8010E94DC036B017C01E8
:1019D00020E030E040EA52E4C501B4010E9419164B
:1019E0009B01AC01C301B2010E948516181664F573
:1019F0008091A1019091A201A091A301B091A401B5
:101A0000A7019601281B390B4A0B5B0BDA01C901B0
:101A100089379105A105B105B8F08091A001C09268
:101A2000A101D092A201E092A301F092A401811140
:101A3000F4C581E08093A001C0929C01D0929D01E9
:101A4000E0929E01F0929F018091A001882309F409
:101A500006C680919C0190919D01A0919E01B0913C
:101A60009F01C81AD90AEA0AFB0A41E9C41641E0F3
:101A7000D406E104F10408F4F2C51092A00184E058
:101A800090E09093B0018093AF0187E591E0E5C5C8
:101A900010928E04B2CE88E690E00E94A4058823BE
:101AA00009F446C0809181048A3129F08A3219F004
:101AB000803209F03DC090E0BC016150710977FDB2
:101AC000BC017595679543E088E690E00E94F206B8
:101AD00080915E0490915F04A0916004B0916104D4
:101AE0009C012F77332730935B0420935A0447E0FF
:101AF000B695A795979587954A95D1F790935904F0
:101B0000809358042091810430E0C901019797FD2A
:101B1000C9019595879590937F0480937E0488E111
:101B200090E0909357048093560480EE91E002CEAB
:101B300081E08093D00189E793E09093CE01809378
:101B4000CD011092CF010E94E105813009F063C000
:101B5000C12CD12C760110E0909181048091D001AC
:101B60008917E0F40E94E105082F0E94E1050111A8
:101B70000BC0813009F04FC0CC0CDD1CEE1CFF1CEB
:101B80006894C0F81F5FE8CF013009F044C08111AC
:101B900042C0CC0CDD1CEE1CFF1CF4CF812F90E06A
:101BA00090937F0480937E04C0925E04D0925F0481
:101BB000E0926004F09261048C2D8F7390E090931A
:101BC0005B0480935A049601B6E036952795BA9542
:101BD000E1F72F713327309359042093580496016D
:101BE00022273071232B31F4805C9F4F90935B044C
:101BF00080935A0480E880938004D3FE03C088E871
:101C00008093800481E190E0909357048093560480
:101C10008FEC99E08FCD80918F0368E67AE090E0B9
:101C20000E944205882309F448C08091900344E152
:101C300050E068E773E090E00E9421058823E9F115
:101C400083E08093D0018CEB91E09093CE01809360
:101C5000CD011092CF010E94E105813071F50E9403
:101C6000E10581112AC0C12CD12C760110E09091A0
:101C700081048091D001891708F076C00E94E105A7
:101C8000982E1330B1F00E94E105082F133021F493
:101C90000E94E105081311C021E092125BC00111FE
:101CA0000CC0CC0CDD1CEE1CFF1C6894C0F81F5F40
:101CB000DECF0E94E105981631F3F09081043CE3F9
:101CC000F31619F044E0F41215C000918F0310E0F0
:101CD00068E273E2C8010E944205811192C06CE182
:101CE00075E2C8010E94420568EB7BE007E010E066
:101CF00081118BC082E2F81609F4F5C094E2F91262
:101D000024C180E990E00E94A405882309F41DC144
:101D100043E060E180E990E00E94F20680915E0479
:101D200090915F04A0916004B0916104492F5A2FF3
:101D30006B2F772750935B0440935A049927909315
:101D400059048093580480E190E090937F0480933D
:101D50007E04F8C09110B1CF013009F0AECFCC0CA9
:101D6000DD1CEE1CFF1CA3CF812F90E090937F041D
:101D700080937E04C0925E04D0925F04E09260047F
:101D8000F09261042C2D30E08D2D90E0133200F59F
:101D900040E84093800430935B0420935A0490936E
:101DA000590480935804E0FE03C088E880938004BF
:101DB000153128F08091800480618093800482E155
:101DC00090E0909357048093560483E79AE0B2CC56
:101DD00040E94093800430935B0420935A0490932D
:101DE000590480935804C7019F7390935D048093B6
:101DF0005C04F7FE03C088E98093800483E190E0EF
:101E0000E0CF68E670E106E010E08091900390E09A
:101E100054E0F51215C044E150E060ED77E00E9417
:101E20002105882309F491C08091910364EF71E04A
:101E300090E00E944205882309F487C081E853CBD3
:101E400044E150E00E942105882309F453CF43E088
:101E50006CE18CE790E00E94F20680E880938004B9
:101E600040915E0450915F04609160047091610440
:101E7000DB01CA0124E0B695A795979587952A9529
:101E8000D1F79C0190935B0480935A04DB01CA0153
:101E9000E4E1B695A79597958795EA95D1F7909344
:101EA00059048093580484E090E0E0E0F22FFF7042
:101EB000EF0FF4E036952795FA95E1F70197B1F722
:101EC0004E274F70552766277727452B462B472BE4
:101ED00019F084E88093800410935704009356040B
:101EE0008CE190E096CC80918204909183048C3EAA
:101EF0009C4508F092CC80918F036EE072E090E0F8
:101F00000E944205882309F488CC8091AF036EE0DB
:101F100072E090E00E944205882309F47ECC81E0C3
:101F20008093800480918604909187049093590453
:101F300080935804809188049091890490935B0465
:101F400080935A0485E090E0E4CA80918104982F40
:101F50009F7D943419F0863009F07DC084EA90E0CA
:101F60000E94A405882309F476C0809181048630FC
:101F7000B1F481E28093800480918604909187047B
:101F80009093590480935804809188049091890417
:101F900090935B0480935A0485E190E0BACA43E0D1
:101FA00060E284EA90E00E94F20690915E048091E3
:101FB0005F04109160042091610490935804809311
:101FC000590430918104022F0095343639F543E4E9
:101FD00060E184EA90E00E94F20680915E049091B4
:101FE0005F04101731F09095981719F094E09093D2
:101FF0008004982F812F90935B0480935A0480E390
:1020000090E090937F0480937E0486E190E090932B
:102010005704809356048EEB9AE08CCB101306C0C5
:10202000412F50E050935B0440935A0489130EC033
:1020300090E0909359048093580480E290E090934C
:102040007F0480937E0484E190E0E1CF10935A04F2
:1020500020935B04F2CF80918104843269F588EB90
:1020600090E00E94A405882339F143E060E188EB09
:1020700090E00E94F20610915E0480915F048095CA
:10208000181719F084E0809380048DE692E00E9496
:102090000C01812F90E090935B0480935A0410927E
:1020A00059041092580480E190E090937F0480934B
:1020B0007E048EE190E02DCA809181048434C1F4C5
:1020C0008CEC90E00E94A405882391F043E060E24C
:1020D0008CEC90E00E94F20680E88093800480E21D
:1020E00090E090937F0480937E048DE190E011CA8C
:1020F00080918F038E3E08F06AC08091900344E186
:1021000050E062E074E090E00E942105882309F429
:102110005EC080918104843209F059C000910F01A2
:10212000802F8071409107015091080104FD04C087
:102130004091090150910A01001F0027001F21E072
:10214000811101C020E063E080E10E94460580E843
:102150008093800490915E0480915F04292F382F32
:10216000482F42954F708F70A4E036952795AA9519
:10217000E1F72F70392F3F709FE09427982792271F
:10218000391719F094E8909380049091800460913D
:10219000820470918304683F714118F492609093B7
:1021A00080044093580410925904E0E18E9FC001CE
:1021B0001124822B90935B0480935A0480E190E079
:1021C00090937F0480937E048BE190E0A2C980EE1F
:1021D00090E00E94A405882371F1809181048432EB
:1021E00051F543E060E180EE90E00E94F2068091BC
:1021F000B10368E072E090E00E9442058823D9F0C4
:1022000080915E0490915F0498279F3FA1F490E035
:1022100090935B0480935A0480E190E090937F0454
:1022200080937E048AE190E0909357048093560453
:1022300088ED94E07FCA80918104803709F04FC017
:1022400041E068E084EF90E00E94F20680915E0435
:1022500090915F04A0916004B0916104892B8A2B56
:102260008B2BE9F541E16FE184EF90E00E94F206EB
:10227000C0905E04D0905F04E0906004F090610430
:102280004FE461E184EF90E00E94F20690915F04D8
:102290008091600489279827892790935B04809315
:1022A0005A04C0925E04D0925F04E0926004F092FF
:1022B0006104D0925904C0925804F0925D04E092F7
:1022C0005C048CE190E0909357048093560488E37B
:1022D00090E090937F0480937E0480E87BC9809196
:1022E0008104823108F442C192E3AFA9B8AD1D92D6
:1022F0009A95E9F743E060E08250990B242F30E093
:1023000028173907ACF42F573C4FF90125852233A4
:1023100008F02CC1E1E0F0E0EC0FFD1FE20FF11D31
:1023200030813F5F3083621708F4622F4E5FE6CF43
:102330001EAA1DAA9E012B5C3F4FAE014A5C5F4F57
:10234000CE0101960E94E808882309F40FC182E3B8
:10235000AFA9B8AD1D928A95E9F72091810422506A
:10236000330B44E060E0842F90E082179307ACF4D5
:102370008F579C4FFC018585823308F0F7C0E1E060
:10238000F0E0EC0FFD1FE80FF11D90819F5F90833F
:10239000681708F4682F4E5FE6CF1CAA1BAA9E019F
:1023A0002D5C3F4FAE014C5C5F4FCE0101960E9409
:1023B000E808882309F4DAC08091810486951FEF2C
:1023C000180FEBA8EE2011F01EEF180F812F90E0F0
:1023D00090937F0480937E041C01F1E02F1A310852
:1023E00037FE04C01C012EE1220E311CF5E03594AD
:1023F0002794FA95E1F7B22CCDA8C11003C0EE20C6
:1024000009F4B4C06CA882E3689E300111248EA840
:10241000889E40011124C89E60011124E89E70012D
:102420001124E3E05E2E412C812F113208F080E26E
:102430009BA9992309F47AC042E050E050935704D5
:102440004093560400E020E0A701652D0E94460558
:1024500080915E0490915F04A0916004B09161044A
:1024600024E0429EF0011124E259FB4F80839183C6
:10247000A283B38330E4530E10524394B414A0F6F5
:102480002091820430918304203D3740E8F4F1012B
:10249000EE0FFF1FEE0FFF1FE259FB4F008111816E
:1024A0002281338140918A0450918B0460918C0485
:1024B00070918D04041715072607370729F420911A
:1024C000800421602093800480938A0490938B047D
:1024D000A0938C04B0938D0420918F0392E3299FE5
:1024E000900111243093630420936204809190033F
:1024F000899FC00111249093650480936404909295
:102500006B0480926A0470926D0460926C04C11432
:10251000D10419F1E114F10499F4D0926704C09246
:102520006604709269046092680477C9A1E0B0E023
:10253000B0935704A093560400E021E0A60185CF94
:10254000F0926904E09268049092670480926604B5
:10255000D0926B04C0926A0460C990926704809222
:102560006604F0926904E092680457C9E09181041E
:10257000E63008F452C911E025EC3DE94CE151E8A0
:10258000F0E00AE0612F70E0CB0102968E179F0702
:102590007CF58F579C4FDC011D968C916F577C4FBB
:1025A000DB011D966C91809F7001112498E0699F5A
:1025B000D0011124EA16FB06C8F0609FB001112477
:1025C000A8E08A9FC0011124FF24F39468177907BB
:1025D00010F462E0F62E63E971E080E091E00E9481
:1025E000A5159B01AC012F251F5FCCCFF12CF3CF9C
:1025F00020935E0430935F04409360045093610421
:1026000080E290E090937F0480937E0410925704C0
:102610001092560402C9495C33C980919C01909183
:102620009D01A0919E01B0919F01A7019601281BD9
:10263000390B4A0B5B0BDA01C90181399140A105C5
:10264000B10508F0F9C91092A00185E090E09093DF
:10265000B0018093AF0182E491E00E943507809140
:10266000AF019091B001892B59F10E94DC030091D8
:10267000AB011091AC012091AD013091AE01601B16
:10268000710B820B930B6739710581059105C0F0C1
:102690000E94DC036093AB017093AC018093AD01A9
:1026A0009093AE018091AF019091B001843091057B
:1026B000B9F0059709F449C01092B0011092AF012A
:1026C00080E090E0892B11F40C941F0A0E947E0494
:1026D000882311F40C941F0A0E9400000C941F0A16
:1026E0008CE691E00E9435071092700010E000E047
:1026F00080EBE82E84E0F82EC7010E94960163E08B
:1027000070E080E090E00E94AA0355E0E51AF1082D
:1027100083E5E81682E0F80679F788E00E94E8038E
:102720000330110531F060E971E080E090E00E9433
:10273000AA030F5F1F4F04301105D1F60E94F60067
:1027400089E791E00E943507B7CF84E891E00E94C5
:102750003507109270000E94DC036B017C010E941F
:10276000DC036C197D098E099F096835724081056B
:102770009105B8F40E94251428EB3BE040E050E0BE
:102780000E94D715DC01CB018854944FAF4FBF4F47
:102790000E94960162E070E080E090E00E94AA034F
:1027A000DECF88E00E94E8030E94F60081E991E014
:1027B000C9CF8F929F92AF92BF92CF92DF92EF924A
:1027C000FF92CF93DF93EC01688179818A819B81AD
:1027D000611571058105910521F464E279ED8BE5C0
:1027E00097E02DE133EF41E050E00E94D715490119
:1027F0005A019B01AC01A7EAB1E40E94F6156B01F6
:102800007C01ACEEB4EFA50194010E940416C60E43
:10281000D71EE81EF91EF7FE06C081E0C81AD108CF
:10282000E10880E8F80AC882D982EA82FB82C701FF
:10283000B6019F77DF91CF91FF90EF90DF90CF901F
:10284000BF90AF909F908F9008958F929F92AF927C
:10285000BF92CF92DF92EF92FF9260911901709137
:102860001A0180911B0190911C0161157105810570
:10287000910521F464E279ED8BE597E02DE133EFEA
:1028800041E050E00E94D71549015A019B01AC017B
:10289000A7EAB1E40E94F6156B017C01ACEEB4EF3F
:1028A000A50194010E940416C60ED71EE81EF91E4B
:1028B000F7FE06C081E0C81AD108E10880E8F80AEE
:1028C000C0921901D0921A01E0921B01F0921C01F2
:1028D000C701B6019F77FF90EF90DF90CF90BF9038
:1028E000AF909F908F9008956093190170931A0193
:1028F00080931B0190931C010895FB01DC0102C031
:1029000005900D9241505040D8F70895E89409C0C1
:1029100097FB3EF490958095709561957F4F8F4F12
:102920009F4F9923A9F0F92F96E9BB279395F69528
:10293000879577956795B795F111F8CFFAF4BB0FA6
:1029400011F460FF1BC06F5F7F4F8F4F9F4F16C00A
:10295000882311F096E911C0772321F09EE8872F94
:10296000762F05C0662371F096E8862F70E060E050
:102970002AF09A95660F771F881FDAF7880F9695C9
:10298000879597F90895990F0008550FAA0BE0E86D
:10299000FEEF16161706E807F907C0F01216130621
:1029A000E407F50798F0621B730B840B950B39F461
:1029B0000A2661F0232B242B252B21F408950A26C7
:1029C00009F4A140A6958FEF811D811D08950E94F5
:1029D000FA140C946B150E945D1538F00E94641572
:1029E00020F0952311F00C9454150C945A151124D1
:1029F0000C949F150E947C1570F3959FC1F3950F61
:102A000050E0551F629FF001729FBB27F00DB11D72
:102A1000639FAA27F00DB11DAA1F649F6627B00D02
:102A2000A11D661F829F2227B00DA11D621F739FEB
:102A3000B00DA11D621F839FA00D611D221F749FF9
:102A40003327A00D611D231F849F600D211D822F40
:102A5000762F6A2F11249F5750409AF0F1F0882367
:102A60004AF0EE0FFF1FBB1F661F771F881F915094
:102A70005040A9F79E3F510580F00C9454150C94DA
:102A80009F155F3FE4F3983ED4F38695779567955D
:102A9000B795F795E7959F5FC1F7FE2B880F911DBE
:102AA0009695879597F9089597F99F6780E870E064
:102AB00060E008959FEF80EC089500240A941616B4
:102AC000170618060906089500240A94121613061C
:102AD000140605060895092E0394000C11F48823AA
:102AE00052F0BB0F40F4BF2B11F460FF04C06F5FC6
:102AF0007F4F8F4F9F4F089557FD9058440F551F9C
:102B000059F05F3F71F04795880F97FB991F61F06F
:102B10009F3F79F087950895121613061406551FE6
:102B2000F2CF4695F1DF08C0161617061806991F52
:102B3000F1CF86957105610508940895E894BB2747
:102B400066277727CB0197F90895DB018F939F9331
:102B50000E94F615BF91AF91A29F800D911DA39F7A
:102B6000900DB29F900D11240895A1E21A2EAA1B78
:102B7000BB1BFD010DC0AA1FBB1FEE1FFF1FA2172D
:102B8000B307E407F50720F0A21BB30BE40BF50B2A
:102B9000661F771F881F991F1A9469F760957095B3
:102BA000809590959B01AC01BD01CF010895052E44
:102BB00097FB1EF400940E94EE1557FD07D00E946B
:102BC000B51507FC03D04EF40C94EE1550954095C6
:102BD000309521953F4F4F4F5F4F089590958095C9
:102BE000709561957F4F8F4F9F4F08950E940916F2
:102BF000A59F900DB49F900DA49F800D911D112451
:102C00000895B7FF0C94F6150E94F615821B930BDE
:102C10000895A29FB001B39FC001A39F700D811DB5
:102C20001124911DB29F700D811D1124911D0895D5
:102C30005058BB27AA270E9430160C946B150E948F
:102C40005D1538F00E94641520F039F49F3F19F4A7
:102C500026F40C945A150EF4E095E7FB0C945415E9
:102C6000E92F0E947C1558F3BA176207730784078F
:102C7000950720F079F4A6F50C949E150EF4E095D6
:102C80000B2EBA2FA02D0B01B90190010C01CA0126
:102C9000A0011124FF27591B99F0593F50F4503ED1
:102CA00068F11A16F040A22F232F342F4427585FC3
:102CB000F3CF469537952795A795F0405395C9F7DB
:102CC0007EF41F16BA0B620B730B840BBAF0915093
:102CD000A1F0FF0FBB1F661F771F881FC2F70EC032
:102CE000BA0F621F731F841F48F487957795679505
:102CF000B795F7959E3F08F0B0CF9395880F08F0F1
:102D00009927EE0F9795879508950E94C31408F4AC
:102D10008FEF0895AA1BBB1B51E107C0AA1FBB1F61
:102D2000A617B70710F0A61BB70B881F991F5A9557
:102D3000A9F780959095BC01CD010895EE0FFF1F76
:0C2D40000590F491E02D0994F894FFCF69
:102D4C001B00269E0002049E0029029E0007010023
:102D5C006E00000000000044FF01000000000000B5
:102D6C0000B4041404410401057204500464040DFD
:102D7C000A005374617274004952207261773D30BD
:102D8C007800436C61703A20444F55424C45202DDD
:102D9C003E206869737300436C61703A2053494E4E
:102DAC00474C45202D3E206D656F77006D656F7724
:102DBC002829207374617274006D656F772829203F
:102DCC00656E64006869737328292073746172746A
:0C2DDC000068697373282920656E64008C
:00000001FF
