:100000000C94CC000C94F4000C94F4000C94F400C8
:100010000C94F4000C94F4000C94F4000C94FD0780
:100020000C94B1080C94F4000C94F4000C94F400BB
:100030000C94F4000C94F4000C94F4000C94F40070
:100040000C94B3070C94F4000C947F080C9459089A
:100050000C94F4000C94F4000C94F4000C94F40050
:100060000C94F4000C94F40018002860095802B0B5
:1000700004580258025802102D00000006002628DD
:10008000236810F4012C06F4012602806E002D076F
:10009000050026E02070100E022A060E020E020055
:1000A00041000000140026801180113002900630BB
:1000B000023002006E0000001E002638081C040EEC
:1000C000022A060E020E0200320000001D00262247
:1000D0000B220BEE026608EE02EE02806E000000BC
:1000E0001A0026F603BC050802BC050802D401006C
:1000F0004B0000001C00261F015D033E023E021F54
:10010000015D03A06E00000004002604010C03043E
:10011000011C0704010C03006E0000000C00258088
:100120000DC006B0011005B001B001008200000052
:1001300008002600238011300290063002300200B1
:100140006E002D0700000000240027002A00000098
:100150000008000201000003040700000000000086
:10016000000000000000250028002B000204040409
:100170000404040404020202020202030303030350
:10018000030102040810204080010204081020012D
:10019000020408102000A10911241FBECFEFD8E0EF
:1001A000DEBFCDBF11E0A0E0B1E0EAEAF3E302C0B8
:1001B00005900D92A43FB107D9F724E0A4EFB1E078
:1001C00001C01D92A93EB207E1F710E0CCECD0E0EF
:1001D00004C02197FE010E94CD19CB3CD107C9F77D
:1001E0000E94E7090C94D3190C94000082E08093DC
:1001F000B0008093B10084E68093B3008093B40094
:100200001092B2008091D903833011F41092D90377
:1002100084E08093700008952091DA043091DB042B
:100220002817390728F48091D80481608093D80476
:10023000089590E0FC01E25BFE4F2491FC01EF5732
:10024000FE4F3491FC01E359FE4FE491EE23C9F0D7
:10025000222339F0233001F1A8F4213019F12230A2
:1002600029F1F0E0EE0FFF1FEE59FE4FA591B4917A
:100270008FB7F894EC91611126C030953E233C93E2
:100280008FBF08952730A9F02830C9F0243049F7EE
:10029000809180008F7D03C0809180008F77809354
:1002A0008000DFCF84B58F7784BDDBCF84B58F7DB1
:1002B000FBCF8091B0008F778093B000D2CF809138
:1002C000B0008F7DF9CF3E2BDACFCF93DF9390E054
:1002D000FC01EF57FE4F249183599E4FFC018491FE
:1002E0008823D1F090E0880F991FFC01EC5BFE4F52
:1002F000A591B491FC01EE59FE4FC591D4916111C5
:100300000EC09FB7F8948C91E22FE0958E238C93CA
:100310002881E223E8839FBFDF91CF9108958FB7B3
:10032000F894EC91E22BEC938FBFF6CF4F925F9253
:100330006F927F928F929F92AF92BF92CF92DF92F5
:10034000EF92FF920F931F93CF93DF9300D000D0D3
:100350001F92CDB7DEB78C012A013B0180911801B5
:100360008830C9F08F3F09F47FC00F900F900F9035
:100370000F900F90DF91CF911F910F91FF90EF9011
:10038000DF90CF90BF90AF909F908F907F906F90B5
:100390005F904F900895ECE6F1E084918D8387FDA6
:1003A000E4CF61E088E00E9465018D81882321F01F
:1003B0009D81923009F05CC14801B12CA12C60E014
:1003C00072E18AE790E0A50198010E94F218298362
:1003D0003A834B835C8369017A0181E0C81AD108B2
:1003E000E108F1089FEFC916D104E104F10409F016
:1003F0000CF413C160E472E48FE090E0A501980171
:100400000E94F21869017A0181E0C81AD108E10856
:10041000F1089D81923009F098C08FEFC816D10481
:10042000E104F10409F00CF4DDC160E970ED83E052
:1004300090E0A50198010E94F21869017A0191E00B
:10044000C91AD108E108F1088FEFC816D104E104F8
:10045000F10411F00CF0A3C183E09091B100987FFA
:10046000892B8093B100E1C088E080931801ECE60D
:10047000F1E094919D839F3F09F477CF913029F16A
:1004800058F0923009F43FC08D8187FD6ECF61E056
:1004900088E00E9465018CCF14BC15BC84B58260D5
:1004A00084BD85B5816085BDE5E7F1E0E491F0E0CC
:1004B000EE0FFF1FEE59FE4F85919491E9E8F1E0B0
:1004C000E491E09316021D826CCF1092800010928E
:1004D00081008091810088608093810080918100FB
:1004E000816080938100E5E7F1E0E491F0E0EE0FB8
:1004F000FF1FEE59FE4F85919491E9E8F1E0E491F8
:10050000E09315024ECF1092B0001092B10080918E
:10051000B00082608093B0008091B10081608093D0
:10052000B100E5E7F1E0E491F0E0EE0FFF1FEE59D6
:10053000FE4F859194919093140280931302E9E801
:10054000F1E0E491E09312022CCF9FEFC916D104A1
:10055000E104F10409F00CF489C068E478EE81E06C
:1005600090E0A50198010E94F21869017A0181E0EA
:10057000C81AD108E108F1089D81992309F428C11E
:100580009FEFC916D104E104F10409F00CF41EC177
:1005900062E17AE780E090E0A50194010E94F21800
:1005A00069017A0181E0C81AD108E108F1089D814A
:1005B000992309F4EBC08FEFC816D104E104F104CC
:1005C00011F008F0BFC086E048CF64E274EF80E02D
:1005D00090E0A50194010E94F21869017A0181E07E
:1005E000C81AD108E108F10885E09FEFC916D104C7
:1005F000E104F10409F008F430CF62E17AE780E029
:1006000090E0A50194010E94F21869017A0191E03D
:10061000C91AD108E108F108CECF81E09D8191117E
:100620001CCF95B5987F892B85BD2FEF3FEFA90192
:10063000411451046104710409F043C09D8191305B
:1006400009F45EC0923009F46DC091118ECEC7BC22
:1006500020931F02309320024093210250932202E4
:1006600080916E00826080936E007FCE82E0D6CF54
:10067000B12CA12C60E072E18AE790E0A50198011D
:100680000E94F21869017A0181E0C81AD108E108D4
:10069000F108C114D10491E0E906F10404F591E0F8
:1006A0008D81813011F680918100887F892B809324
:1006B00081002FEF3FEFA90141145104610471043F
:1006C000F9F0D801AA0FBB1FA30192010E941119D2
:1006D00028EE33E040E050E00E94D018AFCF68E44D
:1006E00078EE81E090E0A50198010E94F21869017E
:1006F0007A0181E0C81AD108E108F10893E0D0CF6F
:10070000D0928900C092880020931B0230931C0273
:1007100040931D0250931E0280916F00826080936F
:100720006F0023CEC092B3002093170230931802BB
:100730004093190250931A02809170008260809356
:10074000700013CEC980DA80EB80FC809AE0F594CB
:10075000E794D794C7949A95D1F791E0C91AD10834
:10076000E108F10887E079CEC980DA80EB80FC806F
:100770008AE0F594E794D794C7948A95D1F791E0ED
:10078000C91AD108E108F10885E04BCF8FEFC816F0
:10079000D104E104F10409F038F784E042CF68E4C1
:1007A00078EE81E090E0A50198010E94F2186901BD
:1007B0007A0191E0C91AD108E108F1088FEFC81653
:1007C000D104E104F10411F00CF0FFCE84E045CE39
:1007D0008FEFC816D104E104F10411F00CF0D8CE6B
:1007E00083E01FCF82E039CE3FB7F89480910E02AC
:1007F00090910F02A0911002B091110226B5A89B12
:1008000005C02F3F19F00196A11DB11D3FBFBA2FA2
:10081000A92F982F8827BC01CD01620F711D811D62
:10082000911D42E0660F771F881F991F4A95D1F7E7
:1008300008958F929F92AF92BF92CF92DF92EF92E4
:10084000FF926B017C010E94F4034B015C01C11417
:10085000D104E104F104B9F00E94F40368197909A4
:100860008A099B09683E73408105910580F321E068
:10087000C21AD108E108F10888EE880E83E0981EBC
:10088000A11CB11CE4CFFF90EF90DF90CF90BF9000
:10089000AF909F908F9008952FB7F89460910A02BF
:1008A00070910B0280910C0290910D022FBF089560
:1008B0009091180189130BC0ECE6F1E0E4919FEFF1
:1008C00090931801E13049F028F0E23061F060E0E7
:1008D0000C94190110926E00FACF90916F009D7FD9
:1008E00090936F00F4CF909170009D7F9093700073
:1008F00091E09093B0009091B100987F94609093B4
:10090000B1001092B300E3CFAF92BF92CF92DF92CB
:10091000EF92FF920F931F93CF93DF936C017B01B4
:100920008B01040F151FEB015E01AE18BF08C01745
:10093000D10759F06991D601ED91FC910190F081B8
:10094000E02DC6010995892B79F7C501DF91CF917B
:100950001F910F91FF90EF90DF90CF90BF90AF90DD
:100960000895FC01538D448D252F30E0842F90E0B5
:10097000821B930B541710F0CF960895019708959A
:10098000FC01918D828D981761F0A28DAE0FBF2F63
:10099000B11D5D968C91928D9F5F9F73928F90E0B9
:1009A00008958FEF9FEF0895FC01918D828D981728
:1009B00031F0828DE80FF11D858D90E008958FEF65
:1009C0009FEF0895FC01918D228D892F90E0805C2E
:1009D0009F4F821B91098F739927089589E292E0B6
:1009E0000E94E20421E0892B09F420E0822F08957F
:1009F00080E090E0892B29F00E94EE0481110C9494
:100A000000000895FC01A48DA80FB92FB11DA35AB1
:100A1000BF4F2C91848D90E001968F739927848F1E
:100A2000A689B7892C93A089B1898C918370806441
:100A30008C93938D848D981306C00288F389E02DE2
:100A400080818F7D80830895EF92FF920F931F9393
:100A5000CF93DF93EC0181E0888F9B8D8C8D981371
:100A60001AC0E889F989808185FF15C09FB7F8947D
:100A7000EE89FF896083E889F989808183708064C9
:100A800080839FBF81E090E0DF91CF911F910F9114
:100A9000FF90EF900895F62E0B8D10E00F5F1F4F23
:100AA0000F731127E02E8C8D8E110CC00FB607FC32
:100AB000FACFE889F989808185FFF5CFCE010E94C0
:100AC0000205F1CFEB8DEC0FFD2FF11DE35AFF4F27
:100AD000F0829FB7F8940B8FEA89FB89808180624E
:100AE000CFCFCF93DF93EC01888D8823B9F0AA890B
:100AF000BB89E889F9898C9185FD03C0808186FDD9
:100B00000DC00FB607FCF7CF8C9185FFF2CF808127
:100B100085FFEDCFCE010E940205E9CFDF91CF9195
:100B2000089522E3FC012E9FC0012F9F900D1124F8
:100B3000480F591F7695679576956795CB01880F75
:100B4000991F860F971F8417950750F485E0869F9D
:100B50009001879F300D112481E02417350708F498
:100B600080E008954CEE5FEF0C9491054F925F92F8
:100B70006F927F929F92AF92BF92CF92DF92EF924D
:100B8000FF920F931F93CF93DF93182F5A01922E4A
:100B9000C62FD0E0CA51DC4F412C512C3201439476
:100BA000C12CD12C7601112301F19920B1F088815B
:100BB000B50190E00E94B205002379F1CC0CDD1C58
:100BC000EE1CFF1C882311F06894C0F8440C551CDF
:100BD000661C771C11502296E6CF898144E150E0D3
:100BE000B50190E00E949105E7CFC092B604D09283
:100BF000B704E092B804F092B904DF91CF911F914D
:100C00000F91FF90EF90DF90CF90BF90AF909F90AB
:100C10007F906F905F904F9008958823B9F2C42819
:100C2000D528E628F728D2CFCF93DF93EC01FC013B
:100C30003396659174918091E70390E00E94B2052C
:100C4000882369F0FE013596659174918091E803DF
:100C500044E150E090E0DF91CF910C94910580E069
:100C6000DF91CF91089522E3289FA001299F500D85
:100C7000112476956795769567959B01220F331F12
:100C8000260F371F4217530750F085E0869F9001CB
:100C9000879F300D112481E02417350708F480E088
:100CA0000895BF92CF92DF92EF92FF920F931F931E
:100CB000CF93DF93109128028091D904B12C18179B
:100CC000A0F5812F8170B82E0091270201111EC05E
:100CD000E12FF0E0E752FC4FE584F12CCCEEDFEFA2
:100CE000882311F0C4E1D0E0C0902502D090260204
:100CF000CC0DDD1DBE01C7010E943306882301F122
:100D000081E090E090932402809323020F5F009390
:100D1000270280912302909124020817190628F0D7
:100D2000109227021F5F109328028B2DDF91CF9125
:100D30001F910F91FF90EF90DF90CF90BF9008959B
:100D4000CC0DDD1DBE01C7010E943306882319F0BA
:100D500082E090E0D7CFB6016C0F7D1FC7010E94E3
:100D60003306882319F083E090E0CCCFBB24BA94FB
:100D7000DCCF8091E704811102C02D98089560E0D6
:100D80000C941901882349F08091E704811102C075
:100D90002D9A089561E00C9419010C94B9068F9274
:100DA0009F92AF92BF92CF92DF92EF92FF921F93EA
:100DB000CF93DF93EC010E94F4036B017C014B01A4
:100DC0005C0188E0880E911CA11CB11C10E0F89415
:100DD00061E08091D4030E9419018091D703909122
:100DE000D8038230910538F0880F991F880F991F1A
:100DF00005970197F1F760E08091D4030E941901F3
:100E00007894111103C081E00E94C2068091D5033D
:100E10009091D603C80ED91EE11CF11CF8940E94D3
:100E2000F4039B01281939092C173D0778F00E941B
:100E3000B9067894DF91CF911F91FF90EF90DF90EA
:100E4000CF90BF90AF909F908F90089511E06C1558
:100E50007D058E059F0518F3BACFCF92DF92EF92F2
:100E6000FF928AE190E09093D6038093D50385E0CA
:100E700090E09093D8038093D70361E08091D403EE
:100E80000E94650180E093E20E94CF060E94F40375
:100E90006B017C0124E0C21AD108E108F1080E942C
:100EA000F4036C197D098E099F09603C7840810527
:100EB0009105A8F380E392E0FF90EF90DF90CF9050
:100EC0000C94CF06FF920F931F93CF93DF93CDB770
:100ED000DEB764970FB6F894DEBF0FBECDBF162FF6
:100EE000F42E44E150E0BC01CE0101960E94981717
:100EF0000889802F80714885598504FD02C04A8584
:100F00005B85001F0027001F21E0811101C020E048
:100F10006F2D812F0E94B60564960FB6F894DEBF40
:100F20000FBECDBFDF91CF911F910F91FF9008951C
:100F3000FC0101900020E9F73197AF01481B590BE4
:100F4000BC0189E292E00C948404CF93DF930E9469
:100F50009807EC0183E391E00E9498078C0F9D1F96
:100F6000DF91CF9108951F920F920FB60F92112427
:100F70002F933F938F939F93AF93BF9380910A02D8
:100F800090910B02A0910C02B0910D0230910902D8
:100F900023E0230F2D3758F50196A11DB11D209395
:100FA000090280930A0290930B02A0930C02B09363
:100FB0000D0280910E0290910F02A0911002B0914B
:100FC00011020196A11DB11D80930E0290930F0294
:100FD000A0931002B0931102BF91AF919F918F9196
:100FE0003F912F910F900FBE0F901F90189526E8FC
:100FF000230F0296A11DB11DD2CF1F920F920FB6E3
:101000000F9211242F933F934F935F936F937F938E
:101010008F939F93AF93BF93EF93FF9380911702AA
:1010200090911802A0911902B0911A02892B8A2B73
:101030008B2BD1F190911202E0911302F0911402E6
:101040008081892780838091170290911802A09156
:101050001902B0911A02181619061A061B069CF4FA
:101060008091170290911802A0911902B0911A0272
:101070000197A109B1098093170290931802A093D8
:101080001902B0931A02FF91EF91BF91AF919F9116
:101090008F917F916F915F914F913F912F910F9021
:1010A0000FBE0F901F901895809118010E94580450
:1010B000EACF1F920F920FB60F9211242F933F93F6
:1010C0004F935F936F937F938F939F93AF93BF9350
:1010D000EF93FF9389E292E00E940205FF91EF9166
:1010E000BF91AF919F918F917F916F915F914F9140
:1010F0003F912F910F900FBE0F901F9018951F9248
:101100000F920FB60F9211242F938F939F93EF930B
:10111000FF93E0913902F0913A028081E0913F0221
:10112000F091400282FD1BC09081809142028F5F4E
:101130008F7320914302821741F0E0914202F0E068
:10114000E75DFD4F958F80934202FF91EF919F9154
:101150008F912F910F900FBE0F901F901895808147
:10116000F4CF1F920F920FB60F9211242F933F933B
:101170004F935F936F937F938F939F93AF93BF939F
:10118000CF93EF93FF93E091DB03F091DC03C081F9
:101190008091DD03C8238091DE039091DF032091CD
:1011A000DE033091DF032F3F3F4F29F001969093EC
:1011B000DF038093DE032091D903211115C0C111F3
:1011C0004BC0813A910558F01092E2039093E503E9
:1011D0008093E40381E08093E3038093D90310922A
:1011E000DF031092DE0338C0213099F4CC23A1F143
:1011F000E091E3032E0F2093E303F0E0E752FC4F6E
:101200008F3F910519F010F08FEF90E0858782E015
:10121000E4CF223009F047C0E091E303813A910521
:1012200010F4E73CA0F1E83C18F081E08093E20381
:101230008091E4039091E5039093DB048093DA04BA
:10124000E093D90483E08093D903E091E003F09127
:10125000E103309709F009958091E804882329F08B
:1012600081E0C11180E00E94C206FF91EF91CF9111
:10127000BF91AF919F918F917F916F915F914F91AE
:101280003F912F910F900FBE0F901F901895C11195
:10129000E3CF91E09E0F9093E303F0E0E752FC4F21
:1012A000858781E09ACF2330B9F6C111D5CF97CF8A
:1012B000DF92EF92FF920F931F93CF93DF93EC0196
:1012C000D62E8A017901F0E090E080E030E0E0E0A5
:1012D000DE01AE0FB11D2C91FF5F222339F0320FDA
:1012E0002E9F800D911D11241C92F0E03323B9F044
:1012F000DE1611F0F23098F0232F2695820F911D03
:10130000632F70E00E94A519DE01A60FB11D3C936A
:10131000D8013C9131110FC06C9390E080E0EF5FF9
:10132000DE16B0F681E0DF91CF911F910F91FF9013
:10133000EF90DF900895D7013C91332369F380E06B
:10134000F2CFE9E2F2E01382128288EE93E0A0E0AD
:10135000B0E084839583A683B78385E291E091838F
:10136000808385EC90E09587848784EC90E0978774
:10137000868780EC90E0918B808B81EC90E0938B62
:10138000828B82EC90E0958B848B86EC90E0978B3F
:10139000868B118E128E138E148E1092E704E9ED57
:1013A000F3E0118281E0848389E290E09383828379
:1013B00050981092D403E6ECF2E08BE0818388E051
:1013C000848383E290E09383828323980895CF936C
:1013D000DF93CDB7DEB7EA970FB6F894DEBF0FBE46
:1013E000CDBF789484B5826084BD84B5816084BDAE
:1013F00085B5826085BD85B5816085BD80916E00B3
:10140000816080936E0010928100809181008260E3
:101410008093810080918100816080938100809120
:1014200080008160809380008091B100846080930F
:10143000B1008091B00081608093B00080917A000B
:10144000846080937A0080917A00826080937A0031
:1014500080917A00816080937A0080917A00806820
:1014600080937A001092C100E0913902F0913A0223
:1014700082E08083E0913502F09136021082E091A3
:101480003702F091380280E1808310924102E091AE
:101490003D02F0913E0286E08083E0913B02F091B4
:1014A0003C02808180618083E0913B02F0913C02AC
:1014B000808188608083E0913B02F0913C028081D2
:1014C00080688083E0913B02F0913C0280818F7DB7
:1014D000808386E391E00E94A5078BE08093DA0386
:1014E00088E08093DD0383E290E09093DC038093B7
:1014F000DB03239881E08093E8041092E7040E94C4
:10150000F6008EE090E0909302028093010260E08A
:101510000E9465018091D903833009F072C28091E5
:10152000E203882309F465C080E48093D804109214
:10153000AF041092AE041092B3041092B204109251
:10154000B1041092B0041092B6041092B704109235
:10155000B8041092B9041092D7041092D604809166
:10156000D80486FDC5C11091D904812F8F7B8430AA
:1015700009F0C1C08091E70360E073E290E00E944F
:10158000B205882309F444C18091E80390E044E166
:1015900050E0143009F048C060EC78E00E949105FA
:1015A000882309F435C18091E90360E372E090E09B
:1015B0000E94B205882309F42BC181E08093D804EE
:1015C0008091DE049091DF049093B1048093B00485
:1015D0008091E0049091E1049093B3048093B2046D
:1015E0008091DC049091DD049093AF048093AE046D
:1015F0007FC11092D8048091AE049091AF04909373
:10160000DD048093DC048091B2049091B304909344
:10161000E1048093E0048091B0049091B104909330
:10162000DF048093DE0483CF60E871E10E949105BE
:10163000882309F4EDC043E060E280E391E00E947A
:1016400062072091B6049091B7046091B80480912C
:10165000B904462F50E05093B3044093B204422F94
:10166000592F4E3E37E8530719F523E030E0309309
:10167000AF042093AE0490E09093B1048093B00443
:1016800080E290E09093D7048093D6048AE795E0B7
:101690000E940C018091D80480FF2EC129E030E027
:1016A0003093AF042093AE0480628093D80420C1AD
:1016B0009095291310C030E03093B1042093B0040A
:1016C000982F909569130CC088E090E09093AF0438
:1016D0008093AE04D5CF5093B1044093B004F0CFC3
:1016E0002AE030E03093AF042093AE046093B2045C
:1016F0008093B304C5CF143609F08AC08CE191E021
:101700000E941406882309F483C043E060E18CE161
:1017100091E00E946207D090B6040D2D1091B7049D
:10172000FBE0EF2EF12C023040E21407F9F0EEE07E
:10173000EE2EF12C0A3A5AE51507C1F07DE0E72EAE
:10174000F12C043582E3180789F06FE0E62EF12CC6
:10175000033091E0190751F0A0E1EA2EF12C033299
:10176000ABEC1A0719F05CE0E52EF12CD1268D2D9B
:1017700082958F70D82643E260E28CE191E00E946E
:1017800062078091B6049091B704A091B804B0911B
:10179000B9049C0144E0369527954A95E1F73093CA
:1017A000B1042093B0042A2F30E03093B304209387
:1017B000B204282F2A2729273D2D3F70482F4F702C
:1017C000341719F034E03093D804ECE0EE16F1044D
:1017D00049F43091D80430613093D8041093B504A3
:1017E0000093B4042B1729F08091D804846080936F
:1017F000D80480E390E09093D7048093D604F092CD
:10180000AF04E092AE048AE397E00E940C0170C03E
:101810008091D904803209F0D1C141E06FE088E0C5
:1018200091E00E9462078091050464E071E090E01D
:101830000E94B205882309F4C1C18091B604909139
:10184000B704A091B804B091B9049C012F7133275B
:101850003093B1042093B00405E0B695A795979511
:1018600087950A95D1F7392F3370AC0155275093DE
:10187000B3044093B2044091DA045091DB0445363E
:10188000544008F098C12091D80422602093D804D5
:101890002091E6042F5F2093E60420FF19C0213039
:1018A00019F021E02093D8043091E0044091E10444
:1018B000282F2095231729F02091D8042460209305
:1018C000D8043093B2044093B304392F3095337069
:1018D00087E190E0311102C084E090E09093AF0482
:1018E0008093AE048FE090E09093D7048093D60469
:1018F0008091D80480FD7FC08091AE049091AF04A8
:10190000892B09F478C0C090B604D090B704E09059
:10191000B804F090B904C114D104E104F10409F44D
:101920006AC08CE391E00E94980719A29701860192
:10193000CE018196B901A8014F70552766277727F8
:10194000A4E03695279517950795AA95D1F74A30C3
:101950000CF0EFC6405DFC014293CF01011511056B
:101960002105310539F7EF2B11F00E94980783E329
:1019700091E00E94980784E090E0F7E0CF16DF0640
:10198000F4E0EF06FBEFFF0691F185E090E027E041
:10199000C216D20625E0E2062AEFF20641F186E001
:1019A00090E037E0C316D30636E0E30639EFF306DE
:1019B000F1F087E090E047E0C416D40648E0E40682
:1019C00047EFF406A1F088E090E057E0C516D50691
:1019D00059E0E50656EFF50651F087E0C816D8063F
:1019E0008AE0E80685EFF80631F48EE090E0909307
:1019F0000802809307028091D903833011F410927A
:101A0000D903809101028E3008F08E508770806477
:101A100080937C0080917A00806480937A0080912A
:101A20007A0086FDFCCF6091780070917900072ED6
:101A3000000C880B990B0E94A3176B017C0124EA10
:101A400030E74DE75FE360911401709115018091DB
:101A50001601909117010E9402184B015C012AE0C7
:101A600037ED43E25CE3C701B6010E9402189B0117
:101A7000AC01C501B4010E9434199B01AC01209353
:101A80001401309315014093160150931701C701BB
:101A9000B6010E9433194B015C01E894B7F823E3C7
:101AA00033E343E75FE36091FD017091FE018091B4
:101AB000FF01909100020E9402186B017C012DEC45
:101AC0003CEC4CE45DE3C501B4010E9402189B01AB
:101AD000AC01C701B6010E9434192B013C014092B0
:101AE000FD015092FE016092FF01709200020E947F
:101AF0004C046B017C0120E030E040EA52E4C30179
:101B0000B2010E9434199B01AC01C501B4010E94CD
:101B1000A019181664F58091F9019091FA01A0912D
:101B2000FB01B091FC01A7019601281B390B4A0B60
:101B30005B0BDA01C90189379105A105B105B8F040
:101B40008091F801C092F901D092FA01E092FB0174
:101B5000F092FC018111EFC581E08093F801C09201
:101B6000F401D092F501E092F601F092F701809134
:101B7000F801882309F401C68091F4019091F501E0
:101B8000A091F601B091F701C81AD90AEA0AFB0A36
:101B900041E9C41641E0D406E104F10408F4EDC5BE
:101BA0001092F80184E090E090930802809307027D
:101BB0008BE591E0E0C51092E6048ACE88E690E0DD
:101BC0000E941406882309F446C08091D9048A3102
:101BD00029F08A3219F0803209F03DC090E0BC0152
:101BE0006150710977FDBC017595679543E088E602
:101BF00090E00E9462078091B6049091B704A09192
:101C0000B804B091B9049C012F7733273093B30403
:101C10002093B20417E0B695A795979587951A95E6
:101C2000D1F79093B1048093B0042091D90430E0AF
:101C3000C901019797FDC901959587959093D704A0
:101C40008093D60488E190E09093AF048093AE0433
:101C500080EE91E0DACD81E08093280289E793E07D
:101C60009093260280932502109227020E9451062B
:101C7000813009F063C0C12CD12C760110E0909125
:101C8000D904809128028917E0F40E945106082F98
:101C90000E94510601110BC0813009F04FC0CC0CDD
:101CA000DD1CEE1CFF1C6894C0F81F5FE8CF0130FC
:101CB00009F044C0811142C0CC0CDD1CEE1CFF1C9D
:101CC000F4CF812F90E09093D7048093D604C092F4
:101CD000B604D092B704E092B804F092B9048C2D07
:101CE0008F7390E09093B3048093B204960156E012
:101CF000369527955A95E1F72F7133273093B10424
:101D00002093B004960122273071232B31F4805C9C
:101D10009F4F9093B3048093B20480E88093D804DB
:101D2000D3FE03C088E88093D80481E190E09093CB
:101D3000AF048093AE048FEC99E067CD8091E70308
:101D400068E67AE090E00E94B205882309F448C072
:101D50008091E80344E150E068E773E090E00E947E
:101D600091058823E9F183E0809328028CEB91E0D0
:101D70009093260280932502109227020E9451061A
:101D8000813071F50E94510681112AC0C12CD12CDD
:101D9000760110E09091D90480912802891708F00B
:101DA00076C00E945106B82E1330B1F00E94510641
:101DB000082F133021F40E945106081311C021E0AE
:101DC000B2125BC001110CC0CC0CDD1CEE1CFF1C60
:101DD0006894C0F81F5FDECF0E945106B81631F339
:101DE000F090D9043CE3F31619F044E0F41215C066
:101DF0000091E70310E068E273E2C8010E94B205B7
:101E0000811192C06CE175E2C8010E94B20568EBD5
:101E10007BE007E010E081118BC082E2F81609F444
:101E2000F6C094E2F91225C180E990E00E94140600
:101E3000882309F41EC143E060E180E990E00E943C
:101E400062078091B6049091B704A091B804B09154
:101E5000B904492F5A2F6B2F77275093B30440931F
:101E6000B20499279093B1048093B00480E190E08C
:101E70009093D7048093D604F9C0B110B1CF01304C
:101E800009F0AECFCC0CDD1CEE1CFF1CA3CF812FC4
:101E900090E09093D7048093D604C092B604D09279
:101EA000B704E092B804F092B9042C2D30E08D2DE7
:101EB00090E0133200F540E84093D8043093B30427
:101EC0002093B2049093B1048093B004E0FE03C069
:101ED00088E88093D804153128F08091D804806177
:101EE0008093D80482E190E09093AF048093AE0495
:101EF00083E79AE08ACC40E94093D8043093B30456
:101F00002093B2049093B1048093B004C7019F73EF
:101F10009093B5048093B404F7FE03C088E98093DE
:101F2000D80483E190E0E0CF68E670E106E010E0DD
:101F30008091E80390E054E0F51215C044E150E0D0
:101F400060ED77E00E949105882309F492C08091AA
:101F5000E90364EF71E090E00E94B205882309F480
:101F600088C081E82BCB44E150E00E949105882392
:101F700009F453CF43E06CE18CE790E00E946207E4
:101F800080E88093D8048091B6049091B704A09122
:101F9000B804B091B9046C017D01F4E0F694E794C3
:101FA000D794C794FA95D1F7A601D092B304C09202
:101FB000B2046C017D0124E1F694E794D794C794B0
:101FC0002A95D1F7D092B104C092B00424E030E059
:101FD00060E0742F7F70670FE4E056954795EA95AF
:101FE000E1F721503109A9F786278F709927AA2791
:101FF000BB27892B8A2B8B2B19F084E88093D8047C
:102000001093AF040093AE048CE190E06DCC80910E
:10201000DA049091DB048C3E9C4508F069CC8091F9
:10202000E7036EE072E090E00E94B205882309F4B5
:102030005FCC809107046EE072E090E00E94B205F0
:10204000882309F455CC81E08093D8048091DE0484
:102050009091DF049093B1048093B0048091E004E8
:102060009091E1049093B3048093B20485E090E0F2
:10207000BBCA8091D904982F9F7D943419F0863083
:1020800009F07DC084EA90E00E941406882309F4D8
:1020900076C08091D9048630B1F481E28093D8046F
:1020A0008091DE049091DF049093B1048093B0049A
:1020B0008091E0049091E1049093B3048093B20482
:1020C00085E190E091CA43E060E284EA90E00E94FA
:1020D00062079091B6048091B7041091B8042091E2
:1020E000B9049093B0048093B1043091D904022FC5
:1020F0000095343639F543E460E184EA90E00E94CB
:1021000062078091B6049091B704101731F0909552
:10211000981719F094E09093D804982F812F9093FA
:10212000B3048093B20480E390E09093D70480934B
:10213000D60486E190E09093AF048093AE048EEBDA
:102140009AE063CB101306C0412F50E05093B304C4
:102150004093B20489130EC090E09093B104809331
:10216000B00480E290E09093D7048093D60484E199
:1021700090E0E1CF1093B2042093B304F2CF8091AA
:10218000D904843269F588EB90E00E941406882314
:1021900039F143E060E188EB90E00E946207109122
:1021A000B6048091B7048095181719F084E08093E5
:1021B000D8048DE692E00E940C01812F90E090936C
:1021C000B3048093B2041092B1041092B00480E181
:1021D00090E09093D7048093D6048EE190E004CAF7
:1021E0008091D9048434C1F48CEC90E00E941406F0
:1021F000882391F043E060E28CEC90E00E9462075B
:1022000080E88093D80480E290E09093D704809394
:10221000D6048DE190E0E8C98091E7038E3E08F096
:1022200069C08091E80344E150E062E074E090E02E
:102230000E949105882309F45DC08091D9048432FD
:1022400009F058C000910F01802F80714091070163
:102250005091080104FD04C04091090150910A0108
:10226000001F0027001F21E0811101C020E063E072
:1022700080E10E94B60580E88093D8044091B604BE
:102280009091B704242F392F592F52955F709F706A
:1022900064E0369527956A95E1F72F704F708FE0CF
:1022A000852789278227481719F084E88093D80466
:1022B0008091D8046091DA047091DB04683F714129
:1022C00018F482608093D8045093B0041092B10443
:1022D000E0E19E9FC0011124822B9093B304809370
:1022E000B20480E190E09093D7048093D6048BE110
:1022F00090E07AC980EE90E00E941406882371F184
:102300008091D904843251F543E060E180EE90E0A1
:102310000E9462078091090468E072E090E00E94E8
:10232000B2058823D9F08091B6049091B70498271C
:102330009F3FA1F490E09093B3048093B20480E1B6
:1023400090E09093D7048093D6048AE190E0909334
:10235000AF048093AE0488ED94E057CA8091D9040D
:10236000803709F04FC041E068E084EF90E00E94C0
:1023700062078091B6049091B704A091B804B0911F
:10238000B904892B8A2B8B2BE9F541E16FE184EFAE
:1023900090E00E946207C090B604D090B704E0902D
:1023A000B804F090B9044FE461E184EF90E00E943A
:1023B00062079091B7048091B804892798278927EC
:1023C0009093B3048093B204C092B604D092B70441
:1023D000E092B804F092B904D092B104C092B00473
:1023E000F092B504E092B4048CE190E09093AF04D5
:1023F0008093AE0488E390E09093D7048093D60452
:1024000080E853C98091D904823108F43DC18E011E
:102410000F5F1F4F92E3D8011D929A95E9F743E0B1
:1024200060E08250990B242F30E02817390794F48C
:1024300027523C4FF9012585223308F025C1F801C8
:10244000E20FF11D30813F5F3083621708F4622F85
:102450004E5FE9CF1EAA1DAA9E012B5C3F4FAE0125
:102460004A5C5F4FC8010E945809882309F40CC1D7
:1024700082E3D8011D928A95E9F72091D904225070
:10248000330B44E060E0842F90E08217930794F4CC
:1024900087529C4FFC018585823308F0F5C0F80116
:1024A000E80FF11D90819F5F9083681708F4682FF3
:1024B0004E5FE9CF1CAA1BAA9E012D5C3F4FAE01C7
:1024C0004C5C5F4FC8010E945809882309F4DCC0A6
:1024D0008091D90486951FEF180FEBA8EE2011F01C
:1024E0001EEF180F812F90E09093D7048093D604AD
:1024F0001C01F1E02F1A310837FE04C01C012EE147
:10250000220E311C95E0359427949A95E1F72FAA75
:10251000CDA8C11003C0EE2009F4B6C04CA882E3D8
:10252000489E20011124AEA8A89E50011124C89EE7
:1025300060011124E89E7001112403E0802E912C8B
:1025400066246394712C812F113208F080E29BA9DC
:10255000992309F47BC042E050E05093AF044093CC
:10256000AE0400E020E0A701682D0E94B60580912E
:10257000B6049091B704A091B804B091B90454E0A6
:10258000959EF0011124EA53FB4F80839183A2832F
:10259000B383E0E48E0E10529394FFA9F91598F6D8
:1025A0002091DA043091DB04203D3740E8F4F1015A
:1025B000EE0FFF1FEE0FFF1FEA53FB4F008111814B
:1025C000228133814091E2045091E3046091E4045C
:1025D0007091E504041715072607370729F42091A1
:1025E000D80421602093D8048093E2049093E304FC
:1025F000A093E404B093E5042091E70392E3299FBC
:10260000900111243093BB042093BA048091E80315
:10261000899FC00111249093BD048093BC04B092A3
:10262000C304A092C2045092C5044092C404C114D1
:10263000D10409F1E114F10489F4D092BF04C092ED
:10264000BE045092C1044092C00452C97092AF04BB
:102650006092AE0400E021E0A60186CFF092C104B2
:10266000E092C004B092BF04A092BE04D092C30412
:10267000C092C2043DC9B092BF04A092BE04F092C1
:10268000C104E092C00434C9E091D904E63008F4F2
:102690002FC911E025EC3DE94CE151E8F0E00AE0FA
:1026A000612F70E0CB0102968E179F077CF5875251
:1026B0009C4FDC011D968C9167527C4FDB011D966F
:1026C0006C91809F7001112498E0699FD0011124C2
:1026D000EA16FB0678F0609FB0011124A8E08A9FFB
:1026E000C0011124B2E0FB2E6817790720F0FF2407
:1026F000F39401C0F12C63E971E080E091E00E9465
:10270000C0189B01AC012F251F5FCACF2093B604D0
:102710003093B7044093B8045093B90480E290E03A
:102720009093D7048093D6041092AF041092AE0415
:10273000DFC8495C10C98091F4019091F501A09126
:10274000F601B091F701A7019601281B390B4A0B3E
:102750005B0BDA01C90181399140A105B10508F08F
:10276000FEC91092F80185E090E0909308028093F2
:10277000070286E491E00E94A507809107029091EC
:102780000802892B09F461C10E944C0400910302E4
:10279000109104022091050230910602601B710B1A
:1027A000820B930B673971058105910508F44DC1C2
:1027B0000E944C046093030270930402809305020C
:1027C00090930602E0910702F09108023497EB30F3
:1027D000F10508F036C1E151FC4E0C94CD19FA1305
:1027E00032146D14D21435157615211521152115C5
:1027F0002115CE1580E791E00E94A5071092700088
:1028000010E000E0F0EBEF2EF4E0FF2E40E050E0AF
:10281000BA01C7010E94960163E070E080E090E099
:102820000E94190455E0E51AF10883E5E81682E0F4
:10283000F80661F788E00E9458040330110531F072
:1028400060E971E080E090E00E9419040F5F1F4F83
:1028500004301105B9F60E94F6008DE791E00E9460
:10286000A507EFC088E891E00E94A50710927000CC
:102870000E944C044B015C01E8EBCE2EEBE0DE2E17
:10288000E12CF12C0E944C04681979098A099B09F2
:102890006835724081059105C0F40E944017A70178
:1028A00096010E94F218DC01CB018854944FAF4F7F
:1028B000BF4F40E050E0BA010E94960162E070E034
:1028C00080E090E00E941904DDCF88E00E94580467
:1028D0000E94F60085E991E0C2CF80EA91E00E9473
:1028E000A507109270000E944C046FAB78AF89AFBF
:1028F0009AAF0E944C042FA938AD49AD5AAD621B66
:10290000730B840B950B6C3D75408105910508F0A8
:1029100044C00E9440172B013C010E9440176B01EC
:102920007C010E9440174B015C01C701B6012BE0FE
:1029300030E040E050E00E94F2186B017C014AE078
:10294000C40ED11CE11CF11CC301B20125E130E031
:1029500040E050E00E94F218DC01CB010A97A10987
:10296000B10988589F4FB701A6010E949601C7017F
:10297000B6010E94190488E00E945804C501B40100
:102980002BE030E040E050E00E94F2186B5F7F4F98
:102990008F4F9F4F0E941904ACCF0E94F6008DEA22
:1029A00091E05DCF88EB91E00E94A5071092700046
:1029B0000E944C046B017C0108E017E04AE050E003
:1029C00060E070E0C8010E94960168E070E080E07D
:1029D00090E00E9419040E944C046C197D098E0934
:1029E0009F09613F71058105910530F4045C1F4F1B
:1029F0000C3959E0150711F700E619E04CE050E0FA
:102A000060E070E0C8010E94960169E070E080E03B
:102A100090E00E9419040E944C046C197D098E09F3
:102A20009F09613F71058105910530F40055110939
:102A3000003585E0180711F788E00E9458040E94CD
:102A4000F600109208021092070280E090E0892BB5
:102A500011F40C948A0A0E94EE04882311F40C9459
:102A60008A0A0E9400000C948A0A80EC91E00E947D
:102A7000A507109270000AE010E058E0852E912C16
:102A800060EBC62E64E0D62E77E3272E312C0E9411
:102A9000E4165C010E94E416B4010E94B9197C019D
:102AA000AFE0EA0EF11C27010F2C000C6608770836
:102AB000C501B6010E94B919B301A2018C5C974F00
:102AC0000E949601C301B2010E94190488E00E948D
:102AD0005804B1016E197F09072E000C880B990B61
:102AE0000E9419040150110991F6A9CF8AEC91E0D6
:102AF0000E94A507109270000E944C042B013C011B
:102B00004AE0C42ED12C0FE010E00E944C0464195E
:102B1000750986099709603273408105910508F0AF
:102B20008ECF0E94E4165C010E94E4167C01C50170
:102B3000B6010E94B91948E250E060E070E08A5B9B
:102B40009F4F0E94960168E270E080E090E00E9452
:102B5000190488E00E9458046AE070E080E090E088
:102B60000E941904C701B8010E94B91942E350E05C
:102B700060E070E0865A9F4F0E94960162E370E029
:102B800080E090E00E94190488E00E9458046FE001
:102B900070E080E090E00E941904B7CF82ED91E0F0
:102BA0000E94A507109270000E944C046B017C01EA
:102BB0000E944C046C197D098E099F09603D774085
:102BC0008105910508F0ACC008E512E00E944017AD
:102BD00022E030E040E050E00E94F218AA24A394E2
:102BE000B12C672B682B692B19F4AA24AA94BA2C50
:102BF0000E94401729E130E040E050E00E94F218C6
:102C0000AB01BC01465F5F4F6F4F7F4FA49EC00179
:102C1000A59E900DB49E900D1124800F911F8436B7
:102C2000910514F484E690E04FE050E060E070E03D
:102C30000E9496016CE070E080E090E00E94190430
:102C40000E944C046C197D098E099F09613D7740F3
:102C50008105910538F40C5E1F4F043526E01207FC
:102C600009F0B4CF0E944C046C197D098E099F09AC
:102C7000613D77408105910508F052C000E416E0FF
:102C80000E94401722E030E040E050E00E94F2183D
:102C9000672B682B692B09F43FC0AA24A394B12C9D
:102CA0000E94401729E130E040E050E00E94F21815
:102CB000AB01BC01465F5F4F6F4F7F4FA49EC001C9
:102CC000A59E900DB49E900D1124800F911F843607
:102CD000910514F484E690E042E150E060E070E099
:102CE0000E9496016EE070E080E090E00E9419047E
:102CF0000E944C046C197D098E099F09613D774043
:102D00008105910508F054CF0F501109033552E0A9
:102D1000150709F0B5CF4CCFAA24AA94BA2CC0CF7E
:102D200088E00E9458040E94F60084EE91E097CD5E
:102D30008F929F92AF92BF92CF92DF92EF92FF92CB
:102D4000CF93DF93EC01688179818A819B81611542
:102D500071058105910521F464E279ED8BE597E039
:102D60002DE133EF41E050E00E94F21849015A0191
:102D70009B01AC01A7EAB1E40E9411196B017C012F
:102D8000ACEEB4EFA50194010E941F19DC01CB0148
:102D90008C0D9D1DAE1DBF1DB7FF03C00197A1097E
:102DA000B04888839983AA83BB839F77DF91CF91B3
:102DB000FF90EF90DF90CF90BF90AF909F908F905B
:102DC00008950E949816089589E191E00E9498164E
:102DD0000895B0E0A0E08093190190931A01A093A8
:102DE0001B01B0931C0108958F929F92AF92BF92E6
:102DF000CF92DF92EF92FF92CF93DF93EC01688145
:102E000079818A819B81611571058105910521F484
:102E100064E279ED8BE597E02DE133EF41E050E09E
:102E20000E94F21849015A019B01AC01A7EAB1E4E2
:102E30000E9411196B017C01ACEEB4EFA501940165
:102E40000E941F19C60ED71EE81EF91EF7FE06C007
:102E500081E0C81AD108E10880E8F80AC882D9825E
:102E6000EA82FB82C701B6019F77DF91CF91FF9085
:102E7000EF90DF90CF90BF90AF909F908F9008958C
:102E80008F929F92AF92BF92CF92DF92EF92FF927A
:102E900060911D0170911E0180911F019091200190
:102EA000611571058105910521F464E279ED8BE5E9
:102EB00097E02DE133EF41E050E00E94F218490124
:102EC0005A019B01AC01A7EAB1E40E9411196B0100
:102ED0007C01ACEEB4EFA50194010E941F19C60E4F
:102EE000D71EE81EF91EF7FE06C081E0C81AD108F9
:102EF000E10880E8F80AC0921D01D0921E01E0921C
:102F00001F01F0922001C701B6019F77FF90EF905B
:102F1000DF90CF90BF90AF909F908F900895609377
:102F20001D0170931E0180931F019093200108954D
:102F3000FB01DC0102C005900D9241505040D8F7D2
:102F40000895E89409C097FB3EF49095809570959C
:102F500061957F4F8F4F9F4F9923A9F0F92F96E9E5
:102F6000BB279395F695879577956795B795F1115A
:102F7000F8CFFAF4BB0F11F460FF1BC06F5F7F4FF7
:102F80008F4F9F4F16C0882311F096E911C0772309
:102F900021F09EE8872F762F05C0662371F096E812
:102FA000862F70E060E02AF09A95660F771F881FE1
:102FB000DAF7880F9695879597F90895990F000885
:102FC000550FAA0BE0E8FEEF16161706E807F907FB
:102FD000C0F012161306E407F50798F0621B730B96
:102FE000840B950B39F40A2661F0232B242B252B17
:102FF00021F408950A2609F4A140A6958FEF811DBA
:10300000811D08950E9415180C9486180E94781846
:1030100038F00E947F1820F0952311F00C946F185F
:103020000C94751811240C94BA180E94971870F318
:10303000959FC1F3950F50E0551F629FF001729F5D
:10304000BB27F00DB11D639FAA27F00DB11DAA1F6C
:10305000649F6627B00DA11D661F829F2227B00DB9
:10306000A11D621F739FB00DA11D621F839FA00D44
:10307000611D221F749F3327A00D611D231F849F94
:10308000600D211D822F762F6A2F11249F575040EB
:103090009AF0F1F088234AF0EE0FFF1FBB1F661F66
:1030A000771F881F91505040A9F79E3F510580F02F
:1030B0000C946F180C94BA185F3FE4F3983ED4F365
:1030C000869577956795B795F795E7959F5FC1F7D3
:1030D000FE2B880F911D9695879597F9089597F97E
:1030E0009F6780E870E060E008959FEF80EC0895AE
:1030F00000240A94161617061806090608950024D7
:103100000A9412161306140605060895092E039450
:10311000000C11F4882352F0BB0F40F4BF2B11F4C4
:1031200060FF04C06F5F7F4F8F4F9F4F089557FD23
:103130009058440F551F59F05F3F71F04795880F25
:1031400097FB991F61F09F3F79F0879508951216BC
:1031500013061406551FF2CF4695F1DF08C0161668
:1031600017061806991FF1CF869571056105089419
:103170000895E894BB2766277727CB0197F9089530
:10318000DB018F939F930E941119BF91AF91A29F72
:10319000800D911DA39F900DB29F900D1124089555
:1031A000A1E21A2EAA1BBB1BFD010DC0AA1FBB1F4B
:1031B000EE1FFF1FA217B307E407F50720F0A21BBD
:1031C000B30BE40BF50B661F771F881F991F1A942A
:1031D00069F760957095809590959B01AC01BD0154
:1031E000CF010895052E97FB1EF400940E94091943
:1031F00057FD07D00E94D01807FC03D04EF40C9462
:10320000091950954095309521953F4F4F4F5F4F8D
:10321000089590958095709561957F4F8F4F9F4F42
:1032200008950E942419A59F900DB49F900DA49F0E
:10323000800D911D11240895B7FF0C9411190E945F
:103240001119821B930B0895A29FB001B39FC00177
:10325000A39F700D811D1124911DB29F700D811DC2
:103260001124911D08955058BB27AA270E944B197D
:103270000C9486180E94781838F00E947F1820F06D
:1032800039F49F3F19F426F40C9475180EF4E09568
:10329000E7FB0C946F18E92F0E94971858F3BA17A0
:1032A000620773078407950720F079F4A6F50C945C
:1032B000B9180EF4E0950B2EBA2FA02D0B01B90111
:1032C00090010C01CA01A0011124FF27591B99F09C
:1032D000593F50F4503E68F11A16F040A22F232FA8
:1032E000342F4427585FF3CF469537952795A795F8
:1032F000F0405395C9F77EF41F16BA0B620B730B9F
:10330000840BBAF09150A1F0FF0FBB1F661F771F0F
:10331000881FC2F70EC0BA0F621F731F841F48F4C4
:10332000879577956795B795F7959E3F08F0B0CF4D
:103330009395880F08F09927EE0F97958795089534
:103340000E94DE1708F48FEF0895AA1BBB1B51E102
:1033500007C0AA1FBB1FA617B70710F0A61BB70B05
:10336000881F991F5A95A9F780959095BC01CD01AA
:10337000089597FB072E16F4009407D077FD09D027
:103380000E94A51907FC05D03EF4909581959F4FAA
:103390000895709561957F4F0895EE0FFF1F05907A
:0A33A000F491E02D0994F894FFCF9A
:1033AA001B00269E0002049E0029029E00070100BF
:1033BA006E00000000000044FF0100000001000050
:1033CA00000000000024058404B1047105E204C071
:1033DA0004D4040D0A0053746172740049522072B5
:1033EA0061773D307800436C61703A20444F554212
:1033FA004C45202D3E206869737300436C61703A16
:10340A002053494E474C45202D3E206D656F77006D
:10341A006D656F772829207374617274006D656F0A
:10342A0077282920656E64006869737328292073D8
:10343A00746172740068697373282920656E640068
:10344A0070757272282920737461727400707572B3
:10345A0072282920656E64006368697270282900E1
:10346A006368617474657228290067726F776C28C3
:10347A00290063617465727761756C2829207374F9
:10348A006172740063617465727761756C282920B2
:04349A00656E6400F7
:00000001FF
