:100000000C94CC000C94F4000C94F4000C94F400C8
:100010000C94F4000C94F4000C94F4000C94CA07B3
:100020000C947E080C94F4000C94F4000C94F400EE
:100030000C94F4000C94F4000C94F4000C94F40070
:100040000C9480070C94F4000C944C080C94260833
:100050000C94F4000C94F4000C94F4000C94F40050
:100060000C94F4000C94F40018002860095802B0B5
:1000700004580258025802102D00000006002628DD
:10008000236810F4012C06F4012602806E00690634
:10009000050026E02070100E022A060E020E020055
:1000A00041000000140026801180113002900630BB
:1000B000023002006E0000001E002638081C040EEC
:1000C000022A060E020E0200320000001D00262247
:1000D0000B220BEE026608EE02EE02806E000000BC
:1000E0001A0026F603BC050802BC050802D401006C
:1000F0004B0000001C00261F015D033E023E021F54
:10010000015D03A06E00000004002604010C03043E
:10011000011C0704010C03006E0000000C00258088
:100120000DC006B0011005B001B001008200000052
:1001300008002600238011300290063002300200B1
:100140006E006906000000080002010000030407B9
:100150000000000000000000000000002400270054
:100160002A0000000000250028002B0002040404DF
:100170000404040404020202020202030303030350
:10018000030102040810204080010204081020012D
:100190000204081020006E0911241FBECFEFD8E022
:1001A000DEBFCDBF11E0A0E0B1E0ECE4F8E202C0B8
:1001B00005900D92A03AB107D9F724E0A0EAB1E08A
:1001C00001C01D92A238B207E1F710E0CCECD0E0FC
:1001D00004C02197FE010E941E14CB3CD107C9F731
:1001E0000E94B4090C9424140C9400002091730410
:1001F000309174042817390728F4809171048160C4
:100200008093710408958F929F92AF92BF92CF9284
:10021000DF92EF92FF92CF9320911401283061F08A
:100220002F3F81F0CF91FF90EF90DF90CF90BF9064
:10023000AF909F908F900895ECE6F1E0C491C7FDD8
:10024000F1CF48C028E020931401ECE6F1E0C4911E
:10025000CF3F41F3C13009F401C120F1C23079F739
:100260001092B0001092B1002091B0002260209353
:10027000B0002091B10021602093B100E5E7F1E0EA
:10028000E491F0E0EE0FFF1FEE59FE4F25913491FF
:100290003093AD012093AC01E9E8F1E0E491E09303
:1002A000AB0118C014BC15BC24B5226024BD25B513
:1002B000216025BDE5E7F1E0E491F0E0EE0FFF1FDE
:1002C000EE59FE4F25913491E9E8F1E0E491E09395
:1002D000AF01C0E0E9E8F1E04491E5E7F1E0249105
:1002E000222399F030E0220F331FF901E85AFE4F24
:1002F000A591B491F901EE59FE4F259134912FB794
:10030000F894EC91E42BEC932FBF4C01B12CA12C71
:1003100060E072E18AE790E0A50194010E94C913B0
:1003200069017A01BA01A9014150510961097109B4
:100330008C2F8D7F09F00EC14F3F5105610571056E
:1003400009F00CF4ECC060E472E48FE090E0A501E9
:1003500094010E94C913BA01A901415051096109D0
:100360007109C23009F098C082E04F3F5105610524
:10037000710509F00CF463C060E970ED83E090E072
:10038000A50194010E94C913BA01A9014150510964
:100390006109710983E04F3F51056105710509F05D
:1003A0000CF44DC068E478EE81E090E0A501940182
:1003B0000E94C913BA01A90141505109610971098B
:1003C00084E04F3F510561057105C9F1C4F164E254
:1003D00074EF80E090E0A50194010E94C913BA0176
:1003E000A901415051096109710985E04F3F51054B
:1003F0006105710521F118F162E17AE780E090E092
:10040000A50194010E94C913BA01A90141505109E3
:100410006109710986E04F3F51056105710579F069
:1004200070F0B701A6018AE07595679557954795D5
:100430008A95D1F7415051096109710987E090917E
:10044000B100987F892B8093B100C13009F4A1C01D
:10045000C23009F4B3C0C111E5CE68C0109280006B
:1004600010928100209181002860209381002091CA
:100470008100216020938100E5E7F1E0E491F0E064
:10048000EE0FFF1FEE59FE4F25913491E9E8F1E0A0
:10049000E491E093AE011ECF4F3F51056105710518
:1004A00009F00CF455C068E478EE81E090E0A50115
:1004B00094010E94C913BA01A9014150510961096F
:1004C000710984E0C11192CF83E04F3F510561056E
:1004D000710541F13CF162E17AE780E090E0A5012D
:1004E00094010E94C913BA01A9014150510961093F
:1004F000710984E04F3F51056105710599F090F055
:10050000B701A6019AE075956795579547959A9515
:10051000D1F7415051096109710985E003C081E0BB
:10052000C1118DCF95B5987F892B85BD47BD8FEFC4
:100530009FEFDC018093B8019093B901A093BA01B9
:10054000B093BB0180916E00826080936E006ACE92
:1005500082E0E6CF91E04115510581E06807710521
:100560007CF068E478EE81E090E0A50194010E94BF
:10057000C913BA01A901415051096109710993E0F8
:10058000C13009F062CF80918100887F892B8093F0
:10059000810050938900409388008FEF9FEFDC012A
:1005A0008093B4019093B501A093B601B093B701C5
:1005B00080916F00826080936F0034CE4093B300CF
:1005C0008FEF9FEFDC018093B0019093B101A09376
:1005D000B201B093B301809170008260809370008B
:1005E00021CE90E0FC01EC5BFE4F2491FC01EF5723
:1005F000FE4F3491FC01E359FE4FE491EE23C9F024
:10060000222339F0233001F1A8F4213019F12230EE
:1006100029F1F0E0EE0FFF1FEE59FE4FA591B491C6
:100620008FB7F894EC91611126C030953E233C932E
:100630008FBF08952730A9F02830C9F0243049F73A
:10064000809180008F7D03C0809180008F778093A0
:100650008000DFCF84B58F7784BDDBCF84B58F7DFD
:10066000FBCF8091B0008F778093B000D2CF809184
:10067000B0008F7DF9CF3E2BDACF3FB7F894809151
:10068000A7019091A801A091A901B091AA0126B556
:10069000A89B05C02F3F19F00196A11DB11D3FBFBA
:1006A000BA2FA92F982F8827BC01CD01620F711D89
:1006B000811D911D42E0660F771F881F991F4A9583
:1006C000D1F708958F929F92AF92BF92CF92DF920F
:1006D000EF92FF924B015C010E943D036B017C0194
:1006E0000E943D036C197D098E099F09683E734085
:1006F00081059105A8F321E0821A9108A108B108AB
:1007000088EEC80E83E0D81EE11CF11C8114910410
:10071000A104B10429F7FF90EF90DF90CF90BF9034
:10072000AF909F908F9008959091140189130BC002
:10073000ECE6F1E0E4919FEF90931401E13049F091
:1007400028F0E23061F060E00C94F10210926E004B
:10075000FACF90916F009D7F90936F00F4CF9091AE
:1007600070009D7F9093700091E09093B000909105
:10077000B100987F94609093B1001092B300E3CFE2
:10078000AF92BF92CF92DF92EF92FF920F931F939F
:10079000CF93DF936C017B018B01040F151FEB01DD
:1007A0005E01AE18BF08C017D10759F06991D60194
:1007B000ED91FC910190F081E02DC6010995892B06
:1007C00079F7C501DF91CF911F910F91FF90EF90C5
:1007D000DF90CF90BF90AF900895FC01538D448D72
:1007E000252F30E0842F90E0821B930B541710F0DC
:1007F000CF96089501970895FC01918D828D9817E9
:1008000061F0A28DAE0FBF2FB11D5D968C91928DC0
:100810009F5F9F73928F90E008958FEF9FEF0895F1
:10082000FC01918D828D981731F0828DE80FF11DBA
:10083000858D90E008958FEF9FEF0895FC01918DD5
:10084000228D892F90E0805C9F4F821B91098F73CE
:100850009927089582EC91E00E941E0421E0892BE3
:1008600009F420E0822F089580E090E0892B29F0A0
:100870000E942A0481110C9400000895FC01A48DAB
:10088000A80FB92FB11DA35ABF4F2C91848D90E0B2
:1008900001968F739927848FA689B7892C93A08995
:1008A000B1898C91837080648C93938D848D98131F
:1008B00006C00288F389E02D80818F7D80830895B2
:1008C000EF92FF920F931F93CF93DF93EC0181E0A0
:1008D000888F9B8D8C8D98131AC0E889F989808147
:1008E00085FF15C09FB7F894EE89FF896083E8897A
:1008F000F98980818370806480839FBF81E090E06C
:10090000DF91CF911F910F91FF90EF900895F62EF8
:100910000B8D10E00F5F1F4F0F731127E02E8C8D92
:100920008E110CC00FB607FCFACFE889F9898081D7
:1009300085FFF5CFCE010E943E04F1CFEB8DEC0F89
:10094000FD2FF11DE35AFF4FF0829FB7F8940B8FF4
:10095000EA89FB8980818062CFCFCF93DF93EC015E
:10096000888D8823B9F0AA89BB89E889F9898C9197
:1009700085FD03C0808186FD0DC00FB607FCF7CF53
:100980008C9185FFF2CF808185FFEDCFCE010E9453
:100990003E04E9CFDF91CF91089522E3FC012E9F21
:1009A000C0012F9F900D1124480F591F7695679510
:1009B00076956795CB01880F991F860F971F84172F
:1009C000950750F485E0869F9001879F300D112494
:1009D00081E02417350708F480E008954CEE5FEFBE
:1009E0000C94CD044F925F926F927F929F92AF9240
:1009F000BF92CF92DF92EF92FF920F931F93CF930C
:100A0000DF93182F5A01922EC62FD0E0C158DC4F29
:100A1000412C512C32014394C12CD12C760111234D
:100A200001F19920B1F08881B50190E00E94EE04B7
:100A3000002379F1CC0CDD1CEE1CFF1C882311F087
:100A40006894C0F8440C551C661C771C1150229603
:100A5000E6CF898144E150E0B50190E00E94CD04E9
:100A6000E7CFC0924F04D0925004E0925104F0922C
:100A70005204DF91CF911F910F91FF90EF90DF9083
:100A8000CF90BF90AF909F907F906F905F904F906E
:100A900008958823B9F2C428D528E628F728D2CFAC
:100AA000CF93DF93EC01FC013396659174918091B3
:100AB000800390E00E94EE04882369F0FE013596E1
:100AC000659174918091810344E150E090E0DF9161
:100AD000CF910C94CD0480E0DF91CF91089522E373
:100AE000289FA001299F500D112476956795769532
:100AF00067959B01220F331F260F371F421753079D
:100B000050F085E0869F9001879F300D112481E091
:100B10002417350708F480E00895BF92CF92DF9242
:100B2000EF92FF920F931F93CF93DF931091C10128
:100B300080917204B12C1817A0F5812F8170B82E06
:100B40000091C00101111EC0E12FF0E0EE58FC4FF2
:100B5000E584F12CCCEEDFEF882311F0C4E1D0E086
:100B6000C090BE01D090BF01CC0DDD1DBE01C701FC
:100B70000E946F05882301F181E090E09093BD0110
:100B80008093BC010F5F0093C0018091BC019091E4
:100B9000BD010817190628F01092C0011F5F1093BD
:100BA000C1018B2DDF91CF911F910F91FF90EF909D
:100BB000DF90CF90BF900895CC0DDD1DBE01C70121
:100BC0000E946F05882319F082E090E0D7CFB6012C
:100BD0006C0F7D1FC7010E946F05882319F083E009
:100BE00090E0CCCFBB24BA94DCCF809180048111FB
:100BF00002C02D98089560E00C94F102882349F01A
:100C000080918004811102C02D9A089561E00C94B6
:100C1000F1020C94F5058F929F92AF92BF92CF9202
:100C2000DF92EF92FF921F93CF93DF93EC010E942C
:100C30003D036B017C014B015C0188E0880E911C37
:100C4000A11CB11C10E0F89461E080916D030E943A
:100C5000F10280917003909171038230910538F018
:100C6000880F991F880F991F05970197F1F760E08A
:100C700080916D030E94F1027894111103C081E00C
:100C80000E94FE0580916E0390916F03C80ED91EDD
:100C9000E11CF11CF8940E943D039B0128193909BD
:100CA0002C173D0778F00E94F5057894DF91CF91DD
:100CB0001F91FF90EF90DF90CF90BF90AF909F90EB
:100CC0008F90089511E06C157D058E059F0518F332
:100CD000BACFCF92DF92EF92FF928AE190E09093A9
:100CE0006F0380936E0385E090E09093710380938F
:100CF000700380916D0390E0FC01EF57FE4F24914B
:100D000083599E4FFC018491882399F090E0880FCD
:100D1000991FFC01E85AFE4FA591B491FC01EE59D0
:100D2000FE4F859194918FB7F894EC91E22BEC9360
:100D30008FBF80E093E20E940B060E943D036B018F
:100D40007C01F4E0CF1AD108E108F1080E943D03CC
:100D50006C197D098E099F09603C784081059105D9
:100D6000A8F380E392E0FF90EF90DF90CF900C9497
:100D70000B06FF920F931F93CF93DF93CDB7DEB790
:100D800064970FB6F894DEBF0FBECDBF162FF42EBA
:100D900044E150E0BC01CE0101960E948E13088907
:100DA000802F80714885598504FD02C04A855B8586
:100DB000001F0027001F21E0811101C020E06F2DDE
:100DC000812F0E94F20464960FB6F894DEBF0FBE26
:100DD000CDBFDF91CF911F910F91FF900895FC013E
:100DE00001900020E9F73197AF01481B590BBC0176
:100DF00082EC91E00C94C0038F929F92AF92BF92CD
:100E00000F931F93CF93DF93CDB7DEB7A1970FB6A4
:100E1000F894DEBF0FBECDBF19A2423008F44AE0FD
:100E20008E010F5D1F4F842E912CB12CA12CA5019A
:100E300094010E94A713E62FB901CA01EA30F4F425
:100E4000E05DD801EE938D01232B242B252B79F720
:100E500090E080E0109719F0CD010E94EF06A19676
:100E60000FB6F894DEBF0FBECDBFDF91CF911F91BB
:100E70000F91BF90AF909F908F900895E95CE1CF64
:100E8000CF92DF92EF92FF92CF93DF936C01990F95
:100E9000EE08FF08F7FE1FC06DE282EC91E00E94B1
:100EA0006004EC0166277727CB016C197D098E0958
:100EB0009F094AE00E94FC06C80FD91F8BE291E00F
:100EC0000E94EF068C0F9D1FDF91CF91FF90EF9056
:100ED000DF90CF9008954AE0C701B6010E94FC065A
:100EE000EC01ECCFCF93DF930E94EF06EC018BE295
:100EF00091E00E94EF068C0F9D1FDF91CF91089526
:100F00001F920F920FB60F9211242F933F938F933E
:100F10009F93AF93BF938091A3019091A401A0915F
:100F2000A501B091A6013091A20123E0230F2D3736
:100F300058F50196A11DB11D2093A2018093A30134
:100F40009093A401A093A501B093A6018091A7015D
:100F50009091A801A091A901B091AA010196A11DAB
:100F6000B11D8093A7019093A801A093A901B0930C
:100F7000AA01BF91AF919F918F913F912F910F90B7
:100F80000FBE0F901F90189526E8230F0296A11D03
:100F9000B11DD2CF1F920F920FB60F9211242F9333
:100FA0003F934F935F936F937F938F939F93AF93F1
:100FB000BF93EF93FF938091B0019091B101A09105
:100FC000B201B091B301892B8A2B8B2BD1F1909177
:100FD000AB01E091AC01F091AD0180818927808364
:100FE0008091B0019091B101A091B201B091B30193
:100FF000181619061A061B069CF48091B0019091F0
:10100000B101A091B201B091B3010197A109B10959
:101010008093B0019093B101A093B201B093B3015A
:10102000FF91EF91BF91AF919F918F917F916F91C0
:101030005F914F913F912F910F900FBE0F901F9096
:101040001895809114010E949403EACF1F920F9289
:101050000FB60F9211242F933F934F935F936F938B
:101060007F938F939F93AF93BF93EF93FF9382EC04
:1010700091E00E943E04FF91EF91BF91AF919F914B
:101080008F917F916F915F914F913F912F910F9031
:101090000FBE0F901F9018951F920F920FB60F92D0
:1010A00011242F938F939F93EF93FF93E091D2019D
:1010B000F091D3018081E091D801F091D90182FDB6
:1010C0001BC090818091DB018F5F8F732091DC01C9
:1010D000821741F0E091DB01F0E0EE53FE4F958F77
:1010E0008093DB01FF91EF919F918F912F910F9052
:1010F0000FBE0F901F9018958081F4CF1F920F9212
:101100000FB60F9211242F933F934F935F936F93DA
:101110007F938F939F93AF93BF93CF93EF93FF935F
:10112000E0917403F0917503C08180917603C82328
:101130008091770390917803209177033091780321
:101140002F3F3F4F29F001969093780380937703C8
:1011500020917203211115C0C1114BC0813A910534
:1011600058F010927B0390937E0380937D0381E07F
:1011700080937C038093720310927803109277031C
:1011800038C0213099F4CC23A1F1E0917C032E0FDB
:1011900020937C03F0E0EE58FC4F8F3F910519F04F
:1011A00010F08FEF90E0858782E0E4CF223009F0E5
:1011B00047C0E0917C03813A910510F4E73CA0F12F
:1011C000E83C18F081E080937B0380917D0390914F
:1011D0007E039093740480937304E093720483E01D
:1011E00080937203E0917903F0917A03309709F0CC
:1011F000099580918104882329F081E0C11180E064
:101200000E94FE05FF91EF91CF91BF91AF919F9109
:101210008F917F916F915F914F913F912F910F909F
:101220000FBE0F901F901895C111E3CF91E09E0F54
:1012300090937C03F0E0EE58FC4F858781E09ACFD5
:101240002330B9F6C111D5CF97CFDF92EF92FF923D
:101250000F931F93CF93DF93EC01D62E8A01790170
:10126000F0E090E080E030E0E0E0DE01AE0FB11DA4
:101270002C91FF5F222339F0320F2E9F800D911D9C
:1012800011241C92F0E03323B9F0DE1611F0F23095
:1012900098F0232F2695820F911D632F70E00E94F6
:1012A0000A14DE01A60FB11D3C93D8013C91311107
:1012B0000FC06C9390E080E0EF5FDE16B0F681E047
:1012C000DF91CF911F910F91FF90EF90DF900895E4
:1012D000D7013C91332369F380E0F2CFE2ECF1E0F7
:1012E0001382128288EE93E0A0E0B0E084839583BD
:1012F000A683B7838DE191E09183808385EC90E0B4
:101300009587848784EC90E09787868780EC90E0CF
:10131000918B808B81EC90E0938B828B82EC90E0C0
:10132000958B848B86EC90E0978B868B118E128E3A
:10133000138E148E10928004E2E7F3E0118281E0B4
:10134000848389E290E093838283509810926D03A6
:10135000EFE5F2E08BE0818388E0848383E290E034
:101360009383828323980895CF93DF93CDB7DEB71D
:10137000EB970FB6F894DEBF0FBECDBF789484B55F
:10138000826084BD84B5816084BD85B5826085BD81
:1013900085B5816085BD80916E00816080936E000F
:1013A0001092810080918100826080938100809101
:1013B00081008160809381008091800081608093B2
:1013C00080008091B10084608093B1008091B00072
:1013D00081608093B00080917A00846080937A006D
:1013E00080917A00826080937A0080917A00816097
:1013F00080937A0080917A00806880937A001092BE
:10140000C100E091D201F091D30112E01083E0918C
:10141000CE01F091CF011082E091D001F091D10185
:1014200080E180831092DA01E091D601F091D7013A
:1014300086E08083E091D401F091D50180818061C4
:101440008083E091D401F091D50180818860808310
:10145000E091D401F091D501808180688083E09192
:10146000D401F091D50180818F7D80838EE291E05F
:101470000E9472078BE08093730388E08093760369
:1014800083E290E09093750380937403239881E046
:1014900080938104109280041093B0001093B100E7
:1014A00084E68093B3008093B4001092B2008091E0
:1014B0007203833011F41092720384E08093700001
:1014C0009E012F5F3F4F590198EB292E9BE0392E4B
:1014D000412C512C80917203833009F01DC2809100
:1014E0007B03882309F465C080E480937104109223
:1014F00048041092470410924C0410924B0410922E
:101500004A041092490410924F0410925004109211
:101510005104109252041092700410926F04809142
:10152000710486FDC5C110917204812F8F7B8430B8
:1015300009F0C1C08091800360E073E290E00E94F6
:10154000EE04882309F444C18091810390E044E1D2
:1015500050E0143009F048C060EC78E00E94CD04FF
:10156000882309F435C18091820360E372E090E042
:101570000E94EE04882309F42BC181E0809371045A
:10158000809177049091780490934A048093490461
:101590008091790490917A0490934C0480934B0449
:1015A0008091750490917604909348048093470449
:1015B0007FC11092710480914704909148049093E8
:1015C00076048093750480914B0490914C04909321
:1015D0007A04809379048091490490914A0490930D
:1015E00078048093770483CF60E871E10E94CD0492
:1015F000882309F4EDC043E060E280E391E00E94BB
:10160000B90620914F04909150046091510480914B
:101610005204462F50E050934C0440934B04422F09
:10162000592F4E3E37E8530719F523E030E0309349
:1016300048042093470490E090934A04809349041F
:1016400080E290E09093700480936F048AE795E0C5
:101650000E94F6008091710480FF2AC129E030E0E9
:10166000309348042093470480628093710420C122
:101670009095291310C030E030934A042093490418
:10168000982F909569130CC088E090E090934804DF
:1016900080934704D5CF50934A0440934904F0CF38
:1016A0002AE030E0309348042093470460934B04D1
:1016B00080934C04C5CF143609F08AC08CE191E0C8
:1016C0000E945005882309F483C043E060E18CE167
:1016D00091E00E94B906D0904F040D2D1091500456
:1016E000BBE0EB2EF12C023040E21407F9F0AEE043
:1016F000EA2EF12C0A3A8AE51807C1F0FDE0EF2E38
:10170000F12C043592E3190789F0EFE0EE2EF12C6D
:101710000330A1E01A0751F080E1E82EF12C0332EA
:10172000BBEC1B0719F07CE0E72EF12CD1268D2DA8
:1017300082958F70D82643E260E28CE191E00E94AE
:10174000B90680914F0490915004A0915104B0913A
:1017500052049C0164E0369527956A95E1F7309331
:101760004A04209349042A2F30E030934C042093FC
:101770004B04282F2A2729273D2D3F70482F4F70D3
:10178000341719F034E030937104ECE0EE16F104F4
:1017900049F43091710430613093710410934E0418
:1017A00000934D042B1729F080917104846080937D
:1017B000710480E390E09093700480936F04F09242
:1017C0004804E09247048AE397E00E94F60070C064
:1017D00080917204803209F0D0C041E06FE088E06F
:1017E00091E00E94B90680919E0364E071E090E070
:1017F0000E94EE04882309F4C0C080914F049091A8
:101800005004A0915104B09152049C012F713327D0
:1018100030934A042093490455E0B695A7959795CF
:1018200087955A95D1F7392F3370AC0155275093CE
:101830004C0440934B04409173045091740445361A
:10184000544008F097C020917104226020937104E5
:1018500020917F042F5F20937F0420FF19C0213047
:1018600019F021E0209371043091790440917A04B9
:10187000282F2095231729F02091710424602093AC
:10188000710430934B0440934C04392F30953370DE
:1018900087E190E0311102C084E090E09093480429
:1018A000809347048FE090E09093700480936F04DE
:1018B00083E391E00E94EF0660914B0470914C0429
:1018C00090E080E040E10E94FC068BE291E00E9403
:1018D000EF062091A0013091A10180914B049091DD
:1018E0004C049093A1018093A0018091A00190915C
:1018F000A1012817390751F080E491E00E94EF061A
:101900008091A0019091A1010E94400780917203F3
:10191000833011F4109272038091A0019091A10183
:10192000892B51F08EE591E00E94EF068091A00195
:101930009091A1010E9440078091A0019091A10186
:10194000892B59F08091A0019091A10184309105DB
:1019500009F4CAC5059709F4FFC580E090E0892B1A
:1019600009F4B8CD0E942A04882309F4B3CD0E945B
:101970000000B0CD10927F048BCF88E690E00E94EB
:101980005005882309F446C0809172048A3129F0F9
:101990008A3219F0803209F03DC090E0BC016150FC
:1019A000710977FDBC017595679543E088E690E085
:1019B0000E94B90680914F0490915004A091510467
:1019C000B09152049C012F77332730934C0420931D
:1019D0004B0447E0B695A795979587954A95D1F71B
:1019E00090934A04809349042091720430E0C90125
:1019F000019797FDC9019595879590937004809301
:101A00006F0488E190E0909348048093470480EE4F
:101A100091E0DBCE81E08093C10189E793E0909370
:101A2000BF018093BE011092C0010E948D058130DC
:101A300009F063C0C12CD12C760110E090917204A2
:101A40008091C1018917E0F40E948D05082F0E9442
:101A50008D0501110BC0813009F04FC0CC0CDD1C8D
:101A6000EE1CFF1C6894C0F81F5FE8CF013009F03E
:101A700044C0811142C0CC0CDD1CEE1CFF1CF4CF15
:101A8000812F90E09093700480936F04C0924F0474
:101A9000D0925004E0925104F09252048C2D8F7336
:101AA00090E090934C0480934B049601B6E03695F9
:101AB0002795BA95E1F72F71332730934A04209385
:101AC0004904960122273071232B31F4805C9F4F0B
:101AD00090934C0480934B0480E880937104D3FE70
:101AE00003C088E88093710481E190E090934804FA
:101AF000809347048FEC99E068CE8091800368E67C
:101B00007AE090E00E94EE04882309F448C08091B6
:101B1000810344E150E068E773E090E00E94CD0467
:101B20008823E9F183E08093C1018CEB91E09093ED
:101B3000BF018093BE011092C0010E948D058130CB
:101B400071F50E948D0581112AC0C12CD12C76011E
:101B500010E0909172048091C101891708F076C05D
:101B60000E948D05982E1330B1F00E948D05082F2C
:101B7000133021F40E948D05081311C021E0921248
:101B80005BC001110CC0CC0CDD1CEE1CFF1C68946A
:101B9000C0F81F5FDECF0E948D05981631F3F090DC
:101BA00072043CE3F31619F044E0F41215C00091FE
:101BB000800310E068E273E2C8010E94EE04811124
:101BC00092C06CE175E2C8010E94EE0468EB7BE014
:101BD00007E010E081118BC0B2E2FB1609F4F3C0FC
:101BE000E4E2FE1222C180E990E00E9450058823C1
:101BF00009F41BC143E060E180E990E00E94B9066E
:101C000080914F0490915004A0915104B0915204DE
:101C1000492F5A2F6B2F772750934C0440934B0436
:101C2000992790934A048093490480E190E090932F
:101C3000700480936F04F6C09110B1CF013009F0A9
:101C4000AECFCC0CDD1CEE1CFF1CA3CF812F90E08F
:101C50009093700480936F04C0924F04D09250040C
:101C6000E0925104F09252042C2D30E08D2D90E042
:101C7000133200F540E84093710430934C042093F4
:101C80004B0490934A0480934904E0FE03C088E823
:101C900080937104153128F08091710480618093E4
:101CA000710482E190E0909348048093470483E7B5
:101CB0009AE08BCD40E94093710430934C0420931B
:101CC0004B0490934A0480934904C7019F739093F7
:101CD0004E0480934D04F7FE03C088E9809371049D
:101CE00083E190E0E0CF68E670E106E010E08091EB
:101CF000810390E0A4E044E150E0FA1213C060EDEB
:101D000077E00E94CD04882309F48FC0809182037C
:101D100064EF71E090E00E94EE04882309F485C02E
:101D200081E82CCC0E94CD04882309F455CF43E0F0
:101D30006CE18CE790E00E94B90680E88093710422
:101D400040914F045091500460915104709152049D
:101D5000DB01CA0124E0B695A795979587952A954A
:101D6000D1F79C0190934C0480934B04DB01CA0192
:101D7000E4E1B695A79597958795EA95D1F7909365
:101D80004A048093490484E090E0E0E0F22FFF7081
:101D9000EF0FF4E036952795FA95E1F70197B1F743
:101DA0004E274F70552766277727452B462B472B05
:101DB00019F084E880937104109348040093470459
:101DC0008CE190E071CD80917304909174048C3E0D
:101DD0009C4508F06DCD809180036EE072E090E04C
:101DE0000E94EE04882309F463CD8091A0036EE085
:101DF00072E090E00E94EE04882309F459CD81E05E
:101E000080937104809177049091780490934A04B0
:101E1000809349048091790490917A0490934C04C2
:101E200080934B0485E090E0BFCB80917204982FA3
:101E30009F7D943419F0863009F07DC084EA90E0EB
:101E40000E945005882309F476C080917204863080
:101E5000B1F481E2809371048091770490917804C9
:101E600090934A04809349048091790490917A0474
:101E700090934C0480934B0485E190E095CB43E034
:101E800060E284EA90E00E94B90690914F0480914C
:101E9000500410915104209152049093490480936E
:101EA0004A0430917204022F0095343639F543E428
:101EB00060E184EA90E00E94B90680914F0490911D
:101EC0005004101731F09095981719F094E0909302
:101ED0007104982F812F90934C0480934B0480E3DE
:101EE00090E09093700480936F0486E190E090936B
:101EF0004804809347048EEB9AE067CC101306C029
:101F0000412F50E050934C0440934B0489130EC072
:101F100090E090934A048093490480E290E090938B
:101F2000700480936F0484E190E0E1CF10934B0440
:101F300020934C04F2CF80917204843269F588EBCF
:101F400090E00E945005882339F143E060E188EB7E
:101F500090E00E94B90610914F0480915004809542
:101F6000181719F084E0809371048DE692E00E94C6
:101F7000F600812F90E090934C0480934B041092D4
:101F80004A041092490480E190E090937004809399
:101F90006F048EE190E008CB809172048434C1F428
:101FA0008CEC90E00E945005882391F043E060E2C1
:101FB0008CEC90E00E94B90680E88093710480E286
:101FC00090E09093700480936F048DE190E0ECCAF0
:101FD000809180038E3E08F06AC08091810344E1C5
:101FE00050E062E074E090E00E94CD04882309F4A0
:101FF0005EC080917204843209F059C000910F01D3
:10200000802F8071409107015091080104FD04C0A8
:102010004091090150910A01001F0027001F21E093
:10202000811101C020E063E080E10E94F20480E8B9
:102030008093710490914F0480915004292F382F80
:10204000482F42954F708F7054E0369527955A95DA
:10205000E1F72F70392F3F709FE094279827922740
:10206000391719F094E8909371046091730470919A
:102070007404683F714128F49091710492609093C8
:1020800071044093490410924A0440E1849FC001C6
:102090001124822B90934C0480934B0480E190E0B8
:1020A0009093700480936F048BE190E07DCA80EE82
:1020B00090E00E945005882371F18091720484326F
:1020C00051F543E060E180EE90E00E94B906809116
:1020D000A20368E072E090E00E94EE048823D9F049
:1020E00080914F049091500498279F3FA1F490E075
:1020F00090934C0480934B0480E190E090937004A3
:1021000080936F048AE190E09093480480934704A1
:1021100088ED94E05ACB80917204803709F04FC06B
:1021200041E068E084EF90E00E94B90680914F049E
:1021300090915004A0915104B0915204892B8A2BA4
:102140008B2BE9F541E16FE184EF90E00E94B90645
:10215000C0904F04D0905004E0905104F09052048D
:102160004FE461E184EF90E00E94B9069091500441
:102170008091510489279827892790934C04809354
:102180004B04C0924F04D0925004E0925104F0925C
:102190005204D0924A04C0924904F0924E04E09254
:1021A0004D048CE190E0909348048093470488E3C9
:1021B00090E09093700480936F0480E856CA8091F9
:1021C0007204823108F43BC192E3D5011D929A95C5
:1021D000E9F743E060E08250990B242F30E02817A4
:1021E000390794F42E583C4FF9012585223308F025
:1021F00026C1F501E20FF11D30813F5F3083621788
:1022000008F4622F4E5FE9CF1EAA1DAA9E012B5C27
:102210003F4FAE014A5C5F4FC5010E9425098823EC
:1022200009F40DC182E3D5011D928A95E9F7209149
:1022300072042250330B44E060E0842F90E0821758
:10224000930794F48E589C4FFC018585823308F0E7
:10225000F6C0F501E80FF11D90819F5F908368172C
:1022600008F4682F4E5FE9CF1CAA1BAA9E012D5CC3
:102270003F4FAE014C5C5F4FC5010E94250988238A
:1022800009F4DDC08091720486951FEF180FEBA84A
:10229000EE2011F01EEF180F212F30E03093700464
:1022A00020936F04C901019797FD4F969C0145E06B
:1022B000359527954A95E1F73AAF29AF39AD3BAF50
:1022C000CDA8C11003C0EE2009F4B9C06CA882E308
:1022D000689E300111248EA8889E40011124C89E5A
:1022E00060011124E89E7001112443E04FAB18AE49
:1022F000812F113208F080E29BA9992309F47FC055
:10230000A2E0B0E0B0934804A093470400E020E0CE
:10231000A7016FA90E94F20480914F04909150048C
:10232000A0915104B091520438AD24E0329FF001E5
:102330001124E15AFB4F80839183A283B3834FA979
:10234000405C4FAB10523F5F38AFEBADE31780F608
:102350002091730430917404203D3740F0F4E9ADCE
:10236000FAADEE0FFF1FEE0FFF1FE15AFB4F00818A
:1023700011812281338140917B0450917C046091D2
:102380007D0470917E04041715072607370729F48A
:102390002091710421602093710480937B049093B9
:1023A0007C04A0937D04B0937E042091800392E38B
:1023B000299F900111243093540420935304809159
:1023C0008103899FC0011124909356048093550482
:1023D00090925C0480925B0470925E0460925D0453
:1023E000C114D10419F1E114F10499F4D092580404
:1023F000C092570470925A046092590459CAE1E09D
:10240000F0E0F0934804E093470400E021E0A601E7
:1024100080CFF0925A04E09259049092580480922E
:102420005704D0925C04C0925B0442CA9092580454
:1024300080925704F0925A04E092590439CAE0910C
:102440007204E63008F434CA11E025EC3DE94CE1B1
:1024500051E8F0E00AE0612F70E0CB0102968E17A0
:102460009F077CF58E589C4FDC011D968C916E5811
:102470007C4FDB011D966C91809F7001112498E0C8
:10248000699FD0011124EA16FB06C8F0609FB001D5
:102490001124A8E08A9FC0011124FF24F394681737
:1024A000790710F492E0F92E63E971E080E091E0A1
:1024B0000E9497139B01AC012F251F5FCCCFF12CFD
:1024C000F3CF20934F043093500440935104509322
:1024D000520480E290E09093700480936F04109215
:1024E000480410924704E4C98FE691E00E94720705
:1024F00010E000E080EBE82E84E0F82EC7010E9497
:10250000030163E070E080E090E00E946203B5E0C8
:10251000EB1AF108E3E5EE16E2E0FE0679F788E053
:102520000E9494030330110531F060E971E080E00E
:1025300090E00E9462030F5F1F4F04301105D1F637
:102540008CE791E00E94720780917203833009F05A
:1025500004CA1092720301CA87E891E00E947207D0
:102560008FB7F894C090A301D090A401E090A5018A
:10257000F090A6018FBF2FB7F8948091A30190919E
:10258000A401A091A501B091A6012FBF8C199D09AE
:10259000AE09BF0988359240A105B105A8F40E9493
:1025A0003613A20191010E94C913DC01CB018854AA
:1025B000944FAF4FBF4F0E94030162E070E080E094
:1025C00090E00E946203D7CF88E00E94940384E9E0
:1025D00091E0B8CF8F929F92AF92BF92CF92DF924D
:1025E000EF92FF92CF93DF93EC01688179818A812A
:1025F0009B81611571058105910521F464E279EDF6
:102600008BE597E02DE133EF41E050E00E94C913E4
:1026100049015A019B01AC01A7EAB1E40E94E81309
:102620006B017C01ACEEB4EFA50194010E94F6139E
:10263000C60ED71EE81EF91EF7FE06C081E0C81AB6
:10264000D108E10880E8F80AC882D982EA82FB82D0
:10265000C701B6019F77DF91CF91FF90EF90DF9098
:10266000CF90BF90AF909F908F9008958F929F9240
:10267000AF92BF92CF92DF92EF92FF9260911501DD
:1026800070911601809117019091180161157105E3
:102690008105910521F464E279ED8BE597E02DE168
:1026A00033EF41E050E00E94C91349015A019B01F8
:1026B000AC01A7EAB1E40E94E8136B017C01ACEE27
:1026C000B4EFA50194010E94F613C60ED71EE81EB2
:1026D000F91EF7FE06C081E0C81AD108E10880E8BB
:1026E000F80AC0921501D0921601E0921701F092FB
:1026F0001801C701B6019F77FF90EF90DF90CF9050
:10270000BF90AF909F908F90089560931501709344
:10271000160180931701909318010895FB01DC01C5
:1027200002C005900D9241505040D8F70895DB014A
:102730008F939F930E94E813BF91AF91A29F800D4A
:10274000911DA39F900DB29F900D11240895A1E2B9
:102750001A2EAA1BBB1BFD010DC0AA1FBB1FEE1F1B
:10276000FF1FA217B307E407F50720F0A21BB30B66
:10277000E40BF50B661F771F881F991F1A9469F7E2
:1027800060957095809590959B01AC01BD01CF013E
:102790000895052E97FB1EF400940E94E01357FD48
:1027A00007D00E94A71307FC03D04EF40C94E0134B
:1027B00050954095309521953F4F4F4F5F4F08956D
:1027C00090958095709561957F4F8F4F9F4F08959D
:1027D0000E94FB13A59F900DB49F900DA49F800DA8
:1027E000911D11240895B7FF0C94E8130E94E8137B
:1027F000821B930B0895A29FB001B39FC001A39FBA
:10280000700D811D1124911DB29F700D811D112429
:10281000911D0895AA1BBB1B51E107C0AA1FBB1F36
:10282000A617B70710F0A61BB70B881F991F5A955C
:10283000A9F780959095BC01CD010895EE0FFF1F7B
:0C2840000590F491E02D0994F894FFCF6E
:10284C001B00269E0002049E0029029E0007010028
:10285C006E000000FF01000000000000006004C0DA
:10286C0003ED03AD041E04FC0310040D0A005465B3
:10287C00737400495220636F6D6D616E643A200071
:10288C0063757272656E74436F6D6D616E6420C397
:10289C00A46E647261642074696C6C3A2000637578
:1028AC007272656E74436F6D6D616E643A20006D6B
:1028BC00656F772829207374617274006D656F776A
:1028CC00282920656E640068697373282920737445
:1028DC006172740068697373282920656E64000046
:00000001FF
