:100000000C94CC000C94F4000C94F4000C94F400C8
:100010000C94F4000C94F4000C94F4000C944B0534
:100020000C94FF050C94F4000C94F4000C94F40070
:100030000C94F4000C94F4000C94F4000C94F40070
:100040000C9401050C94F4000C94CD050C94A705B8
:100050000C94F4000C94F4000C94F4000C94F40050
:100060000C94F4000C94F40018002860095802B0B5
:1000700004580258025802102D00000006002628DD
:10008000236810F4012C06F4012602806E007B0424
:10009000050026E02070100E022A060E020E020055
:1000A00041000000140026801180113002900630BB
:1000B000023002006E0000001E002638081C040EEC
:1000C000022A060E020E0200320000001D00262247
:1000D0000B220BEE026608EE02EE02806E000000BC
:1000E0001A0026F603BC050802BC050802D401006C
:1000F0004B0000001C00261F015D033E023E021F54
:10010000015D03A06E00000004002604010C03043E
:10011000011C0704010C03006E0000000C00258088
:100120000DC006B0011005B001B001008200000052
:1001300008002600238011300290063002300200B1
:100140006E007B0400000000240027002A0002004B
:10015000000000250028002B00000000080002011C
:100160000000030407000000000000000004040475
:100170000404040404020202020202030303030350
:10018000030102040810204080010204081020012D
:10019000020408102000EF0611241FBECFEFD8E0A4
:1001A000DEBFCDBF24E0AAE2B1E001C01D92AA30BB
:1001B000B207E1F711E0A0E0B1E0E4E7F3E202C04A
:1001C00005900D92AA32B107D9F710E0CCECD0E03F
:1001D00004C02197FE010E94B211CB3CD107C9F7A0
:1001E0000E9435070C94B8110C9400002091FB0379
:1001F0003091FC032817390728F48091F9038160B6
:100200008093F903089590E0FC01E75AFE4F249192
:10021000FC01EF57FE4F3491FC01E359FE4FE4918E
:10022000EE23C9F0222339F0233001F1A8F4213064
:1002300019F1223029F1F0E0EE0FFF1FE15BFE4FD4
:10024000A591B4918FB7F894EC91611126C03095C7
:100250003E233C938FBF08952730A9F02830C9F082
:10026000243049F7809180008F7D03C08091800009
:100270008F7780938000DFCF84B58F7784BDDBCF0D
:1002800084B58F7DFBCF8091B0008F778093B000D5
:10029000D2CF8091B0008F7DF9CF3E2BDACF3FB720
:1002A000F8948091400190914101A0914201B09158
:1002B000430126B5A89B05C02F3F19F00196A11D4B
:1002C000B11D3FBFBA2FA92F982F8827BC01CD01A0
:1002D000620F711D811D911D42E0660F771F881FFF
:1002E000991F4A95D1F708958F929F92AF92BF922E
:1002F000CF92DF92EF92FF924B015C010E944F017F
:100300006B017C010E944F016C197D098E099F09C8
:10031000683E734081059105A8F321E0821A910897
:10032000A108B10888EEC80E83E0D81EE11CF11CBC
:1003300081149104A104B10429F7FF90EF90DF909C
:10034000CF90BF90AF909F908F900895909114019F
:1003500089130BC0EEE4F1E0E4919FEF9093140158
:10036000E13049F028F0E23061F060E00C940301E4
:1003700010926E00FACF90916F009D7F90936F0066
:10038000F4CF909170009D7F9093700091E09093D6
:10039000B0009091B100987F94609093B10010925A
:1003A000B300E3CFAF92BF92CF92DF92EF92FF9272
:1003B0000F931F93CF93DF936C017B018B01040F8D
:1003C000151FEB015E01AE18BF08C017D10759F029
:1003D0006991D601ED91FC910190F081E02DC6016B
:1003E0000995892B79F7C501DF91CF911F910F9165
:1003F000FF90EF90DF90CF90BF90AF900895FC01F9
:10040000538D448D252F30E0842F90E0821B930B79
:10041000541710F0CF96089501970895FC01918D1F
:10042000828D981761F0A28DAE0FBF2FB11D5D9622
:100430008C91928D9F5F9F73928F90E008958FEFC4
:100440009FEF0895FC01918D828D981731F0828D78
:10045000E80FF11D858D90E008958FEF9FEF0895CF
:10046000FC01918D228D892F90E0805C9F4F821B33
:1004700091098F73992708958AE491E00E943002D0
:1004800021E0892B09F420E0822F089580E090E09C
:10049000892B29F00E943C0281110C9400000895E0
:1004A000FC01A48DA80FB92FB11DA35ABF4F2C91E9
:1004B000848D90E001968F739927848FA689B789E0
:1004C0002C93A089B1898C91837080648C93938DD7
:1004D000848D981306C00288F389E02D80818F7D7A
:1004E00080830895EF92FF920F931F93CF93DF9332
:1004F000EC0181E0888F9B8D8C8D98131AC0E88960
:10050000F989808185FF15C09FB7F894EE89FF892E
:100510006083E889F98980818370806480839FBFCC
:1005200081E090E0DF91CF911F910F91FF90EF90CC
:100530000895F62E0B8D10E00F5F1F4F0F731127DC
:10054000E02E8C8D8E110CC00FB607FCFACFE88917
:10055000F989808185FFF5CFCE010E945002F1CF4D
:10056000EB8DEC0FFD2FF11DE35AFF4FF0829FB78B
:10057000F8940B8FEA89FB8980818062CFCFCF937B
:10058000DF93EC01888D8823B9F0AA89BB89E889BB
:10059000F9898C9185FD03C0808186FD0DC00FB661
:1005A00007FCF7CF8C9185FFF2CF808185FFEDCFDF
:1005B000CE010E945002E9CFDF91CF91089522E34E
:1005C000FC012E9FC0012F9F900D1124480F591F31
:1005D0007695679576956795CB01880F991F860F5D
:1005E000971F8417950750F485E0869F9001879F99
:1005F000300D112481E02417350708F480E00895B8
:100600004CEE5FEF0C94DF024F925F926F927F92FD
:100610009F92AF92BF92CF92DF92EF92FF920F9391
:100620001F93CF93DF93182F5A01922EC62FD0E03D
:10063000C95FDC4F412C512C32014394C12CD12C89
:100640007601112301F19920B1F08881B50190E084
:100650000E940003002379F1CC0CDD1CEE1CFF1C72
:10066000882311F06894C0F8440C551C661C771C54
:1006700011502296E6CF898144E150E0B50190E027
:100680000E94DF02E7CFC092D703D092D803E09256
:10069000D903F092DA03DF91CF911F910F91FF9070
:1006A000EF90DF90CF90BF90AF909F907F906F9032
:1006B0005F904F9008958823B9F2C428D528E62882
:1006C000F728D2CFCF93DF93EC01FC0133966591ED
:1006D00074918091080390E00E940003882369F0E0
:1006E000FE013596659174918091090344E150E0D3
:1006F00090E0DF91CF910C94DF0280E0DF91CF9109
:10070000089522E3289FA001299F500D112476957A
:100710006795769567959B01220F331F260F371F2C
:100720004217530750F085E0869F9001879F300D58
:10073000112481E02417350708F480E00895BF9262
:10074000CF92DF92EF92FF920F931F93CF93DF939D
:10075000109149018091FA03B12C1817A0F5812F4F
:100760008170B82E0091480101111EC0E12FF0E008
:10077000E650FD4FE584F12CCCEEDFEF882311F03D
:10078000C4E1D0E0C0904601D0904701CC0DDD1D02
:10079000BE01C7010E948103882301F181E090E03E
:1007A00090934501809344010F5F0093480180912D
:1007B0004401909145010817190628F0109248014C
:1007C0001F5F109349018B2DDF91CF911F910F91E6
:1007D000FF90EF90DF90CF90BF900895CC0DDD1D7E
:1007E000BE01C7010E948103882319F082E090E0D6
:1007F000D7CFB6016C0F7D1FC7010E9481038823EC
:1008000019F083E090E0CCCFBB24BA94DCCF809188
:100810000804811102C02D98089560E00C94030132
:10082000882349F080910804811102C02D9A08950F
:1008300061E00C9403010C9407048F929F92AF9295
:10084000BF92CF92DF92EF92FF921F93CF93DF93ED
:10085000EC010E944F016B017C014B015C0188E0BF
:10086000880E911CA11CB11C10E0F89461E08091ED
:10087000F5020E9403018091F8029091F902823002
:10088000910538F0880F991F880F991F05970197D8
:10089000F1F760E08091F5020E9403017894111154
:1008A00003C081E00E9410048091F6029091F7024B
:1008B000C80ED91EE11CF11CF8940E944F019B0147
:1008C000281939092C173D0778F00E9407047894FD
:1008D000DF91CF911F91FF90EF90DF90CF90BF906D
:1008E000AF909F908F90089511E06C157D058E0557
:1008F0009F0518F3BACFCF92DF92EF92FF928AE171
:1009000090E09093F7028093F60285E090E0909358
:10091000F9028093F8028091F50290E0FC01EF5714
:10092000FE4F249183599E4FFC018491882399F0B6
:1009300090E0880F991FFC01EC5BFE4FA591B491EC
:10094000FC01E15BFE4F859194918FB7F894EC9197
:10095000E22BEC938FBF80E093E20E941D040E9483
:100960004F016B017C01F4E0CF1AD108E108F108D6
:100970000E944F016C197D098E099F09603C7840E7
:1009800081059105A8F380E392E0FF90EF90DF905E
:10099000CF900C941D04FF920F931F93CF93DF937E
:1009A000CDB7DEB764970FB6F894DEBF0FBECDBFEC
:1009B000162FF42E44E150E0BC01CE0101960E94B6
:1009C0002A110889802F80714885598504FD02C04D
:1009D0004A855B85001F0027001F21E0811101C0AF
:1009E00020E06F2D812F0E94040364960FB6F894C7
:1009F000DEBF0FBECDBFDF91CF911F910F91FF9052
:100A000008951F920F920FB60F9211242F933F93C8
:100A10008F939F93AF93BF9380913C0190913D0141
:100A2000A0913E01B0913F0130913B0123E0230FA3
:100A30002D3758F50196A11DB11D20933B018093E0
:100A40003C0190933D01A0933E01B0933F01809102
:100A5000400190914101A0914201B0914301019662
:100A6000A11DB11D8093400190934101A0934201CB
:100A7000B0934301BF91AF919F918F913F912F917F
:100A80000F900FBE0F901F90189526E8230F029627
:100A9000A11DB11DD2CF1F920F920FB60F9211243C
:100AA0002F933F934F935F936F937F938F939F9376
:100AB000AF93BF93EF93FF9380912F0190913001FB
:100AC000A0913101B0913201892B8A2B8B2BD1F16E
:100AD00090912A01E0912B01F0912C0180818927CE
:100AE000808380912F0190913001A0913101B091CC
:100AF0003201181619061A061B069CF480912F0164
:100B000090913001A0913101B09132010197A1097A
:100B1000B10980932F0190933001A0933101B093DC
:100B20003201FF91EF91BF91AF919F918F917F9192
:100B30006F915F914F913F912F910F900FBE0F904A
:100B40001F901895809114010E94A601EACF1F9270
:100B50000F920FB60F9211242F933F934F935F93F1
:100B60006F937F938F939F93AF93BF93EF93FF9375
:100B70008AE491E00E945002FF91EF91BF91AF9102
:100B80009F918F917F916F915F914F913F912F91A5
:100B90000F900FBE0F901F9018951F920F920FB6D7
:100BA0000F9211242F938F939F93EF93FF93E091D4
:100BB0005A01F0915B018081E0916001F091610147
:100BC00082FD1BC09081809163018F5F8F732091A4
:100BD0006401821741F0E0916301F0E0E65BFE4FB3
:100BE000958F80936301FF91EF919F918F912F914A
:100BF0000F900FBE0F901F9018958081F4CF1F9219
:100C00000F920FB60F9211242F933F934F935F9340
:100C10006F937F938F939F93AF93BF93CF93EF93F4
:100C2000FF93E091FC02F091FD02C0818091FE02F1
:100C3000C8238091FF02909100032091FF02309120
:100C400000032F3F3F4F29F00196909300038093BC
:100C5000FF022091FA02211115C0C1114BC0813A47
:100C6000910558F0109203039093060380930503B7
:100C700081E0809304038093FA02109200031092A3
:100C8000FF0238C0213099F4CC23A1F1E091040394
:100C90002E0F20930403F0E0E650FD4F8F3F9105A7
:100CA00019F010F08FEF90E0858782E0E4CF2230DA
:100CB00009F047C0E0910403813A910510F4E73C44
:100CC000A0F1E83C18F081E08093030380910503D4
:100CD000909106039093FC038093FB03E093FA0347
:100CE00083E08093FA02E0910103F09102033097D0
:100CF00009F0099580910904882329F081E0C11148
:100D000080E00E941004FF91EF91CF91BF91AF91CD
:100D10009F918F917F916F915F914F913F912F9113
:100D20000F900FBE0F901F901895C111E3CF91E067
:100D30009E0F90930403F0E0E650FD4F858781E01D
:100D40009ACF2330B9F6C111D5CF97CFDF92EF926A
:100D5000FF920F931F93CF93DF93EC01D62E8A015E
:100D60007901F0E090E080E030E0E0E0DE01AE0FFD
:100D7000B11D2C91FF5F222339F0320F2E9F800D81
:100D8000911D11241C92F0E03323B9F0DE1611F00E
:100D9000F23098F0232F2695820F911D632F70E07B
:100DA0000E947F11DE01A60FB11D3C93D8013C913A
:100DB00031110FC06C9390E080E0EF5FDE16B0F66B
:100DC00081E0DF91CF911F910F91FF90EF90DF9025
:100DD0000895D7013C91332369F380E0F2CFEAE430
:100DE000F1E01382128288EE93E0A0E0B0E0848309
:100DF0009583A683B78389E191E09183808385EC15
:100E000090E09587848784EC90E09787868780ECD4
:100E100090E0918B808B81EC90E0938B828B82ECC5
:100E200090E0958B848B86EC90E0978B868B118E6F
:100E3000128E138E148E10920804EAEFF2E01182E3
:100E400081E0848389E290E09383828350981092BA
:100E5000F502E7EEF1E08BE0818388E0848383E2B2
:100E600090E09383828323980895CF93DF93CDB747
:100E7000DEB7E7970FB6F894DEBF0FBECDBF78940C
:100E800084B5826084BD84B5816084BD85B582608F
:100E900085BD85B5816085BD80916E008160809340
:100EA0006E001092810080918100826080938100A9
:100EB00080918100816080938100809180008160B9
:100EC000809380008091B10084608093B100809114
:100ED000B00081608093B00080917A00846080933C
:100EE0007A0080917A00826080937A0080917A0003
:100EF000816080937A0080917A00806880937A0084
:100F00001092C100E0915A01F0915B0182E0808370
:100F1000E0915601F09157011082E0915801F09153
:100F2000590190E1908310926201E0915E01F0918D
:100F30005F0196E09083E0915C01F0915D0190810A
:100F400090619083E0915C01F0915D0190819860E7
:100F50009083E0915C01F0915D01908190689083B5
:100F6000E0915C01F0915D0190819F7D90839BE019
:100F70009093FB0298E09093FE0223E230E03093DE
:100F8000FD022093FC02239891E0909309041092B3
:100F900008048093B0008093B10084E68093B3008E
:100FA0008093B4001092B2008091FA02833011F461
:100FB0001092FA0284E0809370008091FA028330EC
:100FC00009F025C280910303882309F465C080E4F9
:100FD0008093F9031092D0031092CF031092D403A0
:100FE0001092D3031092D2031092D1031092D70320
:100FF0001092D8031092D9031092DA031092F803DA
:101000001092F7038091F90386FDC5C11091FA0390
:10101000812F8F7B843009F0C1C08091080360E08C
:1010200073E290E00E940003882309F444C1809198
:10103000090390E044E150E0143009F048C060EC4E
:1010400078E00E94DF02882309F435C180910A0309
:1010500060E372E090E00E940003882309F42BC152
:1010600081E08093F9038091FF03909100049093B5
:10107000D2038093D1038091010490910204909354
:10108000D4038093D3038091FD039091FE0390934A
:10109000D0038093CF037FC11092F9038091CF03D7
:1010A0009091D0039093FE038093FD038091D3032E
:1010B0009091D40390930204809301048091D10312
:1010C0009091D203909300048093FF0383CF60E854
:1010D00071E10E94DF02882309F4EDC043E060E281
:1010E00080E391E00E94CB042091D7039091D80334
:1010F0006091D9038091DA03462F50E05093D403D6
:101100004093D303422F592F4E3E37E8530719F52A
:1011100023E030E03093D0032093CF0390E090930E
:10112000D2038093D10380E290E09093F803809300
:10113000F7038AE795E00E94F6008091F90380FFAB
:101140002AC129E030E03093D0032093CF0380629E
:101150008093F90320C19095291310C030E030939B
:10116000D2032093D103982F909569130CC088E087
:1011700090E09093D0038093CF03D5CF5093D203C8
:101180004093D103F0CF2AE030E03093D003209396
:10119000CF036093D3038093D403C5CF143609F0F3
:1011A0008AC08CE191E00E946203882309F483C025
:1011B00043E060E18CE191E00E94CB04D090D70342
:1011C0000D2D1091D803FBE0EF2EF12C023040E200
:1011D0001407F9F0EEE0EE2EF12C0A3A8AE5180732
:1011E000C1F07DE0E72EF12C043592E3190789F078
:1011F0006FE0E62EF12C0330A1E01A0751F0A0E1D8
:10120000EA2EF12C0332BBEC1B0719F05CE0E52E53
:10121000F12CD1268D2D82958F70D82643E260E285
:101220008CE191E00E94CB048091D7039091D80388
:10123000A091D903B091DA039C0144E0369527953B
:101240004A95E1F73093D2032093D1032A2F30E05F
:101250003093D4032093D303282F2A2729273D2D09
:101260003F70482F4F70341719F034E03093F90372
:10127000ECE0EE16F10449F43091F903306130935B
:10128000F9031093D6030093D5032B1729F080910F
:10129000F90384608093F90380E390E09093F8036E
:1012A0008093F703F092D003E092CF038AE397E0B4
:1012B0000E94F60070C08091FA03803209F002C1EA
:1012C00041E06FE088E091E00E94CB04809126032A
:1012D00064E071E090E00E940003882309F4F2C00A
:1012E0008091D7039091D803A091D903B091DA03EC
:1012F0009C012F7133273093D2032093D10305E053
:10130000B695A795979587950A95D1F7392F33709C
:10131000AC0155275093D4034093D3034091FB0372
:101320005091FC034536544008F0C9C02091F903A0
:1013300022602093F903209107042F5F2093070474
:1013400020FF19C0213019F021E02093F9033091DA
:10135000010440910204282F2095231729F02091A1
:10136000F90324602093F9033093D3034093D4030B
:10137000392F3095337087E190E0311102C084E05D
:1013800090E09093D0038093CF038FE090E0909310
:10139000F8038093F7038091D3039091D403B0E0D6
:1013A000A0E019A2FE01B196AC01BD014F70552716
:1013B0006627772714E0B695A795979587951A9590
:1013C000D1F74A300CF037C6405D42930097A10533
:1013D000B10551F7309769F0DF010D900020E9F772
:1013E0001197AD014E1B5F0BBF018AE491E00E9493
:1013F000D20142E050E067E271E08AE491E00E94AD
:10140000D2018091FA02833011F41092FA02809195
:10141000D3039091D403049709F044C0F12CE12C3C
:10142000F9E8AF2EF1E0BF2EA5E7CA2EA1E0DA2E33
:1014300008E070EB472E74E0572E612C712CEEE41F
:101440008E2EE1E09E2E80911401883009F0F5C5C2
:10145000F401149117FF3AC663E070E080E090E079
:101460000E94740195E0491A510861087108A3E5CA
:101470004A16A2E05A066104710429F788E00E9426
:10148000A601B3E0EB16F10431F060E971E080E011
:1014900090E00E947401EFEFEE1AFE0AF4E0EF16FE
:1014A000F10439F680E090E0892B09F486CD0E94A2
:1014B0003C02882309F481CD0E9400007ECD109269
:1014C000070459CF88E690E00E946203882309F45C
:1014D00046C08091FA038A3129F08A3219F08032AD
:1014E00009F03DC090E0BC016150710977FDBC017D
:1014F0007595679543E088E690E00E94CB04809163
:10150000D7039091D803A091D903B091DA039C013D
:101510002F7733273093D4032093D30317E0B69566
:10152000A795979587951A95D1F79093D2038093B5
:10153000D1032091FA0330E0C901019797FDC90159
:10154000959587959093F8038093F70388E190E051
:101550009093D0038093CF0380EE91E0A9CE81E0F9
:101560008093490189E793E0909347018093460176
:10157000109248010E949F03813009F063C0C12C82
:10158000D12C760110E09091FA03809149018917DE
:10159000E0F40E949F03082F0E949F0301110BC0DB
:1015A000813009F04FC0CC0CDD1CEE1CFF1C689490
:1015B000C0F81F5FE8CF013009F044C0811142C07C
:1015C000CC0CDD1CEE1CFF1CF4CF812F90E090931F
:1015D000F8038093F703C092D703D092D803E09228
:1015E000D903F092DA038C2D8F7390E09093D4039B
:1015F0008093D303960156E0369527955A95E1F7E7
:101600002F7133273093D2032093D10396012227E1
:101610003071232B31F4805C9F4F9093D4038093DF
:10162000D30380E88093F903D3FE03C088E8809356
:10163000F90381E190E09093D0038093CF038FEC86
:1016400099E036CE8091080368E67AE090E00E9447
:101650000003882309F448C08091090344E150E065
:1016600068E773E090E00E94DF028823E9F183E0FD
:10167000809349018CEB91E0909347018093460160
:10168000109248010E949F03813071F50E949F03D0
:1016900081112AC0C12CD12C760110E09091FA035F
:1016A00080914901891708F076C00E949F03B82EE7
:1016B0001330B1F00E949F03082F133021F40E94D1
:1016C0009F03081311C021E0B2125BC001110CC0CE
:1016D000CC0CDD1CEE1CFF1C6894C0F81F5FDECF35
:1016E0000E949F03B81631F3F090FA033CE3F3161F
:1016F00019F044E0F41215C00091080310E068E20C
:1017000073E2C8010E940003811192C06CE175E28E
:10171000C8010E94000368EB7BE007E010E0811144
:101720008BC0B2E2FB1609F4F4C0E4E2FE1223C15E
:1017300080E990E00E946203882309F41CC143E021
:1017400060E180E990E00E94CB048091D703909102
:10175000D803A091D903B091DA03492F5A2F6B2FE8
:1017600077275093D4034093D30399279093D203C0
:101770008093D10380E190E09093F8038093F70386
:10178000F7C0B110B1CF013009F0AECFCC0CDD1CE9
:10179000EE1CFF1CA3CF812F90E09093F803809361
:1017A000F703C092D703D092D803E092D903F09206
:1017B000DA032C2D30E08D2D90E0133200F540E857
:1017C0004093F9033093D4032093D3039093D2032F
:1017D0008093D103E0FE03C088E88093F9031531BC
:1017E00028F08091F90380618093F90382E190E011
:1017F0009093D0038093CF0383E79AE059CD40E9DB
:101800004093F9033093D4032093D3039093D203EE
:101810008093D103C7019F739093D6038093D50320
:10182000F7FE03C088E98093F90383E190E0E0CFFD
:1018300068E670E106E010E08091090390E0A4E022
:1018400044E150E0FA1213C060ED77E00E94DF023D
:10185000882309F490C080910A0364EF71E090E05E
:101860000E940003882309F486C081E8FACB0E9415
:10187000DF02882309F455CF43E06CE18CE790E068
:101880000E94CB0480E88093F9038091D703909164
:10189000D803A091D903B091DA036C017D01F4E083
:1018A000F694E794D794C794FA95D1F7A601D0920D
:1018B000D403C092D3036C017D0124E1F694E79434
:1018C000D794C7942A95D1F7D092D203C092D1036E
:1018D00024E030E060E0742F7F70670FE4E05695FD
:1018E0004795EA95E1F721503109A9F786278F70CE
:1018F0009927AA27BB27892B8A2B8B2B19F084E8E1
:101900008093F9031093D0030093CF038CE190E010
:101910003ECD8091FB039091FC038C3E9C4508F0EA
:101920003ACD809108036EE072E090E00E940003DF
:10193000882309F430CD809128036EE072E090E0B6
:101940000E940003882309F426CD81E08093F903E7
:101950008091FF03909100049093D2038093D10370
:1019600080910104909102049093D4038093D30357
:1019700085E090E08CCB8091FA03982F9F7D943482
:1019800019F0863009F07DC084EA90E00E9462037D
:10199000882309F476C08091FA038630B1F481E29D
:1019A0008093F9038091FF03909100049093D203F8
:1019B0008093D10380910104909102049093D40309
:1019C0008093D30385E190E062CB43E060E284EA58
:1019D00090E00E94CB049091D7038091D80310919E
:1019E000D9032091DA039093D1038093D2033091ED
:1019F000FA03022F0095343639F543E460E184EAB6
:101A000090E00E94CB048091D7039091D8031017E7
:101A100031F09095981719F094E09093F903982F6E
:101A2000812F9093D4038093D30380E390E090932D
:101A3000F8038093F70386E190E09093D0038093BE
:101A4000CF038EEB9AE034CC101306C0412F50E048
:101A50005093D4034093D30389130EC090E0909326
:101A6000D2038093D10380E290E09093F8038093B7
:101A7000F70384E190E0E1CF1093D3032093D403E4
:101A8000F2CF8091FA03843269F588EB90E00E94EE
:101A90006203882339F143E060E188EB90E00E9423
:101AA000CB041091D7038091D8038095181719F0B3
:101AB00084E08093F9038DE692E00E94F600812F86
:101AC00090E09093D4038093D3031092D2031092AA
:101AD000D10380E190E09093F8038093F7038EE1C7
:101AE00090E0D5CA8091FA038434C1F48CEC90E084
:101AF0000E946203882391F043E060E28CEC90E066
:101B00000E94CB0480E88093F90380E290E09093F8
:101B1000F8038093F7038DE190E0B9CA8091080340
:101B20008E3E08F069C08091090344E150E062E014
:101B300074E090E00E94DF02882309F45DC0809188
:101B4000FA03843209F058C000910F01802F807190
:101B5000409107015091080104FD04C04091090122
:101B600050910A01001F0027001F21E0811101C0D0
:101B700020E063E080E10E94040380E88093F903A1
:101B80004091D7039091D803242F392F592F529584
:101B90005F709F7064E0369527956A95E1F72F7026
:101BA0004F708FE0852789278227481719F084E82E
:101BB0008093F9036091FB037091FC03683F7141CE
:101BC00028F48091F90382608093F9035093D10344
:101BD0001092D20340E1949FC0011124822B909374
:101BE000D4038093D30380E190E09093F803809333
:101BF000F7038BE190E04BCA80EE90E00E94620315
:101C0000882371F18091FA03843251F543E060E159
:101C100080EE90E00E94CB0480912A0368E072E09D
:101C200090E00E9400038823D9F08091D70390911F
:101C3000D80398279F3FA1F490E09093D40380931A
:101C4000D30380E190E09093F8038093F7038AE157
:101C500090E09093D0038093CF0388ED94E028CB5D
:101C60008091FA03803709F04FC041E068E084EFCB
:101C700090E00E94CB048091D7039091D803A0916B
:101C8000D903B091DA03892B8A2B8B2BE9F541E13B
:101C90006FE184EF90E00E94CB04C090D703D09016
:101CA000D803E090D903F090DA034FE461E184EFC8
:101CB00090E00E94CB049091D8038091D9038927AA
:101CC000982789279093D4038093D303C092D70396
:101CD000D092D803E092D903F092DA03D092D203E3
:101CE000C092D103F092D603E092D5038CE190E04C
:101CF0009093D0038093CF0388E390E09093F80310
:101D00008093F70380E824CA8091FA03823108F4B3
:101D10003DC18E010F5F1F4F92E3D8011D929A952E
:101D2000E9F743E060E08250990B242F30E0281758
:101D3000390794F426503D4FF9012585223308F0E8
:101D400025C1F801E20FF11D30813F5F308362173A
:101D500008F4622F4E5FE9CF1EAA1DAA9E012B5CDC
:101D60003F4FAE014A5C5F4FC8010E94A606882320
:101D700009F40CC182E3D8011D928A95E9F72091FC
:101D8000FA032250330B44E060E0842F90E0821786
:101D9000930794F486509D4FFC018585823308F0AB
:101DA000F5C0F801E80FF11D90819F5F90836817DF
:101DB00008F4682F4E5FE9CF1CAA1BAA9E012D5C78
:101DC0003F4FAE014C5C5F4FC8010E94A6068823BE
:101DD00009F4DCC08091FA0386951FEF180FCBA899
:101DE000CC2011F01EEF180F812F90E09093F80394
:101DF0008093F7037C01F1E0EF1AF108F7FE04C0CD
:101E00007C012EE1E20EF11C55E0F594E7945A9521
:101E1000E1F7EFAAADA8A11003C0CC2009F4B6C029
:101E20006CA882E3689E300111248EA8889E400130
:101E30001124A89E50011124C89E6001112433E092
:101E4000432E512C22242394312C812F113208F05F
:101E500080E29BA9992309F47BC0A2E0B0E0B09393
:101E6000D003A093CF0300E020E0A601642D0E94E0
:101E700004038091D7039091D803A091D903B09126
:101E8000DA0324E0529EF0011124E951FC4F8083D3
:101E90009183A283B38330E4430E105253944FA92D
:101EA000451598F62091FB033091FC03203D374007
:101EB000E8F4F701EE0FFF1FEE0FFF1FE951FC4F93
:101EC00000811181228133814091030450910404E7
:101ED000609105047091060404171507260737075B
:101EE00029F42091F90321602093F90380930304DE
:101EF00090930404A0930504B09306042091080372
:101F000092E3299F900111243093DC032093DB039B
:101F100080910903899FC00111249093DE0380936F
:101F2000DD039092E4038092E3037092E6036092F3
:101F3000E503A114B10409F1C114D10489F4B092EC
:101F4000E003A092DF037092E2036092E10323CAF0
:101F50003092D0032092CF0300E021E0A50186CF8C
:101F6000D092E203C092E1039092E0038092DF03FB
:101F7000B092E403A092E3030ECA9092E003809231
:101F8000DF03D092E203C092E10305CAE091FA03B5
:101F9000E63008F400CA11E025EC3DE94CE151E8D7
:101FA000F0E00AE0612F70E0CB0102968E179F07E8
:101FB0007CF586509D4FDC011D968C9166507D4FBF
:101FC000DB011D966C91809F7001112498E0699F40
:101FD000D0011124EA16FB06C8F0609FB00111245D
:101FE000A8E08A9FC0011124FF24F39468177907A1
:101FF00010F482E0F82E63E971E080E091E00E9445
:1020000033119B01AC012F251F5FCCCFF12CF3CFF7
:102010002093D7033093D8034093D9035093DA0326
:1020200080E290E09093F8038093F7031092D0033E
:102030001092CF03B0C9495CC8C98F3F09F00CCAE0
:1020400000931401F40114911F3F09F405CA1130E3
:1020500009F487C020F1123009F0FCC91092B000D9
:102060001092B1008091B00082608093B0008091A6
:10207000B10081608093B100F6018491E82FF0E017
:10208000EE0FFF1FE15BFE4F8591949190932C0121
:1020900080932B01F501849180932A0117C014BC11
:1020A00015BC84B5826084BD85B5816085BDF601AF
:1020B0008491E82FF0E0EE0FFF1FE15BFE4F85916A
:1020C0009491F501849180932E0110E0F501249103
:1020D000F6018491882399F090E0880F991FFC0104
:1020E000EC5BFE4FA591B491FC01E15BFE4F859145
:1020F00094918FB7F8949C91292B2C938FBF812FAB
:102100008D7F09F04BC01230B1F460E970ED83E0CF
:1021100090E0A30192010E949311BA01A9014150DC
:1021200051096109710993E04F3F5105610571053E
:1021300009F00CF471C068E478EE81E090E0A3014E
:1021400092010E949311BA01A901415051096109FC
:10215000710994E0111160C085B5887F836085BDE9
:1021600067C0109280001092810080918100886089
:102170008093810080918100816080938100F601CD
:102180008491E82FF0E0EE0FFF1FE15BFE4F859199
:102190009491F501849180932D0198CF60E072E1D4
:1021A0008AE790E0A30192010E949311BA01A9016C
:1021B00041505109610971091130A1F580918100E7
:1021C000887F8160809381005093890040938800CC
:1021D0008FEF9FEFDC018093330190933401A09344
:1021E0003501B093360180916F00826080936F005B
:1021F00033C94093B3008FEF9FEFDC0180932F0131
:1022000090933001A0933101B0933201809170001E
:1022100082608093700020C98091B100887F892BF3
:102220008093B100113081F2123019F3111114C9E9
:1022300047BD8FEF9FEFDC0180933701909338010A
:10224000A0933901B0933A0180916E00826080932F
:102250006E0002C9FB01DC0102C005900D924150E5
:102260005040D8F70895DB018F939F930E9465112A
:10227000BF91AF91A29F800D911DA39F900DB29F22
:10228000900D11240895A1E21A2EAA1BBB1BFD017B
:102290000DC0AA1FBB1FEE1FFF1FA217B307E40745
:1022A000F50720F0A21BB30BE40BF50B661F771F9D
:1022B000881F991F1A9469F760957095809590957D
:1022C0009B01AC01BD01CF0108950E947011A59F33
:1022D000900DB49F900DA49F800D911D1124089521
:1022E000A29FB001B39FC001A39F700D811D112457
:1022F000911DB29F700D811D1124911D0895AA1B7F
:10230000BB1B51E107C0AA1FBB1FA617B70710F0E0
:10231000A61BB70B881F991F5A95A9F78095909512
:10232000BC01CD010895052E97FB1EF400940E9478
:10233000AA1157FD07D00E94431107FC03D04EF4A9
:102340000C94AA1150954095309521953F4F4F4FD1
:102350005F4F089590958095709561957F4F8F4F51
:102360009F4F0895EE0FFF1F0590F491E02D099403
:04237000F894FFCF0F
:102374001B00269E0002049E0029029E0007010005
:102384006E000000FF000000007202D201FF01BFD6
:0A2394000230020E0222020D0A00C0
:00000001FF
